:020000040800F2
:10000000480B002001010008053B00083D300008B6
:10001000013B0008FF0A0008154800080000000026
:100020000000000000000000000000003D4000084B
:10003000550B000800000000D33F00088541000870
:100040001B0100081B0100081B0100081B01000820
:100050001B0100081B0100081B0100081B01000810
:100060001B0100081B0100081B0100081B01000800
:100070001B0100081B0100081B0100081B010008F0
:100080001B0100081B0100081B0100081B010008E0
:100090001B0100081B0100081B0100081B010008D0
:1000A0001B0100081B0100081B0100081B010008C0
:1000B000F54100081B0100081B0100081B01000896
:1000C0001B0100081B0100081B0100081B010008A0
:1000D0001B0100081B0100081B010008054800085F
:1000E0001B0100081B0100081B010008DFF80CD0F1
:1000F00000F0A2FC004800470D6F0008480B0020EC
:100100000648804706480047FEE7FEE7FEE7FEE7B1
:10011000FEE7FEE7FEE7FEE7FEE7FEE7F341000845
:10012000ED0000082DE9F0410024061B254671F181
:10013000000605DA01240027D0EB070067EB010178
:10014000161E73F1000605DA0027D2EB070201251F
:1001500067EB030300F042FB86460E4617469C46BB
:10016000AC4204D00025D0EB050E65EB010624B1AE
:100170000020D2EB000760EB030C704631463A4694
:100180006346BDE8F081202A04DB203A21FA02F020
:100190000021704721FA02F3D040C2F120029140C1
:1001A000084319467047D2B201E000F8012B491EFE
:1001B000FBD270470022F6E710B513460A46044604
:1001C0001946FFF7F0FF204610BD30B50446002069
:1001D000034600E05B1C934203D2E05CCD5C401B15
:1001E000F8D030BDF0B480EA0102D40F4200B2EB87
:1001F000410F02D20246084611464A0042D0C30DC2
:10020000DDB2C1F3C752AD1A202D35DAC1F31601A4
:1002100041F4000204B15242C5F1200602FA06F18F
:100220002A411044B3EBD05F23D0C4B1012DA0EB21
:10023000C35009DCF0BC4FF0004202EAC352DBB20B
:1002400000F5000000F025BB400000F1807000EBDD
:10025000C350A0F1807040EAD170490009E049081C
:1002600041EAC071A0EBC35000F50000400800EB6C
:10027000C350F0BC00F004BB6142012202EB41011B
:10028000001BF6E7F0BC704781F00041AAE780F060
:100290000040A7E780EA010210B502F000434000E9
:1002A00022D04A001FD0010E01EB1261C0F35600AC
:1002B000C2F3560240F4000042F40002A0FB022008
:1002C00000047F39140400D0401C50EA124001D4CD
:1002D0004000491EC2B20C0604EBD010401C40087E
:1002E000802A02D003E0002010BD20F00100002988
:1002F00000DA0020184310BD30B480EA010202F099
:10030000004530F0004221F0004013D090B1C30D01
:10031000D40DC2F31601C0F31600E41A41F4000133
:1003200040F400027D34914201D3641C00E0490096
:10033000002C02DA30BC002070474FF4000000238C
:10034000914201D3891A034340084FEA4101F7D192
:1003500051B1914202D14FF0004105E002D24FF07D
:10036000010101E06FF0010103EBC450284430BCEF
:1003700000F086BA2DE9FE4F804681EA0300C00FE7
:100380000C46009021F0004123F00045B8EB02003C
:10039000A94105D24046214690461C460B460246DE
:1003A00023F00040104347D0270DC7F30A00C3F3E2
:1003B0000A510290401A019040286BDAC3F31300EF
:1003C00040F4801B0098924620B10023D2EB030A30
:1003D00063EB0B0B01985946C0F14002504600F008
:1003E0002EFA06460D4650465946019A00F036FA56
:1003F00010EB08006141002487EA115284EAE77398
:100400001A4340D0009A62B3019A012A4FEA075278
:1004100015DC001B61EB02014FF0004202EA0752BB
:10042000CDE90042001C41F5801132462B4600F018
:100430006DFA03B0BDE8F08F40462146F9E7001B96
:1004400061EB0201001C41F5801300185B4120188C
:10045000A2F5001747EB030140EAD570B6196D41CC
:1004600011E06D084FEA360645EAC0754FEA0752BB
:10047000001B61EB0201001C41F5801149084FEAA5
:1004800030000019514132462B4603B0BDE8F04F11
:1004900000F02DBA0098012240000023D0EB0202A8
:1004A00063EBE073009821464FEAE074B8EB00007C
:1004B00061EB0401E9E783F000435BE781F0004171
:1004C00058E72DE9FE4F81EA030404F0004421F0CF
:1004D000004100944FF0000B23F0004350EA010468
:1004E0005ED052EA03045BD0C3F30A54C1F30A5549
:1004F0002C44A4F2F3340194A0FB0254C1F3130181
:1005000041F48011C3F3130343F4801301FB02444D
:1005100000FB034E840A970A44EA815447EA835752
:10052000A4FB076802958D0A05FB07854FEA932C0B
:1005300004FB0C542705029D4FEA065847EA16377C
:10054000B5EB08056EEB070C870E920E47EA811794
:1005500042EA8312A7FB0201B6EB0B0164EB000435
:100560002B0D43EA0C335E1844EB1C50DA4651461F
:10057000E7FB0201C5F313044FEA0B3343EA1453BC
:100580004FEA0432019C43EA0603A4F10C040294EE
:10059000009CCDE900B400F0B9F903B0BDE8F08FDC
:1005A00000200146F9E72DE9F04D81EA030404F04B
:1005B000004B21F0004514464FF0000A23F00041A3
:1005C00050EA050220D054EA01021DD0C5F30A57B3
:1005D0000246C5F31303C1F31300C1F30A5640F4F6
:1005E000801543F48013A7EB0608101BD64608F2CB
:1005F000FD3873EB050002D308F1010801E0921801
:100600005B41B8F1000F03DA00200146BDE8F08D30
:1006100000204FF48011064684460EE0171B73EB52
:10062000050705D3121B63EB050306434CEA010CD7
:1006300049084FEA300092185B4150EA0107EDD1BA
:1006400052EA030012D082EA040083EA050108435B
:1006500005D0101BAB4106D20122002306E0002288
:100660004FF0004302E06FF0010253101AEB060056
:100670004CEB085110EB0A0041EB0B01BDE8F04DCB
:1006800000F035B9C10F80EAE0700844CA0796232C
:10069000002100F0FEB896230022114600F0F9B8C0
:1006A00000F0004220F00040C10DC0F3160040F4FD
:1006B00000007F2901DA00207047962903DCC1F190
:1006C0009601C84001E096398840002AF4D04042A3
:1006D000704720F00040C10DC0F3160040F4000048
:1006E0007F2901DA00207047962903DCC1F19601C9
:1006F000C840704796398840704700F0004230F09B
:1007000000400AD0C10D01F56071C0F3160042EA45
:100710000151C2084007114370470020014670474D
:1007200030B5041E71F1000404DB4FF00044404278
:1007300064EB0101141E73F1000405DB1C464FF04D
:100740000043524263EB04038B4208BF824230BD38
:1007500001F0004330B421F0004150EA010206D01C
:100760000A0DA2F56072C1F31301002A02DC30BC4D
:1007700000207047440F44EAC104C100E01830BCB7
:1007800000EBC25000F07CB8002801DBC0F1004053
:10079000002901DBC1F1004181427047002801DBE3
:1007A000C0F10040002901DBC1F1004188427047DF
:1007B00030B50B46014600202022012409E021FA31
:1007C00002F59D4205D303FA02F5491B04FA02F52E
:1007D0002844151EA2F10102F1DC30BD2DE9F05FC5
:1007E0000546002092469B468846064681464024A0
:1007F0001BE02846414647462246FFF7C4FC5346C5
:100800005A46C01A914110D311461846224600F0AC
:1008100016F82D1A67EB01084F46224601200021E9
:1008200000F00DF817EB00094E41201EA4F1010461
:10083000DFDC484631462A464346BDE8F09F202A81
:1008400004DB203A00FA02F1002070479140C2F127
:10085000200320FA03F3194390407047202A06DB57
:10086000CB17203A41FA02F043EAE07306E041FA7E
:1008700002F3D040C2F1200291400843194670476C
:100880000029A8BF7047401C490008BF20F00100A4
:10089000704710B4B0FA80FC00FA0CF050EA010482
:1008A00004BF10BC704749B1CCF1200421FA04F414
:1008B00011FA0CF118BF012121430843A3EB0C01ED
:1008C000CB1D4FEA00614FEA102042BF002010BC50
:1008D000704700EBC35010440029A4BF10BC704700
:1008E000401C490008BF20F0010010BC704710B543
:1008F000141E73F1000408DA401C41F10001921843
:100900005B411A4301D120F0010010BD2DE9F04DEB
:1009100092469B4611B1B1FA81F202E0B0FA80F240
:1009200020329046FFF78BFF04460F4640EA0A004C
:1009300041EA0B0153465A46084313D0114653EA85
:10094000010019D0C8F140025046FFF71CFC0546D3
:100950000E46504659464246FFF771FF084305D000
:10096000012004E020463946BDE8F08D0020054313
:1009700046EAE0762C4337430A986305E40AA0EB85
:1009800008000022FD0A44EA47540A3002D500203C
:100990000146E9E7010510196941DDE9084500193B
:1009A0006941BDE8F04DA2E770B521F00043034373
:1009B0000CD0C1F30A550024D5EB040564EB040305
:1009C000D617AD1AB34102DB0020014670BD2018D6
:1009D00041EB025170BDC1F30A52C1F3130140F261
:1009E000FF3341F480119A4202DA00200146704739
:1009F00040F233439A42A2F2334202DC5242FFF702
:100A0000C2BBFFF71CBF000030B5041E71F100042B
:100A100004DB4FF00044404264EB0101141E73F10B
:100A2000000405DB1C464FF00043524263EB040315
:100A3000994208BF904230BD064C074D06E0E06881
:100A400040F0010394E8070098471034AC42F6D315
:100A5000FFF750FB30B5000850B500082DE9F04D08
:100A600000231A461B1A8A4103DB00200146BDE819
:100A7000F08DC1F30A52C1F3130141F480154FF018
:100A8000000BD10702D100186D41521E0027044609
:100A900040F2FF11384601EB620A3E4680460246AC
:100AA00000204FF48011FFF76EFBC2197141BB1893
:100AB00046EB0100B4EB030C75EB000C04D3E41A15
:100AC00065EB000517460E46241908F101006D413B
:100AD00080463428E3DDF91946EB0600091BA841DE
:100AE00003D24FF0FF32134601E0002213461BEB06
:100AF000070046EB0A51BDE8F04DFFF7F8BE00BF16
:100B0000FEE7000010B50E4802784FF400410D4892
:100B100000F0E8FA0C4802784FF48041094800F0F0
:100B2000E1FA0A4802784FF40051064800F0DAFA78
:100B3000074802784FF48051024800F0D3FA10BD04
:100B400076000020000C0140770000207400002097
:100B500075000020704772B600BFFEE72DE9F05F18
:100B600038490968384A126811440846FFF78AFD77
:100B70003649086036480068FFF7BFFD06464FF06B
:100B80006632344BFFF79DFC04460D462F48006843
:100B9000FFF7B3FD06464FF033322F4BFFF791FCC2
:100BA000804622462B46FFF7E5FB8246FFF7D0FD45
:100BB0002A490860084600682549086028480168F5
:100BC00026480068FFF760FB044626480168204677
:100BD000FFF708FB23490860234922480068FFF714
:100BE000DDFD02D220481F49086020491D480068E9
:100BF000FFF7CAFD02D21D481A4908601C48007858
:100C0000012802D01B48007810B90020154908605F
:100C10001948016813480068FFF73CFB0446174871
:100C200001680E480068FFF735FB05462146FFF7CF
:100C3000D9FA1349086008460068FFF731FDBDE89E
:100C4000F09F0000580000205C000020C000002041
:100C5000C80000206666E63F3333D33FC40000205F
:100C6000CC000020D000002000803B4500803BC528
:100C70007800002079000020D8000020D400002057
:100C8000BC0000200146002291F82100022808D073
:100C90000420886300BF002081F8200000BF0120ED
:100CA00070470868006820F00E000B68186008683C
:100CB000006820F001000B68186091F840300120B6
:100CC0009840CB6B5860012081F8210000BF0020C4
:100CD00081F8200000BF1046E2E7000070B504462E
:100CE000002594F82100022803D00420A0630125E8
:100CF00048E02068006820F00E0021680860206845
:100D0000006820F00100216808601F4920688842BF
:100D100001D1012026E01C4914312068884201D10C
:100D200010201FE0184928312068884201D1801521
:100D300018E015493C312068884201D1801411E047
:100D4000114950312068884202D14FF4803009E0C7
:100D50000D4964312068884202D14FF4801001E0CF
:100D60004FF08070084908394860012084F821005C
:100D700000BF002084F8200000BF606B10B1204647
:100D8000616B8847284670BD0800024070B5044674
:100D900000F0AEF906462546681C10B104480078FC
:100DA000054400BF00F0A4F9801BA842FAD370BD2F
:100DB000400000202DE9F8470346002294466EE1EA
:100DC0004FF0010808FA02F4D1F8008008EA0400A4
:100DD000A0427DD1DFF8DCA2D1F80480A8EB0A099B
:100DE000D0453AD014DCB8F1030F50D009DCB8F18B
:100DF000000F31D0B8F1010F1CD0B8F1020F49D16A
:100E000020E0B8F1110F18D0B8F1120F42D11EE056
:100E1000B9F5881F25D006DCB9F5803F20D0B9F59B
:100E2000801F37D11AE0B9F5001F18D0B9F5041F9B
:100E300030D117E0D1F80CC02DE0D1F80C8008F1CA
:100E4000040C28E0D1F80C8008F1080C23E0D1F85C
:100E50000C8008F10C0C1EE000BF00BF00BF00BFFB
:100E600000BF00BFD1F80880B8F1000F02D14FF0E9
:100E7000040C0BE0D1F80880B8F1010F03D14FF05A
:100E8000080C1C6102E04FF0080C5C6103E04FF0BD
:100E9000000C00E000BF00BFFF2801D8984601E029
:100EA00003F104084646FF2802D84FEA820803E00F
:100EB000A2F108084FEA88084746D6F800804FF0AC
:100EC0000F0909FA07F928EA09080CFA07F900E0FE
:100ED00088E048EA0908C6F80080D1F8048008F0E4
:100EE0008058B8F1805F7DD100BFDFF8CC81D8F8A1
:100EF000188048F00108DFF8C091C9F81880C8468A
:100F0000D8F8188008F00108CDF8008000BF00BFB5
:100F10004FEAB9384FEA920958F829504FEA8278D7
:100F20004FEA18794FF00F0808FA09F825EA080582
:100F3000DFF88881434502D14FF0000816E0DFF862
:100F40008081434502D14FF001080FE0DFF8748142
:100F5000434502D14FF0020808E0DFF86C814345B9
:100F600002D14FF0030801E04FF004084FEA827904
:100F70004FEA197908FA09F848EA0505DFF84C81C3
:100F80004FEA920948F82950D1F8048008F48038D3
:100F9000B8F5803F0AD1DFF83881D8F8008048EAF8
:100FA0000008DFF82C91C9F8008009E0DFF8208103
:100FB000D8F8008028EA0008DFF81491C9F800800A
:100FC000D1F8048008F40038B8F5003F10D1DFF8FC
:100FD000008108F10408D8F8008048EA0008DFF82A
:100FE000F09000E05AE009F10409C9F800800DE032
:100FF000DFF8DC8008F10408D8F8008028EA00084F
:10100000DFF8CC9009F10409C9F80080D1F8048018
:1010100008F48018B8F5801F0ED1DFF8B48008F10D
:101020000808D8F8008048EA0008DFF8A49009F121
:101030000809C9F800800DE0DFF8948008F108087D
:10104000D8F8008028EA0008DFF8849009F1080940
:10105000C9F80080D1F8048008F40018B8F5001F22
:101060000ED1DFF86C8008F10C08D8F8008048EA4F
:101070000008DFF85C9009F10C09C9F800800DE068
:10108000DFF84C8008F10C08D8F8008028EA000846
:10109000DFF83C9009F10C09C9F80080521CD1F826
:1010A000008028FA02F8B8F1000F7FF489AEBDE89D
:1010B000F8870000000011100010024000080140F5
:1010C000000C0140001001400014014008000140E4
:1010D00000040140024693680B400BB1012000E080
:1010E000002070470AB1016101E00B040361704701
:1010F00001480068704700003800002070B50446C1
:101100000CB9012070BD94F83D0028B9002084F886
:101110003C00204600F03EFB242084F83D0020687F
:10112000006820F00100216808602068006840F431
:101130000040216808602068006820F400402168B1
:10114000086000F00BFD05465C496068884206D8DF
:101150005B48854201D2012007E0002005E05948A4
:10116000854201D2012000E00020012800D1C9E71A
:101170005548B5FBF0F62068406820F03F0030434A
:10118000216848604D496068884201D8701C07E0BA
:101190004FF4967070434FF47A71B0FBF1F0401C3D
:1011A0002168096A21F03F01084321680862434928
:1011B0006068884214D8681E61684900B0FBF1F08D
:1011C000401CC0F30B00042801D204203DE0681E3F
:1011D00061684900B0FBF1F0401CC0F30B0034E043
:1011E000A06838B9681E616801EB4101B0FBF1F0FD
:1011F000401C0AE0681E616801EBC10202EB0111AC
:10120000B0FBF1F0401C40F48040C0F30B0008B983
:1012100001201AE0A06848B9681E616801EB41012D
:10122000B0FBF1F0401CC0F30B000CE0681E6168DD
:1012300001EBC10202EB0111B0FBF1F0401CC0F365
:101240000B0040F4804040F400402168C9694CF62E
:10125000FF72914308432168C861D4E9070108433C
:101260002168096821F0C001084321680860D4E9B9
:10127000031008432168896848F2FF32914308430C
:1012800021688860D4E9050108432168C96821F014
:10129000FF0108432168C8602068006840F0010031
:1012A0002168086000202064202084F83D00002090
:1012B000206384F83E0000BF24E70000A086010000
:1012C00080841E0000093D0040420F002DE9FE4FC2
:1012D00004460F4690469946DDE90CAB0E9E002071
:1012E0000290FFF705FF054694F83D00202872D1D3
:1012F00019230122CA492046009502F06FF810B167
:101300000220BDE8FE8F00BF94F83C00012801D107
:101310000220F6E7012084F83C0000BF2068006846
:1013200000F0010028B92068006840F00100216841
:1013300008602068006820F40060216808602220AE
:1013400084F83D00402084F83E0000202064C4F86A
:1013500024A0A4F82AB0608D2085B248E0624B46F4
:10136000424639462046CDE9006501F0ABFE08B1A2
:101370000120C6E7208D88B900BF002001902068B9
:101380004069019020688069019000BF00BF20681B
:10139000006840F40070216808604BE0208D01284F
:1013A0001AD12068006820F480602168086072B655
:1013B00000BF00200190206840690190206880698A
:1013C000019000BF00BF2068006840F400702168F1
:1013D000086062B62EE020E1208D022819D1206835
:1013E000006840F400602168086072B600BF002009
:1013F000019020684069019020688069019000BFD9
:1014000000BF2068006820F480602168086062B630
:1014100010E02068006840F480602168086000BF28
:101420000020019020684069019020688069019047
:1014300000BF00BFE2E0208D03287DD8208D012869
:1014400015D12A463146204602F06DF808B1012038
:1014500057E720680069616A0870606A401C606232
:10146000208D401E2085608D401E6085C6E0208D49
:1014700002282CD1334600226B492046009501F00A
:10148000ADFF08B101203CE772B62068006840F467
:1014900000702168086020680069616A0870606AED
:1014A000401C6062208D401E2085608D401E60853E
:1014B00062B620680069616A0870606A401C6062F8
:1014C000208D401E2085608D401E608596E033464D
:1014D000002255492046009501F080FF08B1012007
:1014E0000FE72068006820F480602168086072B609
:1014F00020680069616A0870606A401C6062208D23
:10150000401E2085608D401E608548480068192176
:10151000B0FBF1F04FF47A71B0FBF1F0C0EBC0001A
:1015200000EB8000029000BF0298401E02900298DB
:10153000A8B90020206300E039E0202084F83D00B5
:10154000002084F83E00206C40F02000206462B649
:1015500000BF002084F83C0000BF0120D1E62068D5
:101560004069C0F380000028DED02068006840F4A5
:1015700000702168086020680069616A0870606A0C
:10158000401C6062208D401E2085608D401E60855D
:1015900062B620680069616A0870606A401C606217
:1015A000208D401E2085608D401E608526E02A46E5
:1015B0003146204601F0B7FF08B10120A1E62068BE
:1015C0000069616A0870606A401C6062208D401E7C
:1015D0002085608D401E608520684069C0F38000D2
:1015E00060B120680069616A0870606A401C6062CE
:1015F000208D401E2085608D401E6085208D002836
:101600007FF419AF202084F83D00002084F83E00CC
:1016100000BF84F83C0000BF73E6022071E60000C2
:10162000020010000000FFFF040001004400002041
:101630002DE9FC5F04460F4690469946DDE90CAB68
:101640000E9EFFF755FD054694F83D0020287DD1FC
:10165000192301224D492046009501F0BFFE10B12B
:101660000220BDE8FC9F00BF94F83C00012801D196
:101670000220F6E7012084F83C0000BF20680068E3
:1016800000F0010028B92068006840F001002168DE
:1016900008602068006820F400602168086021204C
:1016A00084F83D00402084F83E0000202064C4F807
:1016B00024A0A4F82AB0608D20853548E0624B460E
:1016C000424639462046CDE9006501F0ABFD08B140
:1016D0000120C6E731E02A463146204601F063FF8B
:1016E00050B1206C042805D12068006840F40070D7
:1016F000216808600120B4E7606A00782168086109
:10170000606A401C6062208D401E2085608D401EF6
:10171000608520684069C0F3800070B1208D60B1A1
:10172000606A007821680861606A401C6062208DF0
:10173000401E2085608D401E6085208D0028CAD106
:101740002A463146204601F01BFE00E01CE050B165
:10175000206C042805D12068006840F400702168DE
:10176000086001207DE72068006840F4007021686F
:101770000860202084F83D00002084F83E0000BF6F
:1017800084F83C0000BF6CE702206AE7020010000A
:101790000000FFFF10B586B00446002002900390C1
:1017A000049005901A49206888422FD100BF19483B
:1017B000806940F00800174988610846806900F098
:1017C0000800019000BF00BF4FF44070029012204B
:1017D00003900320059002A90F48FFF7EBFA00BF22
:1017E0000E49486840F0E06040F00200486000BFE9
:1017F00000BF0848C06940F400100649C8610846A7
:10180000C06900F40010019000BF00BF06B010BD19
:101810000054004000100240000C01400000014054
:101820000348006803490978084401490860704783
:10183000380000204000002010B50848006840F043
:10184000100006490860032000F0A8F80F2000F0FF
:1018500007F800F02BF8002010BD00000020024027
:1018600070B504460E4800784FF47A71B1FBF0F081
:101870000C490968B1FBF0F5284600F00BFC08B1F3
:10188000012070BD102C07D200222146501E00F00E
:1018900047F80548046001E00120F2E70020F0E786
:1018A00040000020440000203C00002008B500BF9C
:1018B0001148806940F001000F498861084680693D
:1018C00000F00100009000BF00BF00BF0846C069E3
:1018D00040F08050C8610846C06900F08050009018
:1018E00000BF00BF00BF0549486820F0E06040F03D
:1018F0000070486000BF08BD0010024000000140B9
:1019000001460846002809DB00F01F0301229A4027
:1019100043099B0003F1E023C3F8002100BF704797
:101920002DE9F05F80460D461646002702F0E0FFE5
:10193000074639462A46334601F00700C0F1070A38
:10194000BAF1040F02D94FF0040A01E0C0F1070A0E
:10195000D14600F1040ABAF1070F02D24FF0000A93
:1019600001E0A0F1030AD4464FF0010A0AFA09FA8D
:10197000AAF1010A0AEA020A0AFA0CFA4FF0010B6C
:101980000BFA0CFBABF1010B0BEA030B4AEA0B045D
:101990002146404602F0B4FFBDE8F09F00BF00F0D2
:1019A0000702064B19684FF6FF031940044B0B431F
:1019B00043EA0221014B196000BF70470CED00E0C3
:1019C0000000FA0570B504460D460CB9012070BD43
:1019D0005A48006800F00700A8420ED25748006835
:1019E00020F007002843554908600846006800F0C9
:1019F0000700A84201D00120E9E7207800F00200AA
:101A000002281DD1207800F00400042805D14C489C
:101A1000406840F4E0604A494860207800F00800DF
:101A2000082805D14648406840F460504449486061
:101A30004348406820F0F000A168084340494860EE
:101A4000207800F0010078B36068012806D13C4896
:101A5000006800F4003090B90120B8E760680228FF
:101A600006D13748006800F0007040B90120AEE7A9
:101A70003348006800F0020008B90120A7E73048A9
:101A8000406820F00300616808432D494860FFF773
:101A90002FFB064609E0FFF72BFB801B41F2883144
:101AA000884202D9032092E707E02548406800F009
:101AB0000C006168B0EB810FEDD12048006800F0A8
:101AC0000700A8420ED91D48006820F007002843EF
:101AD0001A4908600846006800F00700A84201D0D3
:101AE000012074E7207800F00400042807D114488E
:101AF000406820F4E060E1680843114948602078BC
:101B000000F00800082808D10D48406820F4605013
:101B1000216940EAC1000A49486000F03FF80849DD
:101B20004968C1F30311074A515CC840064908607F
:101B300006480068FFF794FE002048E700200240B6
:101B40000010024012920008440000203C000020D7
:101B500001480068704700004400002000B5FFF70E
:101B6000F7FF04494968C1F30221034A515CC840A8
:101B700000BD0000001002402292000800B5FFF7EF
:101B8000E7FF04494968C1F3C221034A515CC840D8
:101B900000BD00000010024022920008F0B585B0A0
:101BA0000FF26C0C9CE8E01001A8A0E8E0101CA566
:101BB0002D68009500210022002300240020194DEB
:101BC000696801F00C05F5B1042D02D0082D19D17A
:101BD00001E0154819E001ADC1F38346AC5D01F4A5
:101BE000803555B10F4D6D68C5F340451DF8052092
:101BF0000D4D6543B5FBF2F302E00C4D04FB05F31C
:101C0000184602E000BF084800BF00BF05B0F0BDA5
:101C100002030405060708090A0B0C0D0E0F10102D
:101C2000010200000010024000127A0000093D008D
:101C3000F8B504460CB90120F8BD207800F0010089
:101C4000002878D0F848406800F00C0004280CD038
:101C5000F548406800F00C00082811D1F2484068AF
:101C600000F48030B0F5803F0AD1EF48006800F4FE
:101C7000003000285FD0606800285CD10120DBE7DD
:101C800000BF6068B0F5803F06D1E748006840F4C7
:101C90008030E549086028E0606858B9E24800688B
:101CA00020F48030E04908600846006820F4802075
:101CB00008601AE06068B0F5A02F0BD1DA48006820
:101CC00040F48020D84908600846006840F480301D
:101CD00008600AE0D448006820F48030D2490860E7
:101CE0000846006820F48020086000BF606888B162
:101CF000FFF7FEF9054606E0FFF7FAF9401B6428F6
:101D000001D9032098E7C848006800F40030002893
:101D1000F2D010E0FFF7ECF9054606E0FFF7E8F92E
:101D2000401B642801D9032086E7BF48006800F4FF
:101D300000300028F2D1207800F00200022857D1AC
:101D4000B948406800F00C0050B1B748406800F056
:101D50000C00082818D1B448406800F4803098B9C5
:101D6000B148006800F0020020B12069012801D0CC
:101D7000012061E7AC48006820F0F800616940EAA2
:101D8000C100A949086033E02069E8B10120A749F2
:101D90000860FFF7ADF9054606E0FFF7A9F9401B1B
:101DA000022801D9032047E79F48006800F002009D
:101DB0000028F2D09C48006820F0F800616940EAF1
:101DC000C1009949086013E0002098490860FFF7B6
:101DD0008FF9054606E0FFF78BF9401B022801D971
:101DE000032029E79048006800F002000028F2D1A3
:101DF000207800F0080008282DD1A069B8B1012092
:101E00008B490860FFF774F9054606E0FFF770F9A3
:101E1000401B022801D903200EE78348406A00F0E6
:101E200002000028F2D0012002F0D4F813E00020D4
:101E30007F490860FFF75CF9054606E0FFF758F9AF
:101E4000401B022801D90320F6E67748406A00F0DB
:101E500002000028F2D1207800F00400042873D199
:101E600000277148C06900F0805070B900BF6E480B
:101E7000C06940F080506C49C8610846C06900F0F4
:101E80008050009000BF00BF01276A48006800F43E
:101E90008070B0B96748006840F480706549086098
:101EA000FFF726F9054606E0FFF722F9401B6428F4
:101EB00001D90320C0E65F48006800F48070002864
:101EC000F2D000BFE068012806D15748006A40F010
:101ED00001005549086227E0E06858B95248006A95
:101EE00020F00100504908620846006A20F0040012
:101EF000086219E0E06805280BD14B48006A40F001
:101F00000400494908620846006A40F0010008627E
:101F10000AE04548006A20F001004349086208468B
:101F2000006A20F00400086200BFE068A0B1FFF77B
:101F3000DFF8054609E0FFF7DBF8401B41F2883186
:101F4000884202D9032077E622E03748006A00F091
:101F500002000028EFD012E0FFF7CAF8054608E0BB
:101F6000FFF7C6F8401B41F28831884201D90320AF
:101F700062E62D48006A00F002000028F0D1012F2F
:101F800005D12948C06920F080502749C86100BFA9
:101F9000E069C8B32448406800F00C00082860D00D
:101FA000E069022848D1002020490866FFF7A0F820
:101FB000054606E0FFF79CF8401B022801D90320E4
:101FC0003AE61948006800F000700028F2D1206A53
:101FD000B0F5803F07D11448406820F40030A16874
:101FE000084311494860D4E9080108430E4949688B
:101FF00021F4741108430C49486001200B4908661C
:10200000FFF776F8054607E03DE0FFF771F8401B63
:10201000022801D903200FE60348006800F0007091
:102020000028F2D02FE000000010024000004242E1
:102030008004424200700040002014490866FFF707
:1020400057F8054606E0FFF753F8401B022801D970
:102050000320F1E50E48006800F000700028F2D17E
:1020600011E0E069012800D1E6E50948466806F478
:102070008031206A814204D106F47011606A814285
:1020800001D00120D8E50020D6E500000000424242
:102090000010024070B504462546681EB0F1807FEE
:1020A00001D301200FE0681E4FF0E02148610F21AD
:1020B0004FF0FF3002F024FC00204FF0E021886157
:1020C00007200861002070BD7047704710B50346B7
:1020D000002200BF93F83C00012801D1022010BD6E
:1020E000012083F83C0000BF22F0FF00CC6840EAEA
:1020F000040222F440708C6840EA040222F48060FA
:102100004C6840EA040222F400600C6840EA0402D1
:1021100022F480500C6940EA040222F400504C6919
:1021200040EA040222F48040CC6940EA04021868C4
:10213000426400BF002083F83C0000BF00BFCEE730
:1021400030B502460B4600BF92F83C00012801D191
:10215000022030BD012082F83C0000BF022082F83E
:102160003D00106844681068816824F070041868A5
:10217000044310684460104D1068A8420BD01068EA
:10218000B0F1804F07D00D4D1068A84203D00C4D20
:102190001068A84205D121F08001586801431068F9
:1021A0008160012082F83D0000BF002082F83C00E1
:1021B00000BF00BFCDE70000002C0140000400403C
:1021C0000008004010B504460CB9012010BD94F879
:1021D0003D0028B9002084F83C00204600F026F895
:1021E000022084F83D00211D206802F00BF8012038
:1021F00084F8460000BF84F83E0001213F200155CD
:10220000402001554120015500BF00BF012084F846
:10221000420043200155442001554520015500BF8F
:10222000012084F83D000020D0E7000038B50446C6
:102230001649206888420DD100BF1548806940F4D6
:102240000060134988610846806900F400600090CE
:1022500000BF19E02068B0F1804F15D100BF0C48D5
:10226000C06940F001000A49C8610846C06900F031
:102270000100009000BF00BF002211461C20FFF7A4
:102280004FFB1C20FFF73CFB38BD0000002C014039
:1022900000100240014691F83D00012801D00120C4
:1022A0007047022081F83D000868C06840F00100D6
:1022B0000B68D860124B086898420BD00868B0F1E0
:1022C000804F07D00F4B0868984203D00E4B086828
:1022D00098420CD10868806800F00702062A0CD0EA
:1022E0000868006840F001000B68186005E00868A5
:1022F000006840F001000B6818600020D0E7000083
:10230000002C014000040040000800402DE9F0418D
:1023100004460D4600BF94F83C00012802D102207B
:10232000BDE8F081012084F83C0000BF022084F861
:102330003D002068866826F0770626F47F462068F0
:1023400086602868502833D00CDC202850D004DC6C
:1023500000284BD0102851D149E0302849D04028DE
:102360004CD139E060282DD0702807D0B0F5805FBF
:1023700003D0B0F5005F41D10DE040E0D5E9021394
:102380006A68206801F089FF2068866846F0770651
:102390002068866033E0D5E902136A68206801F09E
:1023A0007CFF2068806840F480402168886026E0D7
:1023B000EA686968206802F041F85021206801F05D
:1023C00077FF1CE0EA686968206802F04AF860213B
:1023D000206801F06DFF12E0EA686968206802F089
:1023E0002DF84021206801F063FF08E000BF00BF26
:1023F00000BF2968206801F05BFF00E000BF00BF5C
:10240000012084F83D0000BF002084F83C0000BF9C
:1024100000BF85E72DE9F04104460D4614B90120BF
:10242000BDE8F08194F83D0028B9002084F83C0014
:10243000204600F051F8022084F83D0020688068B2
:1024400044F20701884321688860211D206801F05B
:10245000D9FE2068D0F80880206886692068076A5D
:10246000286840EA080840F203308643A969A86852
:1024700040EA0120064340F60C4086434FF2F0004C
:102480008643E969E86840EA0120064328690001BB
:10249000296A40EA0130064327F022076969686823
:1024A00040EA011007432068C0F808802068866170
:1024B00020680762012084F8460084F83E0001216C
:1024C0003F200155012084F842004320015501209E
:1024D00084F83D000020A3E710B586B00446002034
:1024E000029003900490059029492068884224D1E5
:1024F00000BF2848C06940F002002649C86108466C
:10250000C06900F00200019000BF00BF00BF084694
:10251000806940F0040088610846806900F004008A
:10252000019000BF00BFC0200290002003900490E3
:1025300002A91948FEF73EFC27E0184920688842A6
:1025400023D100BF1348C06940F004001149C8619D
:102550000846C06900F00400019000BF00BF00BF42
:102560000846806940F0080088610846806900F0EC
:102570000800019000BF00BFC0200290002003901F
:10258000049002A90648FEF715FC06B010BD000035
:102590000004004000100240000801400008004014
:1025A000000C01402DE9F04304460D4694F83E60CE
:1025B0003F20075D94F84280432010F804906DB9E5
:1025C000012E02D1B8F1010F02D00120BDE8F08345
:1025D000022084F83E0084F8420025E0042D0CD14E
:1025E000012F02D1B9F1010F01D00120EEE7022144
:1025F0003F2001554320015516E0012E07D1012F40
:1026000005D1B8F1010F02D1B9F1010F01D00120BC
:10261000DCE7022084F83E0002213F200155022021
:1026200084F842004320015515B1042D0CD105E07A
:1026300001220021206801F01FFE10E00122042188
:10264000206801F019FE0AE001220021206801F053
:1026500013FE01220421206801F00EFE00BF00BF1E
:102660002068006840F00100216808600020ADE7A4
:10267000704710B5044620680069C0F34000D8B127
:102680002068C068C0F34000B0B16FF0020021685C
:102690000861012020772068806900F0030018B1EC
:1026A0002046FFF7E5FF05E0204600F0D9F8204678
:1026B00000F089F90020207720680069C0F38000CD
:1026C000D8B12068C068C0F38000B0B16FF00400DA
:1026D00021680861022020772068806900F440703A
:1026E00018B12046FFF7C4FF05E0204600F0B8F817
:1026F000204600F068F90020207720680069C0F3C8
:10270000C000D8B12068C068C0F3C000B0B16FF09D
:10271000080021680861042020772068C06900F063
:10272000030018B12046FFF7A3FF05E0204600F0A4
:1027300097F8204600F047F90020207720680069CC
:10274000C0F30010D8B12068C068C0F30010B0B169
:102750006FF0100021680861082020772068C069A8
:1027600000F4407018B12046FFF782FF05E02046D4
:1027700000F076F8204600F026F900202077206847
:10278000006900F0010058B12068C06800F0010045
:1027900030B16FF0010021680861204600F07EF939
:1027A00020680069C0F3C01058B12068C068C0F349
:1027B000C01030B16FF08000216808612046FFF73B
:1027C00083FC20680069C0F3801058B12068C0689D
:1027D000C0F3801030B16FF04000216808612046DE
:1027E00000F0CCF920680069C0F3401058B12068AF
:1027F000C068C0F3401030B16FF02000216808615C
:102800002046FFF762FC10BD10B586B004460020DC
:1028100002900390049005900E492068884217D1D9
:1028200000BF0D48806940F004000B4988610846EC
:10283000806900F00400019000BF00BF4FF41060F9
:10284000029002200390059002A90448FEF7B2FA14
:1028500006B010BD002C01400010024000080140ED
:10286000704770B504460D46164600BF94F83C000C
:10287000012801D1022070BD012084F83C0000BF76
:1028800036B1042E1BD0082E31D00C2E5ED145E07F
:102890002946206801F016FD2068806940F0080094
:1028A000216888612068806920F0040021688861BF
:1028B00020688069296908432168886147E02946C2
:1028C000206801F02FFD2068806940F400602168D5
:1028D00088612068806920F48060216888612068B0
:1028E0008069296940EA0120216888612FE0294632
:1028F000206801F04BFD2068C06940F008002168A5
:10290000C8612068C06920F004002168C86120689F
:10291000C069296908432168C86118E02946206810
:1029200001F068FD2068C06940F400602168C8615A
:102930002068C06920F480602168C8612068C0698F
:10294000296940EA01202168C86100E000BF00BF9A
:1029500000BF002084F83C0000BF00BF8BE710B52B
:1029600004460CB9012010BD94F83D0028B90020A0
:1029700084F83C00204600F025F8022084F83D0051
:10298000211D206801F03EFC012084F8460000BFB4
:1029900084F83E0001213F2001554020015541208F
:1029A000015500BF00BF012084F8420043200155BB
:1029B000442001554520015500BF012084F83D0009
:1029C0000020D0E77047704770B504460D4615B932
:1029D00094F83E000BE0042D02D13F20005D06E09C
:1029E000082D02D14020005D01E04120005D01285A
:1029F00001D0012070BD1DB9022084F83E000EE018
:102A0000042D03D102213F20015508E0082D03D1F8
:102A100002214020015502E00221412001550122FE
:102A20002946206801F028FC19492068884201D114
:102A3000012000E0002028B12068406C40F40040F4
:102A4000216848641249206888420BD02068B0F1A0
:102A5000804F07D00F492068884203D00E49206874
:102A600088420CD12068806800F00706062E0CD042
:102A70002068006840F001002168086005E02068D7
:102A8000006840F00100216808600020B2E7000003
:102A9000002C0140000400400008004070B50446CE
:102AA0002068B0F1804F46D1244A2549254804F0DA
:102AB0007FFA254A2549264800F0EAFD254A26499D
:102AC000264800F0BDFD032001F098FA2449086073
:102AD000042001F093FA2349086008460168204861
:102AE0000068FEF73BF8204908601948B0F900007B
:102AF000FDF7C8FD054629461148006801F08CFE27
:102B00001A490860084600681749096808441849C6
:102B100008600846006817490860154800681649AB
:102B200008601449084600F06DFD1348016811481B
:102B3000006801F0B3FA04F0A1F970BD8400002030
:102B4000800000207C0000208C0000208A000020F3
:102B50008800002092000020900000208E000020BD
:102B6000580000205C000020500000204C00002095
:102B70006C00002064000020680000207047F8B559
:102B800004460E46174694F83E0020282ED106B182
:102B90000FB90120F8BD00BF94F83C00012801D115
:102BA0000220F7E7012084F83C0000BF20633A468A
:102BB0003146204601F09CFD0546ADB9206B012849
:102BC00011D100BF002000902068006800902068AC
:102BD0004068009000BF00BF2068C06840F010004F
:102BE0002168C86000E001252846D3E70220D1E72C
:102BF000704770472DE9F84F044620680568206843
:102C0000C668206847694FF00009CA4605F00F09F9
:102C1000B9F1000F0AD105F0200038B106F020000C
:102C200020B1204601F074FCBDE8F88FB9F1000F27
:102C300071D007F0010018B906F4907000286AD02E
:102C400005F0010030B106F4807018B1206C40F03E
:102C50000100206405F0040030B107F0010018B154
:102C6000206C40F00200206405F0020030B107F053
:102C7000010018B1206C40F00400206405F0080049
:102C800048B106F0200010B907F0010018B1206C1F
:102C900040F008002064206C68B305F0200028B1E3
:102CA00006F0200010B1204601F032FC2068406997
:102CB000C0F3801A206C00F0080010B9BAF1000FC0
:102CC00022D0204601F0EBFB2068406900F0400074
:102CD000B0B12068406920F0400021684861A06BD5
:102CE00050B15648A16B4863A06BFDF7F7FF10B1D8
:102CF000A06B416B88470CE02046FFF77AFF08E0A5
:102D00002046FFF776FF04E02046FFF772FF002021
:102D1000206489E7FFE7206B012878D105F01000D7
:102D2000002874D006F01000002870D000BF0020EA
:102D3000009020680068009020684068009000BF04
:102D400000BF2068406900F04000C0B3A06B00687D
:102D500040681FFA80F8B8F1000F2FD0A08D4045D1
:102D60002CDDA4F82E80A06B806920281FD020685D
:102D7000C06820F480702168C8602068406920F035
:102D80000100216848612068406920F04000216806
:102D90004861202084F83E00002020632068C0683D
:102DA00020F010002168C860A06BFDF76BFFA08DBC
:102DB000E28D801A81B22046FFF71AFF34E7FFE761
:102DC000A08DE18D401A1FFA80F8E08DE8B1B8F1CE
:102DD000000F1AD02068C06820F490702168C86085
:102DE0002068406920F0010021684861202084F8B3
:102DF0003E00002020632068C06820F01000216899
:102E0000C86041462046FFF7F3FE0DE7FFE705F0F7
:102E1000800030B106F0800018B1204601F08BFC34
:102E200002E705F0400030B106F0400018B120463E
:102E300001F050FBF8E600BFF6E600008B44000806
:102E400010B504460CB9012010BDA06900B100E026
:102E500000BF94F83D0028B9002084F83C002046CB
:102E600000F028F8242084F83D002068C06820F491
:102E700000502168C860204601F0BCFB2068006952
:102E800020F49040216808612068406920F02A0001
:102E9000216848612068C06840F400502168C8601B
:102EA00000202064202084F83D0084F83E000020AB
:102EB000CAE7000010B586B00446002002900390D7
:102EC000049005901E492068884236D100BF1D48F5
:102ED000C06940F480201B49C8610846C06900F4FD
:102EE0008020019000BF00BF00BF0846806940F00D
:102EF000080088610846806900F00800019000BF62
:102F000000BF08150290022003900320059002A93B
:102F10000D48FDF74FFF4FF4006002900020039032
:102F2000049002A90848FDF745FF0022012127204F
:102F3000FEF7F6FC2720FEF7E3FC06B010BD00000C
:102F40000048004000100240000C014010B504464B
:102F50003222034801780348FFF711FE10BD00003C
:102F6000980000206C0200202DE9F84F04460E4620
:102F7000174699464FF0000A94F83D0020285AD190
:102F800006B117B90120BDE8F88F00BF94F83C00E6
:102F9000012801D10220F6E7012084F83C0000BF9F
:102FA00000202064212084F83D00FEF7A1F882462D
:102FB000A784E784A068B0F5805F04D1206910B9C8
:102FC0000025B04602E035464FF0000800BF002063
:102FD00084F83C0000BF1BE05346002280212046BD
:102FE000CDF8009001F0D7FB08B10320CBE745B93D
:102FF000B8F80000C0F308002168486008F1020832
:1030000003E02878216848606D1CE08C401EE08455
:10301000E08C0028E0D15346002240212046CDF824
:10302000009001F0B8FB08B10320ACE7202084F841
:103030003D000020A7E70220A5E7704700BFFEE79C
:1030400000B585B000BF0D48806940F010000B4905
:1030500088610846806900F01000009000BF00BF42
:103060004FF440400190012002900390032004900F
:1030700001A90348FDF79EFE05B000BD0010024007
:1030800000100140014608684069C0F38020B0B1DB
:103090006FF480600A68506100200863202081F886
:1030A0003D00002081F83E00086C40F004000864F8
:1030B00000BF002081F83C0000BF012070470020C5
:1030C000FCE700002DE9F84304460F4615469946F3
:1030D000DDE908862068006840F4806021680860A7
:1030E0002068006840F48070216808604346002230
:1030F0004FF001112046009600F070F960B1206891
:10310000006800F48070B0F5807F02D14FF4007049
:1031100020640320BDE8F88307F0FE002168086101
:10312000334642463E49204600F09BF908B1012053
:10313000F0E700BF00200090206840690090206800
:103140008069009000BF00BF32464146204600F033
:103150002AFA50B1206C042805D12068006840F498
:103160000070216808600120D4E7B9F1010F03D194
:10317000E8B22168086117E0C5F3072021680861FB
:1031800032464146204600F00EFA50B1206C042829
:1031900005D12068006840F40070216808600120B3
:1031A000B8E7E8B22168086132464146204600F09F
:1031B000FAF950B1206C042805D12068006840F469
:1031C0000070216808600120A4E72068006840F4CE
:1031D000807021680860434600224FF001112046AC
:1031E000009600F0FBF858B12068006800F4807089
:1031F000B0F5807F02D14FF400702064032089E78E
:10320000F8B240F0010021680861334642460449A3
:10321000204600F026F908B101207BE7002079E77D
:10322000020001002DE9F8430446884615469946F8
:10323000DDE908672068006840F480702168086054
:10324000334600224FF001112046009700F0C6F8E7
:1032500060B12068006800F48070B0F5807F02D112
:103260004FF4007020640320BDE8F88308F0FE00EE
:10327000216808613B4632462149204600F0F1F8BA
:1032800008B10120F0E700BF0020009020684069ED
:10329000009020688069009000BF00BF3A46314628
:1032A000204600F080F950B1206C042805D1206838
:1032B000006840F40070216808600120D4E7B9F18B
:1032C000010F03D1E8B22168086117E0C5F30720B8
:1032D000216808613A463146204600F064F950B151
:1032E000206C042805D12068006840F40070216833
:1032F00008600120B8E7E8B2216808610020B3E760
:103300000200010010B50122D1030A48FDF7EAFED0
:10331000012291030748FDF7E5FE00224FF400412A
:103320000448FDF7DFFE00224FF480410148FDF71D
:10333000D9FE10BD0010014010B5012291030748CD
:10334000FDF7D0FE00224FF400410448FDF7CAFE0D
:103350000122D1030148FDF7C5FE10BD0010014058
:1033600010B5012291030548FDF7BCFE00224FF481
:1033700080410248FDF7B6FE10BD0000001001407C
:1033800070B504460D46164620E02046FFF77AFE4B
:1033900008B1012070BD681CC0B1FDF7A9FE801BFB
:1033A000A84200D895B900202063202084F83D0071
:1033B000002084F83E00206C40F02000206400BF14
:1033C000002084F83C0000BF0120E3E7206840694A
:1033D000C0F380000028D8D00020DBE72DE9F041C1
:1033E00004460D4617461E46DDF818801CE0701C8A
:1033F000D0B1FDF77DFEA0EB0800B04200D89EB929
:1034000000202063202084F83D00002084F83E0046
:10341000206C40F02000206400BF002084F83C00B5
:1034200000BF0120BDE8F081C5F3074001280AD1A3
:1034300020684069A9B20840A9B2884201D10120A0
:103440000BE0002009E020688069A9B20840A9B219
:10345000884201D1012000E00020B842C7D00020FE
:10346000E0E72DE9F04104460D4616461F463DE0D3
:1034700020684069C0F38020E8B12068006840F40B
:103480000070216808606FF4806021684861002046
:103490002063202084F83D00002084F83E00206C4A
:1034A00040F00400206400BF002084F83C0000BF0E
:1034B0000120BDE8F081701CC0B1FDF719FEC01BF2
:1034C000B04200D896B900202063202084F83D0047
:1034D000002084F83E00206C40F02000206400BFF3
:1034E000002084F83C0000BF0120E2E7C5F307405C
:1034F00001280AD120684069A9B20840A9B28842CF
:1035000001D101200BE0002009E020688069A9B208
:103510000840A9B2884201D1012000E00020002823
:10352000A6D00020C5E770B504460D46164632E029
:1035300020684069C0F30010A0B16FF0100021684E
:10354000486100202063202084F83D00002084F89A
:103550003E00206C206400BF002084F83C0000BFC7
:10356000012070BDFDF7C4FD801BA84200D895B9AD
:1035700000202063202084F83D00002084F83E00D5
:10358000206C40F02000206400BF002084F83C0044
:1035900000BF0120E5E720684069C0F380100028E3
:1035A000C6D00020DDE770B504460D46164620E083
:1035B0002046FFF767FD08B1012070BD681CC0B14F
:1035C000FDF796FD801BA84200D895B90020206326
:1035D000202084F83D00002084F83E00206C40F05C
:1035E0002000206400BF002084F83C0000BF0120C0
:1035F000E3E720684069C0F3C0100028D8D000205D
:10360000DBE7000041F6583302689A4201DD1A46B2
:1036100002600A4B02689A4201DA1A46026041F6D9
:1036200058330A689A4201DD1A460A60034B0A6859
:103630009A4201DA1A460A6070470000A8E4FFFFC8
:103640002DE9FC4104460D4616466B4606223B21F9
:10365000682000F045F80746BFB99DF801009DF8C5
:10366000001040EA012000B220809DF803009DF880
:10367000021040EA012000B228809DF805009DF864
:10368000041040EA012000B230803846BDE8FC81D9
:103690002DE9FC4104460D4616466B4606224321A1
:1036A000682000F01DF80746BFB99DF801009DF89D
:1036B000001040EA012000B220809DF803009DF830
:1036C000021040EA012000B228809DF805009DF814
:1036D000041040EA012000B230803846BDE8FC8189
:1036E0002DE9FE4304460D4616461F4640F6FF7080
:1036F000610001232A46CDE9007602900348FDF7D8
:10370000E5FD80464046BDE8FE830000F80000204D
:103710002DE9FE4304460D4616461F4640F6FF704F
:10372000610001232A46CDE9007602900348FDF7A7
:103730007FFF80464046BDE8FE830000F800002081
:1037400000B585B00020019002900390049000BF66
:103750003748806940F01000354988610846806923
:1037600000F01000009000BF00BF00BF0846806955
:1037700040F0200088610846806900F02000009039
:1037800000BF00BF00BF0846806940F004008861A8
:103790000846806900F00400009000BF00BF00BF31
:1037A0000846806940F0080088610846806900F09A
:1037B0000800009000BF00BF00224FF400511D48D8
:1037C000FDF790FC00224FF470411B48FDF78AFC86
:1037D0004FF400500190012002900020039002203D
:1037E000049001A91348FDF7E5FA1020019000208C
:1037F00002900120039001A91048FDF7DBFA202078
:103800000190002002900220039001A90B48FDF7CF
:10381000D1FA4FF4704001900120029000200390F3
:103820000320049001A90448FDF7C4FA05B000BDC7
:103830000010024000100140000C0140000801404F
:1038400010B50B480B4908600B4848600021094837
:103850008160C1604FF4804101610021416181615B
:10386000C1610162FDF74AFC08B1FDF774F910BDB2
:1038700000540040F8000020801A060000B595B002
:10388000002011901290139014900F9010901C2112
:1038900008A8FCF78FFC20216846FCF78BFC2F481A
:1038A0002F4908600020486000212D48816041F6C2
:1038B0001F41C1600021016141618161FEF782FC0D
:1038C00008B1FDF748F94FF48050119011A9244830
:1038D000FEF71CFD08B1FDF73EF92148FFF73FF860
:1038E00008B1FDF738F900200F9010900FA91C487F
:1038F000FEF726FC08B1FDF72EF9602008900020A5
:1039000009900A900B900C900D900E90002208A93F
:103910001348FEF7A6FF08B1FDF71DF90C2208A910
:103920000F48FEF79EFF08B1FDF715F90020009043
:1039300001900290039004904FF4005005900020F5
:10394000079069460648FEF7C1FB08B1FDF703F989
:103950000348FEF759FF15B000BD0000002C0140E0
:103960004C01002000B587B0002003900490059022
:103970000690019002904FF080401449086041F693
:103980001F4048600021114881606321C16000210F
:10399000016180218161FEF715FC08B1FDF7DBF8BC
:1039A0004FF48050039003A90848FEF7AFFC08B11C
:1039B000FDF7D1F800200190029001A90348FEF71D
:1039C000BFFB08B1FDF7C7F807B000BD94010020A8
:1039D00000B58BB0242102A8FCF7ECFB002000907E
:1039E00001901848184908600020486000211648D6
:1039F00081604FF6FF71C16000210161816101208A
:103A00000290002003900120049000200590069071
:103A1000079001200890002009900A9002A90A4806
:103A2000FEF7F8FC08B1FDF796F800200090019031
:103A300069460548FEF784FB08B1FDF78CF80BB02A
:103A400000BD000000040040DC01002000B58BB088
:103A5000242102A8FCF7AEFB00200090019018483A
:103A600018490860002048600021164881604FF620
:103A7000FF71C1600021016181610120029000207D
:103A800003900120049000200590069007900120EB
:103A90000890002009900A9002A90A48FEF7BAFC93
:103AA00008B1FDF758F800200090019069460548DC
:103AB000FEF746FB08B1FDF74EF80BB000BD000065
:103AC000000800402402002010B50B480B49086094
:103AD0004FF416504860002108488160C1600161C0
:103AE0000C21416100218161C161FFF7A9F908B191
:103AF000FDF731F810BD0000004800406C020020C6
:103B000000BFFEE700BFFEE770B500240CE0002513
:103B100006E00020074901EBC5010855681CC5B245
:103B2000802DF6DB601CC4B2082CF0DB00F0D8F866
:103B300070BD0000C802002070B50B46CE1701EB27
:103B40005676C6F3C702CE1701EB5676F610A1EBF8
:103B5000C606F4B20123A340DDB20E4B03EBC00353
:103B60009B5CDB430B4E06EBC006B354094B03EBE7
:103B7000C0039B5C2B43074E06EBC006B354054BBA
:103B800003EBC0039B5CDB43024E06EBC006B35461
:103B900070BD0000C802002070B50A46CE1701EBC8
:103BA0005676C6F3C703CE1701EB5676F610A1EB97
:103BB000C606F4B20122A240D5B2054A02EBC00209
:103BC000D25C2A43024E06EBC006F25470BD0000E0
:103BD000C802002010B5FFF733FA4FF47A70FDF7F2
:103BE000D5F80021AE2000F0D8F90021084600F0F9
:103BF000D4F90021102000F0D0F90021402000F07D
:103C0000CCF90021812000F0C8F90021CF2000F07C
:103C1000C4F90021A12000F0C0F90021C82000F063
:103C2000BCF90021A62000F0B8F90021A82000F07E
:103C3000B4F900213F2000F0B0F90021D32000F0BA
:103C4000ACF90021084600F0A8F90021D52000F0C9
:103C5000A4F90021802000F0A0F90021D92000F073
:103C60009CF90021F12000F098F90021DA2000F001
:103C700094F90021122000F090F90021DB2000F0DF
:103C80008CF90021402000F088F90021202000F06C
:103C900084F90021022000F080F900218D2000F03D
:103CA0007CF90021142000F078F90021A42000F014
:103CB00074F90021A62000F070F90021AF2000F077
:103CC0006CF9FFF721FF10BD10B50246012000E09E
:103CD00050430B1EA1F10104E1B2F9D110BD000067
:103CE00070B500241CE004F1B001C8B2002100F05E
:103CF00054F90021084600F050F90021102000F08E
:103D00004CF9002508E0084901EBC501085D0121D7
:103D100000F043F9681CC5B2802DF4DB601CC4B20E
:103D2000082CE0DB70BD0000C80200202DE9FF4F29
:103D300081B080460E461C4600962046E31704EBF1
:103D40005373DB1021464FEAE47C04EB5C7C4FEAC2
:103D5000EC0CA4EBCC0CBCF1000F02D04FF0010C2A
:103D600001E04FF0000C6344224604EBD27C4FEAA2
:103D70006C0C03FB0CF303F0FF0B03982038C7B265
:103D8000002547E00C2C07D107EB4700234901EB46
:103D9000800010F805A014E0102C05D1204800EB9D
:103DA000071010F805A00CE0182C07D107EBC7008E
:103DB0001C4901EB800010F805A002E005B0BDE849
:103DC000F08F4FF000091FE00AF0800020B131466B
:103DD0004046FFF7E1FE03E031464046FFF7ACFE08
:103DE0004FEA4A604FEA106A701CC6B20098301A57
:103DF000A04205D1009E08F1010000F0FF0806E096
:103E000009F1010000F0FF09B9F1080FDCDB00BF88
:103E1000681CC5B25D45B5DB00BFCFE72A9200083C
:103E20009E9600088E9C00082DE9F84305460E4634
:103E3000144699460AA0006800902046FCF75DFCF5
:103E400007463A460B4607A1684600F029FD4B4657
:103E50006A463146284600F07FF8BDE8F883000046
:103E600020000000252E3366000000002DE9F04FF1
:103E700006468A4691461F46099C00252CE0781B81
:103E8000401EC1B20A20FFF71FFFB9FBF0F00A2164
:103E9000B0FBF1F201FB1208B8F1000F0CD1A34600
:103EA00004EBDB71491001FB0561C8B223463022E7
:103EB0005146FFF73BFF0DE0A34604EBDB714910D1
:103EC00001FB0561C8B208F13001CAB22346514670
:103ED000FFF72CFF681CC5B2BD42D0DBBDE8F08FF8
:103EE0002DE9FF4F814615461E460D9F002D07DB2D
:103EF0003B462B2248460199FFF718FFA84607E0EA
:103F00003B462D2248460199FFF710FFC5F10008F6
:103F100000241DE0301B401EC1B20A20FFF7D4FE72
:103F2000B8FBF0F00A21B0FBF1F201FB120000F146
:103F3000300BBA4607EBDA714A10611C02FB0191A3
:103F4000C8B23B465A460199FFF7F0FE601CC4B266
:103F5000B442DFDBBDE8FF8FF0B506460F461446DE
:103F60001D4613E022782B4639463046FFF7DEFE29
:103F7000284605EBD07106EB6101CEB2C5F1800099
:103F8000B04202DA0026B81CC7B2641C2078202890
:103F900002DB20787E28E5DDF0BD70B505460C46D5
:103FA000FFF7B0F9782000F04BF8FFF7D9F91CB112
:103FB000402000F045F802E0002000F041F8FFF753
:103FC000CFF9284600F03CF8FFF7CAF9FFF7B4F93B
:103FD00070BD704708B508490968C9084FF47A727E
:103FE000B1FBF2F14143009100BF00BF00994A1EAE
:103FF00000920029F9D108BD4400002001460329A0
:104000000BD0042912D10B4A1268526A12B25042E4
:104010000022084B1B685A620AE0074A1268526A7B
:1040200010B20022044B1B685A6201E0002000BF5E
:1040300000BF704724020020DC0100207047000010
:1040400070B50446002523E000224FF48041124859
:10405000FDF748F804F0800028B10122D1030E4892
:10406000FDF740F805E000224FF400410A48FDF753
:1040700039F8012291030848FDF734F800224FF483
:1040800080410548FDF72EF86006040E681CC5B295
:10409000082DD9DB70BD0000001001402DE9F04172
:1040A00004460D4640F6B83625480068FCF7F8FA95
:1040B000074600F055F82349087023480078012886
:1040C0003BD10846007870BB002C06DD01201F495B
:1040D000087000201E49087005E000201B49087088
:1040E00001201B490870201E01DB014600E041420F
:1040F000184A12685163002D06DD00201649087029
:1041000001201649087005E00120134908700020BD
:1041100012490870281E01DB014600E041420D4AA9
:104120001268116407E0FFE700200A490968486344
:10413000084909680864FCF7E5FCBDE8F081000067
:10414000800000207800002079000020740000200A
:10415000750000204C010020760000207700002030
:104160000146002011F1320F01DB322905DD01206B
:104170000022024B1A60024B1A6070476400002054
:104180006800002010B5FDF74BFB10BD00B58FB0E7
:10419000282105A8FCF70EF814216846FCF70AF858
:1041A000012005900004069000200790012009904E
:1041B00002200C90C1030D914FF4E0110E9105A85F
:1041C000FDF736FD08B1FCF7C6FC0F200090022079
:1041D0000190002002904FF4806003900020049032
:1041E00002216846FDF7EEFB08B1FCF7B4FC0FB006
:1041F00000BD704710B50248FEF73BFA10BD000045
:104200009401002010B50268184B984208D0B0F114
:10421000804F05D0164B984202D0164B984203D1DE
:1042200022F070024B681A43104B984208D0B0F14C
:10423000804F05D00E4B984202D00E4B984203D1CE
:1042400022F44072CB681A4322F080034C6943EA9F
:10425000040202608B68C3620B688362034B98425E
:1042600001D10B6903630123436110BD002C0140A0
:10427000000400400008004030B501F01F05012493
:1042800004FA05F3046A9C430462046A01F01F0502
:1042900002FA05F52C43046230BD30B50C46816846
:1042A00021F47F4142EA032525432943816030BD43
:1042B0000A46816821F0700142F0070319438160CA
:1042C0007047000030B5056A25F001050562026AF5
:1042D0004368846924F0700424F003040D682C43BF
:1042E00022F002028D682A430D4DA84206D100BF7C
:1042F00022F00802CD682A4322F00402084DA842A9
:1043000007D123F4807323F400734D692B438D6927
:104310002B43436084614D684563026230BD0000F9
:10432000002C014030B5056A25F010050562026ACF
:104330004368846924F4E04424F440740D6844EA3A
:10434000052422F020028D6842EA05120E4DA84293
:1043500007D100BF22F08002CD6842EA051222F0A8
:104360004002094DA84209D123F4806323F400637D
:104370004D6943EA85038D6943EA8503436084619F
:104380004D688563026230BD002C014030B5056A7E
:1043900025F480750562026A4368C46924F07004DC
:1043A00024F003040D682C4322F400728D6842EA65
:1043B00005220F4DA84207D100BF22F40062CD684C
:1043C00042EA052222F48062094DA84209D123F471
:1043D000805323F400534D6943EA05138D6943EA82
:1043E00005134360C4614D68C563026230BD0000BF
:1043F000002C014030B5056A25F480550562036A3A
:104400004468C26922F4E04222F440720D6842EA34
:10441000052223F400538D6843EA0533064DA84274
:1044200004D124F480444D6944EA85144460C26197
:104430004D680564036230BD002C014030B50B4669
:104440001446026A056A25F001050562816921F0BA
:10445000F00141EA041122F00A021A43816102626A
:1044600030BD30B50B461446056A25F010050562CF
:104470008169026A21F4704141EA043122F0A0020C
:1044800042EA03128161026230BD70B505466C6A72
:104490000020E085E0842046FEF7ABFB70BD01689C
:1044A000C96821F490710268D1600168496921F0FE
:1044B000010102685161016B012905D10168C968D8
:1044C00021F010010268D160202180F83E10002107
:1044D0000163704710B504462068C06820F04000B2
:1044E0002168C860202084F83D002046FEF7A5FD25
:1044F000002010BD10B50348016803A000F0C0F90A
:1045000010BD00006C00002025642C310D0A000055
:10451000F8B5044694F83E00222869D1A068B0F5A9
:10452000805F0CD1206950B90025A66A20684068D8
:10453000C0F308003080A06A801CA06215E0A56A64
:104540000026A068B0F5805F03D0A06828B9206974
:1045500018B920684068287004E02068406800F0BE
:104560007F002870A06A401CA062E08D401E80B2CF
:10457000E085A8BB2068C06820F020002168C860E2
:104580002068C06820F480702168C8602068406995
:1045900020F0010021684861202084F83E00206B53
:1045A00001281ED1002020632068C06820F0100080
:1045B0002168C8602068006800F0100010280AD147
:1045C00000BF0020009020680068009020684068CC
:1045D000009000BF00BFA18D2046FEF709FB03E05D
:1045E00004E02046FEF7B2FC0020F8BD0020FCE706
:1045F0000220FAE770B504462168096921F44051A8
:10460000E2681143226811612269A168114362695D
:1046100041EA02052168C96841F20C6291432943CD
:104620002268D1602168496921F44071A26911436F
:10463000226851612D4A2168914202D1FDF79EFA0C
:1046400001E0FDF78BFA00EBC00101EB001162689D
:104650009200B1FBF2F100EBC00202EB00126368C2
:104660009B00B2FBF3F26423B2FBF3F202EBC20352
:1046700003EB0212A1EB8201322202EB0111642250
:10468000B1FBF2F101F0F00100EBC00202EB00120D
:1046900063689B00B2FBF3F26423B2FBF3F201EB1D
:1046A000021200EBC00101EB001163689B00B1FB3B
:1046B000F3F100EBC00303EB00136668B600B3FB35
:1046C000F6F36426B3FBF6F303EBC30606EB031322
:1046D000A1EB8301322303EB01116423B1FBF3F15E
:1046E00001F00F0111442268916070BD0038014053
:1046F00010B5034699629A85DA8500201864222055
:1047000083F83E0000BF002083F83C0000BF18681B
:10471000C06840F480701C68E0601868406940F030
:1047200001001C6860611868C06840F020001C68C7
:10473000E060002010BD014691F83D00212828D1FD
:104740008868B0F5805F0BD1086948B90A6A10889B
:10475000C0F308000B685860086A801C086205E016
:104760000B6A581C086218780B685860C88C401E89
:1047700080B2C88458B90868C06820F080000B680F
:10478000D8600868C06840F040000B68D86000201E
:1047900070470220FCE72DE9F04104460D4617461C
:1047A0009846069E21E0701CF8B12EB1FCF7A0FCE3
:1047B000A0EB0800B04218D92068C06820F4D0707F
:1047C0002168C8602068406920F0010021684861C4
:1047D000202084F83D0084F83E0000BF002084F8CB
:1047E0003C0000BF0320BDE8F0812068006828403D
:1047F000A84201D1012000E00020B842D3D000201F
:10480000F1E7000010B50248FEF7F4F910BD000012
:104810006C02002000BFFEE72DE9F04705460C467C
:10482000124801682846FBF72FFD11490860002156
:104830002046FBF729FD81460E4801684846FBF7F4
:1048400029FD07460A4801680B480068FBF722FD6E
:1048500080463946FBF7C6FC0646FBF721FF0749B1
:10486000086008460068BDE8F0870000B800002036
:10487000AC000020B4000020B00000206C0000203C
:104880000FB4054B10B503A9044A029800F08CF947
:1048900010BC5DF814FB0000B1650008E0000020CA
:1048A0000FB4084B10B504A902AA039800F07CF9D4
:1048B000044602A9002000F00EFD204610BC5DF861
:1048C00014FB0000D7520008490050EAC12018BF6D
:1048D00004204A0D18BF40F0010040F2FF72B2EB15
:1048E000515F08BF40F00200012808BF0520704753
:1048F00002480068C0F30220704700000CED00E0A1
:1049000010B5002804DB0A07130E054A135406E00D
:104910000A07140E034A00F00F031B1FD45410BDE6
:1049200000E400E018ED00E02DE9F0414F1E00EB3F
:10493000C7010446D1E9000115461E4637F00602BC
:104940000DD02A463346FBF7BCFD7F1E04EBC703A0
:10495000D3E90023FBF70EFD37F00602F1D1022F59
:1049600025D0042F13D0062F18BFBDE8F0812A46AA
:104970003346FBF7A6FDD4E90A23FBF7FBFC2A46E6
:104980003346FBF79EFDD4E90823FBF7F3FC2A46E8
:104990003346FBF796FDD4E90623FBF7EBFC2A46EA
:1049A0003346FBF78EFDD4E90423FBF7E3FC2A46EC
:1049B0003346FBF786FDD4E90223FBF7DBFC2A46EE
:1049C0003346FBF77EFDD4E90023BDE8F041FBF759
:1049D000D1BC0122FBF7E8BFFBF7CCBC0022134699
:1049E00010461146FBF7DFBD024A00201107FBF716
:1049F000DBBF000001FDFFFF02E008C8121F08C175
:104A0000002AFAD170477047002001E001C1121F4F
:104A1000002AFBD170470000014908607047000080
:104A2000E40000202DE9FF5F82B00021DDE90430C1
:104A3000020DDDF840B0034318D044F61050A2F246
:104A4000FF3242431514119801281FD0A5EB0B002B
:104A5000401C5FEA000A4FF000064E4FDFF8389125
:104A6000B046504615D5CAF1000413E01198012450
:104A70004AA3012801D16FEA0B010298119AC0E9FB
:104A80000031C0E9024206B0BDE8F09FCBF1000062
:104A9000DFE704460021404A491842EB0450CDE9C3
:104AA000001012E0E00707D032463B464046494638
:104AB000FBF707FD8046894632463B4610461946BD
:104AC000FBF7FFFC06460F466410002CEAD1DDE937
:104AD0000401DDE90023BAF1000F06DAFBF7F1FC6F
:104AE00042464B46FBF7EDFC05E0FBF75CFD42461A
:104AF0004B46FBF758FD04460E460022284BFBF7B9
:104B000083FF03D84FF0FF30014607E00022254B1A
:104B100020463146FBF72EFCFBF75DFF102409E031
:104B2000002C0ADB0A220023FBF758FE039B3032DD
:104B30001A55641E50EA0102F2D1641C039AC4F1B2
:104B400011031444119A012A03D0012208430DD104
:104B50000AE0084304D000204FF0110B119072E7D7
:104B6000A3EB0B056D1E0DE05B4504DD4FF000026D
:104B700005F1010504E003DA4FF00002A5F101059B
:104B8000002AECD002981199C0E90231C0E9004531
:104B900079E70000000014400000F03F3000000002
:104BA0000000F0430000E03F2DE9FF4F95B09B4629
:104BB0008946064600250FE2252877D1002427469E
:104BC000F84A0121059400E0044316F8013F203B18
:104BD00001FA03F01042F7D130782A2811D06FF093
:104BE0002F033078A0F13002092A16D8059A44F034
:104BF000020402EB820203EB42021044761C059091
:104C0000EFE759F8042B0592002A03DA504244F4E6
:104C10000054059044F00204761C30782E2816D1FA
:104C200016F8010F44F004042A280DD06FF02F026B
:104C30003078A0F13003092B09D807EB870302EB8A
:104C40004303C718761CF3E759F8047B761C3078C9
:104C50006C280FD006DC4C2817D068280DD06A28A5
:104C600014D104E0742810D07A280FD10DE044F458
:104C700000140AE044F4801401E044F44014727813
:104C8000824202D104F58014761C761C30786628A6
:104C90000BD013DC582877D009DC002875D04528C4
:104CA000F6D04628F4D047281AD19DE118E06328B1
:104CB00035D0642879D0652812D195E1702873D059
:104CC00008DC6728F1D069286FD06E280DD06F28D6
:104CD00006D1B5E073282CD0752875D0782874D00B
:104CE0005A46179990476D1C75E1C4F3025002288B
:104CF00009D003280DD0D9F8001004280DD00D607C
:104D000009F1040967E1D9F80010EA17C1E9005276
:104D1000F6E7D9F800100D80F2E70D70F0E719F80A
:104D2000041B8DF8001000208DF80100EA460120D8
:104D300003E059F804AB4FF0FF3061074FF000017A
:104D400002D40DE008F101018846B9420FDA80452E
:104D5000F8DB1AF808100029F4D108E008F1010185
:104D600088468142FADB1AF808100029F6D1059826
:104D70005B46A0EB080721463846179A00F094FAE4
:104D8000284400EB080507E04DE029E10DE01AF8A2
:104D9000010B5A4617999047B8F10108F7D25B46C4
:104DA00021463846179A13E142E00A220092C4F3E2
:104DB00002524FF0000A022A08D059F804CB032A05
:104DC0004FEAEC710AD00DE029E02AE009F1070171
:104DD00021F00702F2E802C1914609E00FFA8CFCCB
:104DE0004FEAEC71042A03D14FFA8CFC4FEAEC71C4
:104DF000002907DA0A460021DCF1000C61EB020110
:104E00002D2202E0220504D52B228DF80420012258
:104E100003E0E20701D02022F7E7904659E00A219B
:104E200002E010220DE010214FF0000A00910BE08B
:104E300010224FF0000A44F004040827009203E017
:104E400008224FF0000A0092C4F30252022A05D051
:104E500059F804CB0021032A08D009E009F1070121
:104E600021F00702F2E802C1914605E01FFA8CFC2E
:104E7000042A01D10CF0FF0C4FF00008220728D5BE
:104E8000702806D0009B83F0100353EA0A0305D074
:104E90000EE040228DF80420012208E05CEA0102C5
:104EA00006D030228DF804208DF8050002229046AD
:104EB000009B83F0080353EA0A030AD15CEA01026B
:104EC00001D1620705D530228DF804204FF001088A
:104ED0007F1E582804D034A003900EA802900DE045
:104EE00036A0F9E753466046009AFBF777FC844604
:104EF0000398825C0298401E029002705CEA0100F6
:104F0000F0D1029806A9081A00F1200A600702D51C
:104F100024F4803400E00127574502DDA7EB0A00A6
:104F200000E0002000EB0A01009005984144401A7F
:104F30000590E00306D45B462146179A059800F0D9
:104F4000B3F90544002706E001A85A46C05D179949
:104F500090476D1C7F1C4745F6DBE0030CD55B4694
:104F60002146179A059800F09FF9054404E0302087
:104F70005A46179990476D1C0099481E00900029C9
:104F8000F5DC08E0029802995A460078491C029123
:104F9000179990476D1CBAF10001AAF1010AF1DCE2
:104FA00065E10000092801003031323334353637ED
:104FB0003839616263646566000000003031323365
:104FC0003435363738394142434445460000000005
:104FD00000F058F90544761C307800287FF4ECADD9
:104FE00019B02846BDE8F08F620700D4062709F102
:104FF000070222F0070CFCE80223E14603F0004818
:105000005FEA080C02D00FF2702C0DE05FEA045C3E
:1050100002D50FF2682C07E05FEAC47C02D00FF2E1
:10502000602C01E0AFF2700C4FF0FF3823F000432A
:10503000CDF850C065280CD006DC452809D046289C
:105040001DD047283DD13DE0662818D067287ED185
:1050500038E00021112F01DB112000E0781CCDE9A0
:10506000000106A90EA8FFF7DDFCDDE90F010E9A8D
:1050700003910021009207F1010A04914DE04FF0E5
:1050800000400097CDE9011006A90EA8FFF7CAFC61
:10509000DDE90F0203920E9B11990022DDF80CA0AE
:1050A0000093049211B9791C00EB010AB7EB0A00D6
:1050B00004D4C0F1FF3007F1010A0490AAEB070005
:1050C000019044E0012F00DA01270021112F01DDBA
:1050D000112000E03846CDE9000106A90EA8FFF72F
:1050E000A1FCDDE90F010E9A0391002104910092C9
:1050F000BA4621070CD40399514500DA8A46BAF121
:10510000010F05DD009AAAF10101515C302908D098
:10511000B84202DA10F1040F06DA0121CDE90110DC
:1051200015E0AAF10101E9E7002805DC0499014432
:105130000491AAEB000102E0411C514500DD8A46C2
:105140000499401A401C01904FF000400290200743
:1051500004D40198504501DBCDF8048000208DF87F
:105160004F0002980DF14F07B0F1004F25D02B20D2
:105170000E9002984FF0020800280CDA404202908C
:105180002D200E9007E00A210298FBF711FB303129
:10519000029007F8011DB8F10001A8F10108F2DC46
:1051A00002980028EFD1791E0E980870307800F030
:1051B000200040F0450007F8020D12A8C01B00F1C6
:1051C00007081498007800B1012000EB0A0101984B
:1051D00001EBE07105984144401A401E0590E00340
:1051E00006D45B462146179A059800F05DF8054401
:1051F0001498007818B15A46179990476D1CE0032F
:1052000024D55B462146179A059800F04DF80544D1
:105210001CE00498002807DBDDE90301884203DD78
:105220000098405C179901E0179930205A46904742
:10523000049805F10105401C04900198401E01905E
:1052400004D12E205A46179990476D1CBAF10001DF
:10525000AAF1010ADDDC05E017F8010B5A4617999F
:1052600090476D1CB8F10001A8F10108F4DC5B4621
:105270002146179A0598ABE62D0000002B00000090
:10528000200000002DE9F041044600251E46174687
:10529000880404D405E039462020B0476D1C641E04
:1052A000F9D52846BDE8F0812DE9F04104460025F6
:1052B0001E469046C80301D5302700E02027880409
:1052C00004D505E041463846B0476D1C641EF9D54B
:1052D0002846BDE8F0810A68531C0B6010707047C7
:1052E0002DE9FE4F06460F460025684601F070F98D
:1052F000002442E056F8240057F82410A0EB010ADD
:10530000BAF1000F01DB514601E0CAF10001084685
:10531000FBF7B8F983464FF08F41FAF7EDFF80466F
:105320005DF824000021FBF72FFA16D05DF8241059
:105330004046FAF7E1FF82464FF07E51FAF7A4FFAC
:10534000814629F0004A0F48416A5046FBF726FA89
:1053500012D20120A04005430EE00A48C169404630
:10536000FBF712FA05D30748016A4046FBF716FA25
:1053700002D20120A0400543641C032CBADB28465E
:10538000BDE8FE8FF48500082DE9F04D8D4F21F02A
:10539000004A86B005460C46BA452ADBAAEB070050
:1053A00028430AD08848824501DC1AD1CDB106B025
:1053B0002846BDE8F04DFFF70CBB844A844B2846D5
:1053C000FBF77FF807460E46824A834B2846214664
:1053D000FBF777F806B03A463346BDE8F04DFAF7EA
:1053E000C9BF0120FFF718FB06B0BDE8F04DFFF77D
:1053F000F5BA7A48824542DABAF1795F0BDA284683
:10540000FFF762FA042808BFFFF7EEFA284606B055
:105410002146BDE8F08D2A460B461046FBF751F8B1
:10542000834602466E480E460B4606217844FFF737
:105430007BFA5A463346FBF744F8804669488A4669
:105440005A46334604217844FFF76EFA5A463346EB
:10545000FBF737F800223B46FAF78CFF02460B4673
:1054600040465146FBF79FF82A462346FBF729F8AA
:1054700006B02A462346BDE8F04DFAF77BBF284622
:1054800024F0004100223D463B46FBF717F84FF061
:10549000FF32FBF789FA0646024653480F460B4691
:1054A00006217844FFF740FA32463B46FBF709F8FD
:1054B000CDE900014D4832463B4604217844FFF7D0
:1054C00033FA32463B46FAF7FCFF00222B46FAF746
:1054D00051FF834602913046394603F051F8804629
:1054E00043480D46504517DCDDE900015A46029B52
:1054F000FBF759F842462B46FAF7E3FF42462B46A4
:10550000FAF738FF0122FBF74FFA304A304BFAF72F
:10551000D2FF304A304B4CE04FF0000A52460B4667
:105520004046FAF727FFCDE9031052462B461046B6
:105530001946FAF7C6FF32463B46FAF7BFFFDDE9E8
:105540000332FBF730F806460F46DDE900015A4604
:10555000029BFBF728F8834600910122304639462A
:10556000FBF722FA194A1A4BFAF7A8FF06460F462C
:10557000012240462946FBF717FA5A46009BFAF7E4
:10558000A0FF32463B46FAF796FF06460F46012239
:1055900050462946FBF708FA0E4DDFF858802A4698
:1055A0004346FAF78BFF32463B46FAF787FF2A4617
:1055B0004346FAF783FF002CD8BF81F0004106B0C4
:1055C000BDE8F08D0000F03F0000F07F075C143371
:1055D00026A6913C182D4454FB21F93F0000E03FE2
:1055E00010600000266000009A5F0000B05F0000BD
:1055F0003333EF3FFB21E93F2DE9F84F04460D46D9
:1056000021F0004000917349814211DC72498842C7
:1056100001DC06D12CB120462946BDE8F84FFFF742
:10562000D8B96E48002DCCBF6D496E49BDE8F88FE2
:105630006D49814211DD6D498142D8BF4FF0FF367F
:105640006DDD20462946FFF73FF9042808BFFFF724
:10565000CBF920462946BDE8F88F6549654F25F00E
:105660000045814233DD6449814219DD002632461E
:105670004FF0804320462946FAF77CFE80468A4652
:10568000012220462946FBF78FF900223B46FAF714
:1056900012FF42465346FAF786FF04460D463EE0A7
:1056A00001260022BA463B4620462946FAF762FE0A
:1056B00080460F460022534620462946FAF7FBFE55
:1056C00042463B46FAF76FFF04460D4627E04B493A
:1056D00081421BDDDFF828A1022600225346204626
:1056E0002946FAF7EEFE00223B46FAF743FE8046D3
:1056F0000F460022534620462946FAF7DCFE424672
:105700003B46FAF750FF04460D4608E003262246C2
:105710002B4600203B49FAF746FF04460D46224639
:105720002B4610461946FAF7CCFE8B4682460246B7
:105730000B46FAF7C6FE07460246334888460B4634
:1057400006217844FFF7F0F852465B46FAF7B9FEB7
:1057500082462E488B463A46434605217844FFF759
:10576000E3F83A464346FAF7ACFE02460B46002EF3
:10577000504659460CDAFAF7FDFD22462B46FAF759
:10578000A0FE01B022462B46BDE8F04FFAF796BEC8
:10579000FAF7F0FD22462B46FAF793FE1C4A7A44AC
:1057A00002EBC603D3E90023FAF785FE22462B4617
:1057B000FAF781FE174A7A4402EBC603D3E90023C5
:1057C000FAF77CFE009A002AB8BF81F00041BDE8DC
:1057D000F88F0000000010440000F07F182D4454A2
:1057E000FB21F93FFB21F9BF0000DC3F0000203E18
:1057F0000000F33F0000F03F0000E63F0080034060
:105800000000F83F0000F0BFB25D0000705D0000D6
:105810000E5D0000D65C00002DE9F04D9446CCF101
:10582000000423F000464CEA0404524F46EAD474C4
:105830009A46884621F00042BC4206D8454240EADA
:10584000050442EAD474BC4204D9BDE8F04D624676
:10585000FFF7C2B8AAF14055A5F17F6555EA0C04DF
:105860000BD0022404EAAA74434DDFF810E144EAA5
:10587000D87452EA000B04D00CE0BDE8F04DFFF7FD
:10588000BBBE002C14BF012CBDE8F08D022C30D023
:10589000032C32D056EA0C0B0AD0BE4220D1BA42B9
:1058A00009D126F0804622F080423346114617E0A7
:1058B00000291ADB25E0DFF8C8B0FB44002C04BF48
:1058C000DBE90001BDE8F08D012C02BFDBE900013E
:1058D00081F00041BDE8F08D022C0AD0032C0CD0E1
:1058E000BA4212D1B8F1000F0BDA23482549BDE8BE
:1058F000F08D28462449BDE8F08D28467146BDE864
:10590000F08D1D482149BDE8F08D921B12153C2AEF
:10591000C4BF19481D490EDCBAF1000FBEBF12F119
:105920003C0F0020014606DB6246FAF73CFE21F000
:105930000041FFF761FE002C08BFBDE8F08D012C8F
:1059400004BF81F00041BDE8F08D114A114B022CDB
:1059500007D0FAF7B0FD2A46BDE8F04D0A4BFAF73A
:10596000AABDFAF7A8FD2A46BDE8F04D064BFAF7A6
:10597000A5BD00000000F07F182D4454FB2109C094
:105980006A5C0000FB21F9BFFB210940FB21F93FC4
:10599000075C143326A6A13C2DE9F0410446E078CB
:1059A00000F0C006E07800F03F05607800F00100EC
:1059B00098B1EF102846E91705EB5171C910A5EB16
:1059C000C101491C01F0FF080B48006820B10A48DA
:1059D000414602683846904700BF607800F00800F2
:1059E00030B10548406818B1B011034A5168884782
:1059F0000020BDE8F0810000E800002038B5044632
:105A000064B120208DF8000028208DF8010030209E
:105A10008DF8020038208DF8030004E0A322042151
:105A20006846FAF7C0FB6A46042140F69E2002F061
:105A300041FB01F02BFF38BD3EB5044602208DF836
:105A40000000CA208DF80100E3208DF80200092033
:105A50008DF803006A460421682002F02BFBA32086
:105A60008DF8000004F0400048B1C0208DF801001E
:105A7000C8208DF80200C2208DF8030006E0A320A4
:105A80008DF801008DF802008DF8030004F4C07059
:105A900048B1C4208DF80400CC208DF80500C62044
:105AA0008DF8060006E0A3208DF804008DF80500AF
:105AB0008DF80600A3208DF807008DF808008DF8FA
:105AC00009006A460A2140F6A72002F0F3FA04F022
:105AD000030018B120208DF8000002E0D8208DF8D6
