:020000040800F2
:10000000400E0020A1010008D5450008593A00081B
:10001000D145000885140008C15200080000000006
:100020000000000000000000000000000D4B000870
:10003000D914000800000000A34A0008494C000839
:10004000BB010008BB010008BB010008BB010008A0
:10005000BB010008BB010008BB010008BB01000890
:10006000BB010008BB010008BB010008BB01000880
:10007000BB010008BB010008BB010008BB01000870
:10008000BB010008BB010008BB010008BB01000860
:10009000BB010008BB010008BB010008BB01000850
:1000A000BB010008BB010008BB010008BB01000840
:1000B000B94C0008BB010008BB010008BB010008E7
:1000C000BB010008BB010008BB010008BB01000820
:1000D000BB010008BB010008BB010008B1520008C9
:1000E000BB010008BB010008BB01000800F002F8DA
:1000F00000F047F80AA090E8000C82448344AAF17B
:100100000107DA4501D100F03CF8AFF2090EBAE878
:100110000F0013F0010F18BFFB1A43F0010318473B
:100120006CC900008CC90000103A24BF78C878C19F
:10013000FAD8520724BF30C830C144BF04680C60ED
:10014000704700000023002400250026103A28BF35
:1001500078C1FBD8520728BF30C148BF0B60704739
:10016000662909F00C84002070471FB500F07AFC66
:1001700004000020002108F0F1FAE0601FBD10B576
:1001800010BD00F06FFD1146FFF7EFFF06F07AFF9C
:1001900000F08DFD03B4FFF7F2FF03BC00F092FD09
:1001A0000948804709480047FEE7FEE7FEE7FEE70B
:1001B000FEE7FEE7FEE7FEE7FEE7FEE70448054947
:1001C000054A064B70470000B74C0008ED000008D8
:1001D00040080020400E0020400A0020400A002075
:1001E00010B54C1084EA530404D54042C1F100011B
:1001F00038BF491E1B4204D55242C3F1000338BF29
:100200005B1E00F060F914F0804F04D04042C1F151
:10021000000138BF491E14F0004F04D05242C3F110
:10022000000338BF5B1E10BD0FB41CB5074B06AAF8
:100230007B4469460090059800F0D9FB0020694690
:1002400000F0E8FB1CBC5DF814FB0000E1070000B7
:100250002DE9F05F894604464FF0000ADFF824B12B
:10026000FB44C0F820A02046E168884700287DD0E4
:10027000252806D0D4E901219047206A401C20623D
:10028000F1E700255F462046E168884720280646BA
:1002900007DB312E05D2B81910F8200C08B1054340
:1002A000F1E7A80701D525F00405C4F81CA0002734
:1002B000C4F818A02A2E09D0304605F0CFF838B37C
:1002C00004EB8708303EC8F8186019E059F8041BA1
:1002D000204604EB87029161E1688847012F0646BA
:1002E00018D1E069002820DA25F020051DE0D8F8B3
:1002F000180000EB800006EB40003038C8F818000A
:100300002046E1688847064605F0A8F80028EED1A7
:10031000012F0AD02E2E08D12046E16888477F1C85
:100320000646022F45F02005C4DBA069002803DA49
:10033000404245F00105A061E80701D025F0100515
:10034000A6B1A6F14100192802D8203645F400656F
:100350004A463146204625604D46FFF701FF60B111
:10036000012807D0ED1D25F0070000E007E000F1AF
:10037000080978E705F1040975E730467AE7206A4D
:10038000BDE8F09F90C6000040EA010310B59B074E
:100390000FD1042A0DD310C808C9121F9C42F8D0EF
:1003A00020BA19BA884201D9012010BD4FF0FF30A0
:1003B00010BD1AB1D30703D0521C07E0002010BDB6
:1003C00010F8013B11F8014B1B1B07D110F8013B42
:1003D00011F8014B1B1B01D1921EF1D1184610BD23
:1003E00002F0FF0343EA032242EA024200F019BB93
:1003F0004FF0000200B5134694469646203922BFBE
:10040000A0E80C50A0E80C50B1F12001BFF4F7AF08
:10041000090728BFA0E80C5048BF0CC05DF804EBEA
:10042000890028BF40F8042B08BF704748BF20F858
:10043000022B11F0804F18BF00F8012B704700000D
:100440004FF0013C50F8042B51F8043B9A4221D163
:10045000A2EB0C03934313EACC1317D150F8042BEF
:1004600051F8043B9A4215D1A2EB0C03934313EAD3
:10047000CC130BD150F8042B51F8043B9A4209D10C
:10048000A2EB0C03934313EACC13DBD04FF0000034
:10049000704700BFD01A01BAB1FA81F101F018011A
:1004A00022FA01F0CB40C1F12001DBB2C0B2C01A88
:1004B0002CFA01F3D11A914311EAC311E6D1704726
:1004C00070477047704753EA020C00F069802DE9CD
:1004D000F04B4FF00006002B1FBFB3FA83F503FA71
:1004E00005F424FA05F65E4012BF1643B2FA82F50F
:1004F00002FA05F4C5F120051EBF22FA05FC44EA04
:100500000C04203556EA044C4FEA144418BF641C0E
:100510004FF000084FF00009904271EB030C39D303
:10052000002919BFB1FA81F701FA07F6B0FA80F78E
:1005300000FA07F6C7F120071EBF20FA07FC46EABB
:100540000C062037B6FBF4FCA7EB0507103F07F0BD
:100550001F0BCBF120060CFA0BFB2CFA06F644BF5E
:10056000B3460026202FA4BF5E464FF0000B5BEA87
:10057000060C08BF4FF0010B19EB0B09ABFB027C1B
:1005800048EB0608C01B06FB02CC0BFB03CC71EB4F
:100590000C01C1E70B46024641464846BDE8F08BD8
:1005A00013B54FF000004FF00001AFF30080BDE83D
:1005B0001C40704710B500F059FA006810BD10B526
:1005C000044600F053FA046010BD70472DE9FF4F58
:1005D0000C461E464FF0FF378BB0D2E90001DDF824
:1005E00060800A908A46C1F30A5505B93D4600214C
:1005F00008464FF00000BAF1000F00F4400005DAA1
:1006000000EB80004FF4400101EA50004FEA90599E
:10061000B9F1010F00DDB9460A9850EA4A000ED040
:1006200044F61050A5F2FF3545432F14B8F1000FE2
:100630001ED07542291E1EDDC9F100021CE0B8F172
:10064000010F4FF0000001D0302103E0F24305E03C
:100650002154401CB042FBDB3046002200212154D3
:100660000B99C1F80880C1E900200FB0BDE8F08FF8
:10067000BD1B6D1CDEE74A4600DA694206A800F0A1
:100680007FFA06AB93E8070003AB83E80700504608
:100690000A9900F01DFB8DE80700A0F500501F38F7
:1006A00000900398002D09DD42F21F014A460844DC
:1006B00003A90390684600F07CFD08E0A0F5005017
:1006C0004A461F3803A90390684600F086FD8DE86E
:1006D00007000004000C03D04FF0FF30410800E099
:1006E0001046B8F1000F03D00022009215461EE01C
:1006F000751E05D400F0BEF9303262556D1EF9D575
:10070000B3460122084302D000227F1C04E0207877
:10071000302801D100227F1E002A099786D01DE0D3
:10072000112D07DA00F0A6F9303262556D1C50EA3F
:100730000102F5D1084302D00098C8B10EE00021B3
:10074000681E05E0235C625C63542254401E491C11
:100750008142F7DBAB46A81B401E0990002004F83D
:100760000B000B98099AC0F80880C0E9002B7CE7C1
:1007700011264FF0000859E72DE9F04F884604464E
:10078000D21D22F0070191B0D1E90001CDE90A01A3
:1007900004F0CCFD02460B98C00F01D02D2007E0DD
:1007A0002068810701D52B2002E0202101EAC0004A
:1007B000032A099001D0072A05DB0346414620465B
:1007C00000F09EF90BE12078800601D5E06900E099
:1007D0000620B8F1650F814606D0B8F1660F18D033
:1007E000B8F1670F70D131E00020B9F1110F00901E
:1007F00001DB112301E009F101030AAA01A90CA8F8
:10080000FFF7E4FEDDE90C70002609F101058346DF
:1008100047E001204B4600904FF000470AAA01A98B
:100820000CA8FFF7D3FEDDE90DB00C995D4600265C
:1008300010B909F101000D18B9EB050003D4C0F19E
:10084000FF3609F10105A5EB09002BE0B9F1010F15
:1008500001DA4FF001090020B9F1110F009048466C
:1008600001DD112300E003460AAA01A90CA8FFF745
:10087000ADFEDDE90C704D4600268346207800076A
:100880000AD4AB4500DA5D4601A8012D04DD41190B
:1008900011F8011C302907D04F4502DA17F1040F77
:1008A00004DA012082460FE06D1EEEE7002F02DC25
:1008B000ED1B3E4403E0781CA84200DD7D1CB81B04
:1008C00000F1010A4FF000472078000703D4AA4541
:1008D00001DB4FF0FF3A0021B7F1004F0DF1430863
:1008E0008DF8431024D002202B23002F01DA7F4201
:1008F0002D230A21021EA0F1010000DC5FB197FB4D
:10090000F1FC97FBF1F201FB1C7C17460CF1300C5B
:1009100008F801CDEEE7A8F1010003702188090570
:1009200001D5452100E06521A0F1010800F8011C76
:1009300009980FA9A1EB0807FF1D00B1012041197B
:1009400001EBEA70A1693844081A401EA0612078C2
:10095000C00602D42046AFF30080099828B1D4E93C
:1009600001219047206A401C20622078C00622D5D1
:100970002046AFF300801EE0002E04DBB34502DD0D
:1009800001A8805D00E03020D4E901219047206A71
:10099000401C2062761CAAF101005FEA000A0AD11D
:1009A00000F060F8C0680168405CD4E9012190471C
:1009B000206A401C2062281EA5F10105DCDC07E04E
:1009C000D4E9012118F8010B9047206A401C2062ED
:1009D000381EA7F10107F3DC2046AFF300800320A7
:1009E00011B043E601694A1C02610878704700B5FE
:1009F0008FB0CDE901310021059105497944CDE958
:100A0000031011466846FFF723FC0FB000BD00003D
:100A1000E5FFFFFF0A6802F8010B0A6070474FF01C
:100A200000020429C0F0128010F0030C3FF4E2AC85
:100A3000CCF1040CBCF1020F18BF00F8012BA8BFC9
:100A400020F8022BA1EB0C01FFF7D4BC5FEAC17CBC
:100A500024BF00F8012B00F8012B48BF00F8012B40
:100A60007047000000487047FC07002000487047AE
:100A7000DC07002030B5B0F10A024FEA900E71F1A8
:100A800000034EEA817EB0EB0E0061EB91014FEA6C
:100A9000101E4EEA017E10EB0E0041EB11114FEAE1
:100AA000102E4EEA016E10EB0E0041EB11214FEAC1
:100AB000104E4EEA014E10EB0E0041EB1141401872
:100AC00041F100014FEAD00040EA41704FEAD10104
:100AD00010EB80054FEA810444EA907444EB010472
:100AE0006D1944EB0404521BA3414FF0000348BFAF
:100AF0000A3200D530BD401C41F1000130BD00007C
:100B00002DE9F0411F46044603260168072A01F437
:100B1000006004DB08B116A505E016A503E008B1E6
:100B200015A500E015A521F010002060A069C01EE9
:100B3000A0610FB1401EA0612046AFF300804FB10D
:100B4000D4E9012138469047206A401C2062C01C2D
:100B5000206206E0206AFAE7D4E9012115F8010BCA
:100B60009047761EF8D22046AFF30080BDE8F081B2
:100B70004E414E006E616E00494E4600696E660041
:100B80002DE9F047814616468AB0334878440DC8AF
:100B90008DE80D0030487844801C03AC0DC884E813
:100BA0000D0041F69B300844372190FBF1F290FB99
:100BB000F1F5A5F1800501FB12041B3C02D564424E
:100BC000012000E00020DFF890A080460027FA44D2
:100BD000AAF1BE0A0DE0E00709D03246684607EBED
:100BE00047010AEB810100F0F8FA8DE80700641074
:100BF0007F1C002CEFD1184F7F44AC3F18E0E80772
:100C000014D007EB04100DF1180A90E80E008AE8E2
:100C10000E00C068F04201D198190890324606A92A
:100C200003A800F0DAFA03AB83E807006D10641C38
:100C3000002DE4D132466946B8F1000F03A802D076
:100C400000F0B7FA01E000F0C8FAC9E90001C9F8FC
:100C500008200AB0BDE8F087E4BE000000487047F5
:100C6000DC0700207546FFF7F9FFAE460500694630
:100C7000534620F00700854618B020B5FFF79EFACE
:100C8000BDE820404FF000064FF000074FF000088D
:100C90004FF0000B21F00701AC46ACE8C009ACE80E
:100CA000C009ACE8C009ACE8C0098D46704710B572
:100CB0000446AFF300802046BDE81040FFF76ABA53
:100CC0007047000001491820ABBEFEE72600020075
:100CD0005FEA400C08BF91F0000F4FEA8C234FEA07
:100CE000C12243EA51514FEA1C5018BF00F5F040B1
:100CF0004FEA300018BF41F000415FEA6C5C00F041
:100D00002980BCF1FF3F08BF40F080407047130CC2
:100D100006BF12044FF0100C4FF0000C130E04BF6E
:100D200012020CF1080C130F04BF12010CF1040C99
:100D3000930F04BF92000CF1020CD30F04BF5200BA
:100D40000CF1010C11464FF00002A0F11F00A0EBC6
:100D50000C00704711F0004F08BF704731F00041A0
:100D60003FF4D5AF0B0C06BF09044FF0100C4FF049
:100D7000000C0B0E04BF09020CF1080C0B0F04BF92
:100D800009010CF1040C8B0F04BF89000CF1020C5B
:100D9000CB0F04BF49000CF1010CCCF12003A0EBF8
:100DA0000C0022FA03F302FA0CF241EA030100F10B
:100DB0000100704720F07F4C80EA030023F07F475A
:100DC000ACEB070303F57C5300F0004003F1FF0395
:100DD0002DE980494FEA154B09B44FEA144325EA3F
:100DE0000B4E24EA03480FF2042606EB13274908AA
:100DF0003E785FEA320203FB0667C7F5000707FB90
:100E000006F64FEA54374FEAD64606F1020607FBCC
:100E1000066CCCF1005C4FEA1C472CEA074C07FB40
:100E200006F40CFB06F504EB15464FEA961634BFA4
:100E300000204FF000404FEAD13706FB07FC4FEA95
:100E40001C4C0CFB0BF7D21B03FB0CF761EB0701EF
:100E50000CFB0EF7B0EB074072EB17420CFB08F7E8
:100E600034BFA2EB0742B2EB074261EB17414FEAF6
:100E70000C444FEA910706FB07FC4FEA1C4C0CFBA5
:100E80000BF7B0EBC74072EB573203FB0CF734BFE4
:100E9000A2EBC742B2EBC74261EB57310CFB0EF736
:100EA000B0EBC70072EB57720CFB08F734BFA2EB34
:100EB000C702B2EBC70261EB5771039F4FEA816132
:100EC00041EA921104EBCC044FEAD1374FEA826237
:100ED00006FB07FC42EA90124FEA80604FEA1C4C86
:100EE0000CFB0BF7D21B03FB0CF761EB07010CFBB0
:100EF0000EF7B0EB074072EB17420CFB08F734BF5C
:100F0000A2EB0742B2EB074261EB17414FEA8C5567
:100F10004FEA910704EB9C2406FB07FC4FEA1C4CAC
:100F20000CFB0BF7B0EBC74072EB573203FB0CF72F
:100F300034BFA2EBC742B2EBC74261EB57310CFBA7
:100F40000EF7B0EBC70072EB57720CFB08F734BF1B
:100F5000A2EBC702B2EBC70261EB577115EB4C2550
:100F60004FEA816141EA92114FEA82624FEAD1373A
:100F700042EA901206FB07FC44F100044FEA80604D
:100F80004FEA1C4C0CFB0BF7D21B03FB0CF761EB7D
:100F900007010CFB0EF7B0EB074072EB17420CFB9E
:100FA00008F734BFA2EB0742B2EB074261EB1741EF
:100FB00015EB1C154FEA813141EA92414FEA82322A
:100FC00042EA90424FEA80304FEA0C7644F1000446
:100FD00048EA03434EEA0B484FF0000EB2EB080C10
:100FE00071EB030724BF624639464EEB0E0E4FF0FD
:100FF000000B0018524149414BEB0B0BB2EB080CB4
:1010000071EB03077BF1000B24BF624639464EEBC0
:101010000E0E4FF0000B0018524149414BEB0B0BE9
:10102000B2EB080C71EB03077BF1000B24BF6246A7
:1010300039464EEB0E0E51EA020718BF46F0010684
:1010400016EB0E7655F1000254F1000103D5BDE810
:101050008901BDE80088BDE88901BDE80048B619EE
:10106000524141EB0101A3F10103704780807F7E73
:101070007D7C7B7A7978777676757473727171700E
:101080006F6E6E6D6C6C6B6A6A69686867666665C0
:101090006464636362616160605F5F5E5E5D5D5C4E
:1010A0005C5B5B5A5A5959585857575656555555BF
:1010B0005454535352525251515050504F4F4F4E1F
:1010C0004E4D4D4D4C4C4C4B4B4B4A4A4A4949496D
:1010D00048484847474747464646454545444444AF
:1010E000444343434342424242414141002B26D4C0
:1010F000770021D01CB54FEA370703B44FF010003A
:101100004FF010014FF000000FBCBDE810400BF194
:10111000010BBBF1010F08BF5FEA170722BF12F1F5
:10112000010211F101014FF0004143F1000300F011
:10113000004043EA00007047F9D35708DAE746EA6F
:10114000064613F1400F4FEA16461FDD13F1200F3C
:10115000DFBF16430A46002120335B42C8D0C3F1EB
:10116000200746EA064602FA07F74FEA164646EA1D
:101170000706C3F1200722FA03F201FA07F721FA62
:1011800003F14FF0000342EA0702B1E746EA020624
:1011900046EA06464FEA164646EA0106BCBF46EA5C
:1011A0000646360C4FF000034FF000024FF00001EE
:1011B0009EE72DE9C048934630B491E8380007C84F
:1011C00031EA400C48BF34EA430C03D5FFF7F2FD87
:1011D000FFF78CFFF0BCBDE800882DE9C0489346BE
:1011E00030B491E8380007C810F0804F08BF13F002
:1011F000804F03D100F005F8FFF778FFF0BCBDE8A1
:10120000008820F07F4780EA030023F07F4C07EB43
:101210000C03A3F57C5300F00040A3F1FE0392F011
:10122000000F00F0B38095F0000F00F077802DE9FB
:1012300001494FEA11404FEA144621EA004800FBF9
:1012400006FC24EA064708FB06F607FB08F800FB45
:1012500007F718EB06484CEB164C4FEA124B18EB0D
:1012600007484FEA15464CEB174022EA0B4E0BFBA2
:1012700006FC25EA06470EFB06F607FB0EFE0BFBF7
:1012800007F71EEB064E4CEB164C4FF000061EEB1C
:10129000074E4CEB174B18EB0B0840F1000018EB16
:1012A0000E0B58EB000840F100008F1A4FF00001C0
:1012B0003CBFC943661B14BFB5EB040C00213CBF07
:1012C000C943F61B4FEA17444EEA8E0E27EA04453F
:1012D0004FEA1C4704FB07622CEA074C05FB07F7A3
:1012E0000CFB05F604FB0CFC16EB074642EB174221
:1012F00016EB0C4642EB1C421BEB060658EB0202B7
:10130000414146EA9E0601D5BDE80189B619524120
:1013100041EB0101A3F10103BDE801894FEA144546
:101320004FEA114724EA054621EA074C05FB07F47A
:1013300006FB07F70CFB06F105FB0CFC11EB074164
:1013400044EB17444FEA124711EB0C4144EB1C44A9
:1013500022EA074C05FB07F206FB07F70CFB06F633
:1013600005FB0CFC16EB074642EB174216EB0C464E
:1013700042EB1C456A1854F1000148BF7047B6198A
:10138000524141EB0101A3F10103704795F0000FB9
:1013900037D04FEA11424FEA144721EA024624EAC5
:1013A000074C02FB07F106FB07F70CFB06F402FBF8
:1013B0000CFC14EB074441EB17414FEA154714EBC3
:1013C0000C4441EB1C4125EA074C02FB07F506FBE8
:1013D00007F70CFB06F602FB0CFC16EB074645EB89
:1013E000174516EB0C4645EB1C42121951F1000152
:1013F00048BF7047B619524141EB0101A3F1010307
:1014000070474FEA14454FEA114724EA054621EA9E
:10141000074C05FB07F106FB07F70CFB06F24FF044
:10142000000605FB0CFC12EB074241EB174112EBE7
:101430000C4251EB1C4148BF7047921841EB01012F
:10144000A3F1010370470000034804490860044801
:1014500004490860704700000000FA43CC000020F7
:101460000CFEFFFF700000200348044908604FF4A1
:10147000FA700349086070470000FA43CC0000206E
:101480007000002000BFFEE710B50E4802784FF450
:1014900000410D4800F002FB0C4802784FF48041F7
:1014A000094800F0FBFA0A4802784FF40051064858
:1014B00000F0F4FA074802784FF48051024800F037
:1014C000EDFA10BD76000020000C014077000020EE
:1014D0007400002075000020704772B600BFFEE760
:1014E0002DE9F05F41480078012803D14048414987
:1014F00008600AE040480078012803D13F483D4990
:10150000086002E000203B4908603D4909683D4A07
:1015100012681144084608F05FF83B4908603B48F0
:10152000006807F08DFE06464FF06632384B07F034
:10153000ADFB04460D463448006807F081FE0646C0
:101540004FF03332334B07F0A1FB804622462B4647
:1015500007F04CF9824607F017F92F490860084652
:1015600000682A490860234801682B48006808F091
:1015700091F9044629480168204607F08DFE274965
:10158000086027492548006808F052F902D224482B
:101590002249086023492148006808F049F802D22E
:1015A00020481E49086020480078012802D01F48C2
:1015B000007810B90020194908601D4801681748D3
:1015C000006808F069F804461A4801681248006883
:1015D00008F062F80546214607F05EFE16490860ED
:1015E0000846006807F0BCFFBDE8F09F98000020A7
:1015F0000000FAC4CC000020990000200000FA444A
:10160000580000205C000020C0000020C80000201E
:101610006666E63F3333D33FC4000020D00000208D
:1016200000803B4500803BC5780000207900002009
:10163000D8000020D4000020BC0000200146002279
:1016400091F82100022808D00420886300BF002000
:1016500081F8200000BF012070470868006820F072
:101660000E000B6818600868006820F001000B6825
:10167000186091F8403001209840CB6B58600120F1
:1016800081F8210000BF002081F8200000BF104633
:10169000E2E7000070B50446002594F82100022816
:1016A00003D00420A063012548E02068006820F0F2
:1016B0000E00216808602068006820F001002168A1
:1016C00008601F492068884201D1012026E01C499A
:1016D00014312068884201D110201FE018492831B8
:1016E0002068884201D1801518E015493C312068F6
:1016F000884201D1801411E011495031206888429C
:1017000002D14FF4803009E00D49643120688842ED
:1017100002D14FF4801001E04FF080700849083981
:101720004860012084F8210000BF002084F82000D8
:1017300000BF606B10B12046616B8847284670BDC2
:101740000800024070B5044600F0AEF90646254692
:10175000681C10B104480078054400BF00F0A4F9EB
:10176000801BA842FAD370BD400000202DE9F84745
:101770000346002294466EE14FF0010808FA02F495
:10178000D1F8008008EA0400A0427DD1DFF8DCA295
:10179000D1F80480A8EB0A09D0453AD014DCB8F19E
:1017A000030F50D009DCB8F1000F31D0B8F1010FB0
:1017B0001CD0B8F1020F49D120E0B8F1110F18D0B8
:1017C000B8F1120F42D11EE0B9F5881F25D006DC12
:1017D000B9F5803F20D0B9F5801F37D11AE0B9F5AF
:1017E000001F18D0B9F5041F30D117E0D1F80CC094
:1017F0002DE0D1F80C8008F1040C28E0D1F80C8021
:1018000008F1080C23E0D1F80C8008F10C0C1EE064
:1018100000BF00BF00BF00BF00BF00BFD1F80880FD
:10182000B8F1000F02D14FF0040C0BE0D1F80880A2
:10183000B8F1010F03D14FF0080C1C6102E04FF02A
:10184000080C5C6103E04FF0000C00E000BF00BF3B
:10185000FF2801D8984601E003F104084646FF2816
:1018600002D84FEA820803E0A2F108084FEA88088C
:101870004746D6F800804FF00F0909FA07F928EA21
:1018800009080CFA07F900E088E048EA0908C6F8F8
:101890000080D1F8048008F08058B8F1805F7DD1D5
:1018A00000BFDFF8CC81D8F8188048F00108DFF8D5
:1018B000C091C9F81880C846D8F8188008F0010807
:1018C000CDF8008000BF00BF4FEAB9384FEA920957
:1018D00058F829504FEA82784FEA18794FF00F08EC
:1018E00008FA09F825EA0805DFF88881434502D19E
:1018F0004FF0000816E0DFF88081434502D14FF039
:1019000001080FE0DFF87481434502D14FF002086F
:1019100008E0DFF86C81434502D14FF0030801E095
:101920004FF004084FEA82794FEA197908FA09F86A
:1019300048EA0505DFF84C814FEA920948F829503A
:10194000D1F8048008F48018B8F5801F0AD1DFF8B8
:101950003881D8F8008048EA0008DFF82C91C9F8EF
:10196000008009E0DFF82081D8F8008028EA00082C
:10197000DFF81491C9F80080D1F8048008F4001849
:10198000B8F5001F10D1DFF8008108F10408D8F87D
:10199000008048EA0008DFF8F09000E05AE009F122
:1019A0000409C9F800800DE0DFF8DC8008F10408C4
:1019B000D8F8008028EA0008DFF8CC9009F1040983
:1019C000C9F80080D1F8048008F40038B8F5003F69
:1019D0000ED1DFF8B480A8F10408D8F8008048EAF6
:1019E0000008DFF8A490A9F10409C9F800800DE00F
:1019F000DFF89480A8F10408D8F8008028EA0008ED
:101A0000DFF88490A9F10409C9F80080D1F80480B6
:101A100008F48038B8F5803F0ED1DFF86C80A8F16B
:101A20000808D8F8008048EA0008DFF85C90A9F1BF
:101A30000809C9F800800DE0DFF84C80A8F108081B
:101A4000D8F8008028EA0008DFF83C90A9F10809DE
:101A5000C9F80080521CD1F8008028FA02F8B8F1C9
:101A6000000F7FF489AEBDE8F88700000000111078
:101A70000010024000080140000C0140001001402D
:101A80000014014008000140080401400246936828
:101A90000B400BB1012000E0002070470AB101614A
:101AA00001E00B04036170470148006870470000C3
:101AB0003800002070B504460CB9012070BD94F8C0
:101AC0003D0028B9002084F83C00204600F03EFB91
:101AD000242084F83D002068006820F0010021687F
:101AE00008602068006840F40040216808602068B1
:101AF000006820F400402168086000F00BFD0546F6
:101B00005C496068884206D85B48854201D2012062
:101B100007E0002005E05948854201D2012000E09D
:101B20000020012800D1C9E75548B5FBF0F6206830
:101B3000406820F03F003043216848604D496068AC
:101B4000884201D8701C07E04FF4967070434FF440
:101B50007A71B0FBF1F0401C2168096A21F03F0165
:101B600008432168086243496068884214D8681EA7
:101B700061684900B0FBF1F0401CC0F30B00042881
:101B800001D204203DE0681E61684900B0FBF1F01D
:101B9000401CC0F30B0034E0A06838B9681E6168CF
:101BA00001EB4101B0FBF1F0401C0AE0681E6168E6
:101BB00001EBC10202EB0111B0FBF1F0401C40F45B
:101BC0008040C0F30B0008B901201AE0A06848B9B2
:101BD000681E616801EB4101B0FBF1F0401CC0F3ED
:101BE0000B000CE0681E616801EBC10202EB011101
:101BF000B0FBF1F0401CC0F30B0040F4804040F417
:101C000000402168C9694CF6FF729143084321687E
:101C1000C861D4E9070108432168096821F0C001BF
:101C2000084321680860D4E90310084321688968E3
:101C300048F2FF329143084321688860D4E90501E6
:101C400008432168C96821F0FF0108432168C86082
:101C50002068006840F001002168086000202064CE
:101C6000202084F83D000020206384F83E0000BF5F
:101C700024E70000A086010080841E0000093D00CA
:101C800040420F002DE9FE4F04460F46904699460C
:101C9000DDE90CAB0E9E00200290FFF705FF054624
:101CA00094F83D00202872D119230122CA49204608
:101CB000009502F0A6F810B10220BDE8FE8F00BF2B
:101CC00094F83C00012801D10220F6E7012084F8B5
:101CD0003C0000BF2068006800F0010028B92068BF
:101CE000006840F00100216808602068006820F466
:101CF000006021680860222084F83D00402084F8BC
:101D00003E0000202064C4F824A0A4F82AB0608D0E
:101D10002085B248E0624B46424639462046CDE92E
:101D2000006501F0DDFE08B10120C6E7208D88B90D
:101D300000BF002001902068406901902068806900
:101D4000019000BF00BF2068006840F40070216867
:101D500008604BE0208D01281AD12068006820F42B
:101D600080602168086072B600BF00200190206882
:101D70004069019020688069019000BF00BF206821
:101D8000006840F400702168086062B62EE020E12F
:101D9000208D022819D12068006840F40060216875
:101DA000086072B600BF0020019020684069019071
:101DB00020688069019000BF00BF2068006820F49F
:101DC00080602168086062B610E02068006840F416
:101DD00080602168086000BF002001902068406991
:101DE000019020688069019000BF00BFE2E0208D73
:101DF00003287DD8208D012815D12A46314620465A
:101E000002F0DBF808B1012057E720680069616A39
:101E10000870606A401C6062208D401E2085608DC5
:101E2000401E6085C6E0208D02282CD1334600225A
:101E30006B492046009501F0E4FF08B101203CE722
:101E400072B62068006840F400702168086020685D
:101E50000069616A0870606A401C6062208D401EE3
:101E60002085608D401E608562B620680069616AC9
:101E70000870606A401C6062208D401E2085608D65
:101E8000401E608596E03346002255492046009565
:101E900001F0B7FF08B101200FE72068006820F4C7
:101EA00080602168086072B620680069616A087005
:101EB000606A401C6062208D401E2085608D401E3F
:101EC0006085484800681921B0FBF1F04FF47A7141
:101ED000B0FBF1F0C0EBC00000EB8000029000BF4F
:101EE0000298401E02900298A8B90020206300E0EA
:101EF00039E0202084F83D00002084F83E00206C6A
:101F000040F02000206462B600BF002084F83C004E
:101F100000BF0120D1E620684069C0F3800000289E
:101F2000DED02068006840F40070216808602068F6
:101F30000069616A0870606A401C6062208D401E02
:101F40002085608D401E608562B620680069616AE8
:101F50000870606A401C6062208D401E2085608D84
:101F6000401E608526E02A463146204602F025F8CC
:101F700008B10120A1E620680069616A0870606A02
:101F8000401C6062208D401E2085608D401E608553
:101F900020684069C0F3800060B120680069616A10
:101FA0000870606A401C6062208D401E2085608D34
:101FB000401E6085208D00287FF419AF202084F812
:101FC0003D00002084F83E0000BF84F83C0000BFC4
:101FD00073E6022071E60000020010000000FFFF1F
:101FE00004000100440000202DE9FC5F04460F4678
:101FF00090469946DDE90CAB0E9EFFF755FD054670
:1020000094F83D0020287DD1192301224D49204616
:10201000009501F0F6FE10B10220BDE8FC9F00BF64
:1020200094F83C00012801D10220F6E7012084F851
:102030003C0000BF2068006800F0010028B920685B
:10204000006840F00100216808602068006820F402
:10205000006021680860212084F83D00402084F859
:102060003E0000202064C4F824A0A4F82AB0608DAB
:1020700020853548E0624B46424639462046CDE948
:10208000006501F0DDFD08B10120C6E731E02A4618
:102090003146204601F0D6FF50B1206C042805D10E
:1020A0002068006840F40070216808600120B4E7EF
:1020B000606A007821680861606A401C6062208D57
:1020C000401E2085608D401E608520684069C0F3F9
:1020D000800070B1208D60B1606A0078216808616D
:1020E000606A401C6062208D401E2085608D401E0D
:1020F0006085208D0028CAD12A463146204601F04D
:102100004DFE00E01CE050B1206C042805D1206891
:10211000006840F400702168086001207DE72068B5
:10212000006840F4007021680860202084F83D00B9
:10213000002084F83E0000BF84F83C0000BF6CE73C
:1021400002206AE7020010000000FFFF10B586B011
:102150000446002002900390049005901A492068DC
:1021600088422FD100BF1948806940F00800174904
:1021700088610846806900F00800019000BF00BF38
:102180004FF440700290122003900320059002A9A2
:102190000F48FFF7EBFA00BF0E49486840F0E060D7
:1021A00040F00200486000BF00BF0848C06940F42A
:1021B00000100649C8610846C06900F4001001908B
:1021C00000BF00BF06B010BD005400400010024028
:1021D000000C0140000001400348006803490978F1
:1021E0000844014908607047380000204000002082
:1021F00010B50848006840F0100006490860032048
:1022000000F0A8F80F2000F007F800F02BF80020ED
:1022100010BD00000020024070B504460E48007852
:102220004FF47A71B1FBF0F00C490968B1FBF0F59D
:10223000284600F0F9FB08B1012070BD102C07D230
:1022400000222146501E00F047F80548046001E0D6
:102250000120F2E70020F0E74000002044000020C9
:102260003C00002008B500BF1148806940F0010023
:102270000F4988610846806900F00100009000BFA6
:1022800000BF00BF0846C06940F08050C8610846E2
:10229000C06900F08050009000BF00BF00BF05493A
:1022A000486820F0E06040F00070486000BF08BD62
:1022B000001002400000014001460846002809DBEA
:1022C00000F01F0301229A4043099B0003F1E02321
:1022D000C3F8002100BF70472DE9F05F80460D462E
:1022E0001646002703F036F8074639462A46334695
:1022F00001F00700C0F1070ABAF1040F02D94FF04C
:10230000040A01E0C0F1070AD14600F1040ABAF15B
:10231000070F02D24FF0000A01E0A0F1030AD446F1
:102320004FF0010A0AFA09FAAAF1010A0AEA020AB6
:102330000AFA0CFA4FF0010B0BFA0CFBABF1010B94
:102340000BEA030B4AEA0B042146404603F00AF865
:10235000BDE8F09F00BF00F00702064B19684FF67A
:10236000FF031940044B0B4343EA0221014B196060
:1023700000BF70470CED00E00000FA0570B50446A0
:102380000D460CB9012070BD5A48006800F00700E6
:10239000A8420ED25748006820F00700284355494C
:1023A00008600846006800F00700A84201D001203C
:1023B000E9E7207800F0020002281DD1207800F023
:1023C0000400042805D14C48406840F4E0604A49C4
:1023D0004860207800F00800082805D14648406889
:1023E00040F46050444948604348406820F0F000A1
:1023F000A168084340494860207800F0010078B3A4
:102400006068012806D13C48006800F4003090B9AB
:102410000120B8E76068022806D13748006800F05C
:10242000007040B90120AEE73348006800F00200B8
:1024300008B90120A7E73048406820F00300616830
:1024400008432D494860FFF72FFB064609E0FFF7D8
:102450002BFB801B41F28831884202D9032092E78E
:1024600007E02548406800F00C006168B0EB810F80
:10247000EDD12048006800F00700A8420ED91D48A1
:10248000006820F0070028431A49086008460068E1
:1024900000F00700A84201D0012074E7207800F086
:1024A0000400042807D11448406820F4E060E16883
:1024B000084311494860207800F00800082808D136
:1024C0000D48406820F46050216940EAC1000A4983
:1024D000486000F03FF808494968C1F30311074A12
:1024E000515CC8400649086006480068FFF794FE42
:1024F000002048E70020024000100240CCA600085F
:10250000440000203C0000200148006870470000A3
:102510004400002000B5FFF7F7FF04494968C1F304
:102520000221034A515CC84000BD00000010024077
:10253000DCA6000800B5FFF7E7FF04494968C1F3CE
:10254000C221034A515CC84000BD00000010024097
:10255000DCA6000870B50021002200240023002022
:10256000134D696801F00C05F5B1042D02D0082D5A
:1025700019D101E00F4819E00F4DC1F38346AB5D5F
:1025800001F4803555B10A4D6D68C5F340450B4ED9
:10259000725D084D5D43B5FBF2F402E0084D03FBAC
:1025A00005F4204602E000BF024800BF00BF70BD36
:1025B0000010024000127A00BAA60008CAA600085D
:1025C00000093D00F8B504460CB90120F8BD20789B
:1025D00000F00100002878D0F848406800F00C00B6
:1025E00004280CD0F548406800F00C00082811D1F0
:1025F000F248406800F48030B0F5803F0AD1EF48DF
:10260000006800F4003000285FD0606800285CD1CA
:102610000120DBE700BF6068B0F5803F06D1E748E6
:10262000006840F48030E549086028E0606858B9E7
:10263000E248006820F48030E049086008460068FD
:1026400020F4802008601AE06068B0F5A02F0BD15C
:10265000DA48006840F48020D849086008460068DD
:1026600040F4803008600AE0D448006820F48030EC
:10267000D24908600846006820F48020086000BF46
:10268000606888B1FFF710FA054606E0FFF70CFA1C
:10269000401B642801D9032098E7C848006800F46B
:1026A00000300028F2D010E0FFF7FEF9054606E002
:1026B000FFF7FAF9401B642801D9032086E7BF48D9
:1026C000006800F400300028F2D1207800F0020009
:1026D000022857D1B948406800F00C0050B1B74803
:1026E000406800F00C00082818D1B448406800F495
:1026F000803098B9B148006800F0020020B120692C
:10270000012801D0012061E7AC48006820F0F80002
:10271000616940EAC100A949086033E02069E8B175
:102720000120A7490860FFF7BFF9054606E0FFF75B
:10273000BBF9401B022801D9032047E79F480068E6
:1027400000F002000028F2D09C48006820F0F80059
:10275000616940EAC1009949086013E00020984986
:102760000860FFF7A1F9054606E0FFF79DF9401B59
:10277000022801D9032029E79048006800F00200F0
:102780000028F2D1207800F0080008282DD1A06997
:10279000B8B101208B490860FFF786F9054606E0CD
:1027A000FFF782F9401B022801D903200EE7834876
:1027B000406A00F002000028F2D0012002F072F915
:1027C00013E000207F490860FFF76EF9054606E038
:1027D000FFF76AF9401B022801D90320F6E6774883
:1027E000406A00F002000028F2D1207800F00400D6
:1027F000042873D100277148C06900F0805070B977
:1028000000BF6E48C06940F080506C49C8610846FE
:10281000C06900F08050009000BF00BF01276A48E7
:10282000006800F48070B0B96748006840F48070B8
:1028300065490860FFF738F9054606E0FFF734F907
:10284000401B642801D90320C0E65F48006800F4FB
:1028500080700028F2D000BFE068012806D15748F8
:10286000006A40F001005549086227E0E06858B965
:102870005248006A20F00100504908620846006A88
:1028800020F00400086219E0E06805280BD14B48ED
:10289000006A40F00400494908620846006A40F0B6
:1028A000010008620AE04548006A20F0010043493F
:1028B00008620846006A20F00400086200BFE06871
:1028C000A0B1FFF7F1F8054609E0FFF7EDF8401B6E
:1028D00041F28831884202D9032077E622E0374866
:1028E000006A00F002000028EFD012E0FFF7DCF8E9
:1028F000054608E0FFF7D8F8401B41F288318842CE
:1029000001D9032062E62D48006A00F00200002889
:10291000F0D1012F05D12948C06920F08050274906
:10292000C86100BFE069C8B32448406800F00C00EB
:10293000082860D0E069022848D1002020490866B4
:10294000FFF7B2F8054606E0FFF7AEF8401B022895
:1029500001D903203AE61948006800F00070002809
:10296000F2D1206AB0F5803F07D11448406820F4C6
:102970000030A168084311494860D4E908010843C0
:102980000E49496821F4741108430C49486001203C
:102990000B490866FFF788F8054607E03DE0FFF7BA
:1029A00083F8401B022801D903200FE60348006882
:1029B00000F000700028F2D02FE00000001002406C
:1029C000000042428004424200700040002014494E
:1029D0000866FFF769F8054606E0FFF765F8401B53
:1029E000022801D90320F1E50E48006800F00070CC
:1029F0000028F2D111E0E069012800D1E6E509489C
:102A0000466806F48031206A814204D106F47011D0
:102A1000606A814201D00120D8E50020D6E500009F
:102A2000000042420010024070B504462546681E70
:102A3000B0F1807F01D301200FE0681E4FF0E0214C
:102A400048610F214FF0FF3002F08CFC00204FF066
:102A5000E021886107200861002070BD7047704741
:102A600010B50346002200BF93F83C00012801D1B5
:102A7000022010BD012083F83C0000BF22F0FF00BF
:102A8000CC6840EA040222F440708C6840EA0402F8
:102A900022F480604C6840EA040222F400600C6872
:102AA00040EA040222F480500C6940EA040222F455
:102AB00000504C6940EA040222F48040CC6940EAAC
:102AC00004021868426400BF002083F83C0000BF85
:102AD00000BFCEE730B502460B4600BF92F83C007F
:102AE000012801D1022030BD012082F83C0000BF46
:102AF000022082F83D00106844681068816824F064
:102B000070041868044310684460104D1068A842AF
:102B10000BD01068B0F1804F07D00D4D1068A8425F
:102B200003D00C4D1068A84205D121F080015868EF
:102B3000014310688160012082F83D0000BF002041
:102B400082F83C0000BF00BFCDE70000002C014030
:102B5000000400400008004010B504460CB90120F4
:102B600010BD94F83D0028B9002084F83C002046B0
:102B700000F026F8022084F83D00211D206802F0B4
:102B8000A3F8012084F8460000BF84F83E0001212C
:102B90003F200155402001554120015500BF00BF95
:102BA000012084F84200432001554420015545206E
:102BB000015500BF012084F83D000020D0E700004F
:102BC00038B504461649206888420DD100BF154823
:102BD000806940F40060134988610846806900F408
:102BE0000060009000BF19E02068B0F1804F15D15F
:102BF00000BF0C48C06940F001000A49C86108469E
:102C0000C06900F00100009000BF00BF0022012158
:102C10001C20FFF761FB1C20FFF74EFB38BD0000B6
:102C2000002C014000100240014691F83D000128AF
:102C300001D001207047022081F83D000868C0687B
:102C400040F001000B68D860124B086898420BD026
:102C50000868B0F1804F07D00F4B0868984203D046
:102C60000E4B086898420CD10868806800F0070293
:102C7000062A0CD00868006840F001000B68186054
:102C800005E00868006840F001000B68186000204B
:102C9000D0E70000002C0140000400400008004084
:102CA0002DE9F04104460D46002700BF94F83C0092
:102CB000012802D10220BDE8F081012084F83C0007
:102CC00000BF022084F83D002068866826F0770661
:102CD00026F47F46206886602868502833D00CDCB4
:102CE000202850D004DC00284BD0102851D149E0D6
:102CF000302849D040284CD139E060282DD07028A8
:102D000007D0B0F5805F03D0B0F5005F41D10DE092
:102D100041E0D5E902136A68206802F020F82068D3
:102D2000866846F077062068866034E0D5E90213AD
:102D30006A68206802F013F82068806840F48040D8
:102D40002168886027E0EA686968206802F0D8F89E
:102D50005021206802F00EF81DE0EA6869682068DA
:102D600002F0E1F86021206802F004F813E0EA685C
:102D70006968206802F0C4F84021206801F0FAFF79
:102D800009E000BF00BF00BF2968206801F0F2FF22
:102D900001E0012700BF00BF012084F83D0000BF13
:102DA000002084F83C0000BF384684E72DE9F0415C
:102DB00004460D4614B90120BDE8F08194F83D00A9
:102DC00028B9002084F83C00204600F051F8022089
:102DD00084F83D002068806844F207018843216838
:102DE0008860211D206801F06FFF2068D0F80880FE
:102DF000206886692068076A286840EA080840F267
:102E000003308643A969A86840EA0120064340F6DA
:102E10000C4086434FF2F0008643E969E86840EAD7
:102E20000120064328690001296A40EA013006436F
:102E300027F022076969686840EA011007432068A3
:102E4000C0F808802068866120680762012084F845
:102E5000460084F83E0001213F200155012084F8FE
:102E6000420043200155012084F83D000020A3E7E3
:102E700010B586B00446002002900390049005909F
:102E800029492068884224D100BF2848C06940F001
:102E900002002649C8610846C06900F0020001909E
:102EA00000BF00BF00BF0846806940F00400886191
:102EB0000846806900F00400019000BF00BFC020F8
:102EC000029000200390049002A91948FEF74EFCDE
:102ED00027E018492068884223D100BF1348C06901
:102EE00040F004001149C8610846C06900F00400C0
:102EF000019000BF00BF00BF0846806940F0080095
:102F000088610846806900F00800019000BF00BF9A
:102F1000C020029000200390049002A90648FEF70A
:102F200025FC06B010BD0000000400400010024067
:102F30000008014000080040000C01402DE9F0436A
:102F400004460D4694F83E603F20075D94F84280A9
:102F5000432010F804906DB9012E02D1B8F1010F91
:102F600002D00120BDE8F083022084F83E0084F8FE
:102F7000420025E0042D0CD1012F02D1B9F1010F3F
:102F800001D00120EEE702213F20015543200155E9
:102F900016E0012E07D1012F05D1B8F1010F02D1A2
:102FA000B9F1010F01D00120DCE7022084F83E00D6
:102FB00002213F200155022084F8420043200155A0
:102FC00015B1042D0CD105E001220021206801F08B
:102FD000B5FE10E001220421206801F0AFFE0AE0F6
:102FE00001220021206801F0A9FE012204212068AD
:102FF00001F0A4FE00BF00BF2068006840F001009F
:10300000216808600020ADE7704710B504462068CD
:103010000069C0F34000D8B12068C068C0F3400028
:10302000B0B16FF0020021680861012020772068AC
:10303000806900F0030018B12046FFF7E5FF05E0C6
:10304000204600F0D9F8204600F08DF900202077C6
:1030500020680069C0F38000D8B12068C068C0F360
:103060008000B0B16FF00400216808610220207771
:103070002068806900F4407018B12046FFF7C4FF53
:1030800005E0204600F0B8F8204600F06CF900207A
:10309000207720680069C0F3C000D8B12068C068FC
:1030A000C0F3C000B0B16FF00800216808610420CF
:1030B00020772068C06900F0030018B12046FFF7B0
:1030C000A3FF05E0204600F097F8204600F04BF9FA
:1030D0000020207720680069C0F30010D8B1206874
:1030E000C068C0F30010B0B16FF010002168086133
:1030F000082020772068C06900F4407018B120468D
:10310000FFF782FF05E0204600F076F8204600F049
:103110002AF9002020772068006900F0010058B1EA
:103120002068C06800F0010030B16FF00100216834
:103130000861204600F082F920680069C0F3C010E1
:1031400058B12068C068C0F3C01030B16FF0800083
:10315000216808612046FFF781FC20680069C0F300
:10316000801058B12068C068C0F3801030B16FF093
:10317000400021680861204600F0D8F92068006905
:10318000C0F3401058B12068C068C0F3401030B19F
:103190006FF02000216808612046FFF760FC10BD39
:1031A00010B586B00446002002900390049005906C
:1031B0000E492068884217D100BF0D48806940F051
:1031C00004000B4988610846806900F00400019002
:1031D00000BF00BF4FF410600290022003900590E2
:1031E00002A90448FEF7C2FA06B010BD002C014047
:1031F000001002400008014070472DE9F0410446EC
:103200000D461646002700BF94F83C00012802D165
:103210000220BDE8F081012084F83C0000BF36B1F7
:10322000042E1BD0082E31D00C2E5ED145E029464D
:10323000206801F0A9FD2068806940F0080021683D
:1032400088612068806920F0040021688861206816
:103250008069296908432168886148E02946206817
:1032600001F0C2FD2068806940F400602168886137
:103270002068806920F48060216888612068806906
:10328000296940EA01202168886130E029462068E8
:1032900001F0DEFD2068C06940F008002168C861C7
:1032A0002068C06920F004002168C8612068C069F6
:1032B000296908432168C86119E02946206801F09E
:1032C000FBFD2068C06940F400602168C861206887
:1032D000C06920F480602168C8612068C0692969DC
:1032E00040EA01202168C86101E0012700BF00BF5A
:1032F00000BF002084F83C0000BF384689E710B5C5
:1033000004460CB9012010BD94F83D0028B90020F6
:1033100084F83C00204600F025F8022084F83D00A7
:10332000211D206801F0D0FC012084F8460000BF78
:1033300084F83E0001213F200155402001554120E5
:10334000015500BF00BF012084F842004320015511
:10335000442001554520015500BF012084F83D005F
:103360000020D0E77047704770B504460D4615B988
:1033700094F83E000BE0042D02D13F20005D06E0F2
:10338000082D02D14020005D01E04120005D0128B0
:1033900001D0012070BD1DB9022084F83E000EE06E
:1033A000042D03D102213F20015508E0082D03D14F
:1033B00002214020015502E0022141200155012255
:1033C0002946206801F0BAFC19492068884201D1D9
:1033D000012000E0002028B12068406C40F400404B
:1033E000216848641249206888420BD02068B0F1F7
:1033F000804F07D00F492068884203D00E492068CB
:1034000088420CD12068806800F00706062E0CD098
:103410002068006840F001002168086005E020682D
:10342000006840F00100216808600020B2E7000059
:10343000002C0140000400400008004070B5044624
:103440002068B0F1804F4CD1274A2849284803F022
:103450006BFE284A2849294800F06EFE284A29496F
:10346000294800F041FE032001F030FB27490860A5
:10347000042001F02BFB2649086008460168234818
:103480000068FEF72DF8234908601C48B0F90000D9
:1034900006F0A2F8054629461448006801F012FF1C
:1034A0001D490860084600681A49096808441B4914
:1034B0000860084600681A49096808441949086004
:1034C0001648006816490968401A174908601549E6
:1034D000084600F0EBFD144801681248006801F04E
:1034E00045FB03F077FD70BD8400002080000020C4
:1034F0007C0000208C0000208A0000208800002032
:1035000092000020900000208E0000205800002033
:103510005C000020500000204C0000206C000020C7
:103520007000002064000020680000207047F8B59B
:1035300004460E46174694F8420020282ED106B1C4
:103540000FB90120F8BD01202063002060633A46D6
:103550003146204601F05CFE0546EDB9206B01289E
:1035600019D100BF002000902068006800902068FA
:103570004068009000BF00BF00BF00BF21680C3151
:1035800051E8001F41F0100021680C3141E80002B1
:10359000002AF3D100E001252846D3E70220D1E735
:1035A00070B504460D4622A12248FCF749FF10B928
:1035B00003F01AFC36E020A11E48FCF741FF30B9A9
:1035C00001201E49087000201D4908702AE01DA135
:1035D0001848FCF735FF10B904F08AFF22E01AA161
:1035E0001448FCF72DFF10B903F034FD1AE017A1C1
:1035F0001048FCF725FF30B9012011490870002060
:103600000E4908700EE012A10A48FCF719FF10B924
:10361000FDF72AFF06E00FA10648FCF711FF08B9E5
:10362000FDF712FF322203490B48FFF780FF70BD00
:1036300031000000C4020020320000009800002089
:103640009900002033000000340000003500000025
:1036500036000000370000006402002070470000C0
:103660002DE9F84F0446206805682068C668206880
:1036700047694FF00009CA4605F00F09B9F1000F7C
:103680000AD105F0200038B106F0200020B1204614
:1036900001F0C2FCBDE8F88FB9F1000F7BD007F054
:1036A000010018B906F49070002874D005F00100EC
:1036B00030B106F4807018B1606C40F001006064B5
:1036C00005F0040030B107F0010018B1606C40F063
:1036D0000200606405F0020030B107F0010018B18B
:1036E000606C40F00400606405F0080048B106F02A
:1036F000200010B907F0010018B1606C40F008001C
:103700006064606C002845D005F0200028B106F008
:10371000200010B1204601F07FFC20684069C0F312
:10372000801A606C00F0080010B9BAF1000F2CD0BC
:10373000204601F016FC2068406900F0400000B30C
:1037400000BF00BF2168143151E8001F21F0400084
:103750002168143141E80002002AF3D100BFE06B78
:1037600050B17748E16B4863E06BFDF793FF88B198
:10377000E06B416B88470DE02046FFF76FFF09E0E3
:1037800009E02046FFF76AFF04E02046FFF766FFE6
:10379000002060647EE7206B012877D105F01000DF
:1037A000002873D006F010000028FAD000BF0020D7
:1037B000009020680068009020684068009000BF7A
:1037C00000BF2068406900F0400000285FD0E06B37
:1037D000006840681FFA80F8B8F1000F55D0A08D3E
:1037E000404552DDA4F82E80E06B8069202843D04C
:1037F00000BF00BF21680C3151E8001F21F4807028
:1038000021680C3141E80002002AF3D100BF00BF5B
:1038100000BF2168143151E8001F21F00100216828
:10382000143141E80002002AF3D100BF00BF00BFFD
:103830002168143151E8001F21F040002168143143
:1038400041E80002002AF3D100BF202084F84200A2
:103850000020206300BF00BF21680C3151E8001F29
:1038600021F0100021680C3141E80002002AF3D158
:1038700000BFE06BFDF7E2FE02206063A08DE28DE9
:10388000801A81B22046FFF78BFE03E742E0A08D4D
:10389000E18D401A1FFA80F8E08DD0B3B8F1000F27
:1038A00037D000BF00BF21680C3151E8001F21F460
:1038B000907021680C3141E80002002AF3D100BF6A
:1038C00000BF00BF2168143151E8001F21F0010042
:1038D0002168143141E80002002AF3D100BF202002
:1038E00084F842000020206300BF00BF21680C3133
:1038F00051E8001F21F0100021680C3141E800025E
:10390000002AF3D100BF0220606341462046FFF742
:1039100047FEBFE605F0800030B106F0800018B128
:10392000204601F095FCB5E605F0400030B106F008
:10393000400018B1204601F04AFBABE600BFA9E603
:103940004F4F000810B504460CB9012010BDA06906
:1039500000B100E000BF94F8410028B9002084F8CD
:103960004000204600F02AF8242084F84100206816
:10397000C06820F400502168C860204601F0CAFBEE
:103980002068006920F4904021680861206840693F
:1039900020F02A00216848612068C06840F4005087
:1039A0002168C86000206064202084F8410084F809
:1039B00042000020606300BFC8E7000010B586B079
:1039C0000446002002900390049005901E49206850
:1039D000884236D100BF1D48C06940F480201B4991
:1039E000C8610846C06900F48020019000BF00BF94
:1039F00000BF0846806940F0080088610846806979
:103A000000F00800019000BF00BF081502900220DE
:103A100003900320059002A90D48FDF7A7FE4FF47F
:103A20000060029000200390049002A90848FDF76E
:103A30009DFE002211462720FEF74EFC2720FEF7B0
:103A40003BFC06B010BD00000048004000100240E2
:103A5000000C01407047704700BFFEE700B585B01D
:103A600000BF0D48806940F010000B49886108468E
:103A7000806900F01000009000BF00BF4FF440408C
:103A800001900120029003900320049001A90348B3
:103A9000FDF76CFE05B000BD0010024000100140B3
:103AA000014608684069C0F38020B0B16FF48060BF
:103AB0000A68506100200863202081F83D00002042
:103AC00081F83E00086C40F00400086400BF00204C
:103AD00081F83C0000BF012070470020FCE7000097
:103AE0002DE9F84304460F4615469946DDE9088658
:103AF0002068006840F480602168086020680068E1
:103B000040F4807021680860434600224FF00111A4
:103B10002046009600F075F960B12068006800F456
:103B20008070B0F5807F02D14FF4007020640320D4
:103B3000BDE8F88307F0FE0021680861334642467D
:103B40003E49204600F0BCF908B10120F0E700BF73
:103B500000200090206840690090206880690090F3
:103B600000BF00BF32464146204600F06BFA50B11C
:103B7000206C042805D12068006840F4007021689A
:103B800008600120D4E7B9F1010F03D1E8B2216840
:103B9000086117E0C5F307202168086132464146F5
:103BA000204600F04FFA50B1206C042805D120685F
:103BB000006840F40070216808600120B8E7E8B2AE
:103BC0002168086132464146204600F03BFA50B178
:103BD000206C042805D12068006840F4007021683A
:103BE00008600120A4E72068006840F48070216824
:103BF0000860434600224FF001112046009600F075
:103C000000F958B12068006800F48070B0F5807F3A
:103C100002D14FF400702064032089E7F8B240F02D
:103C2000010021680861334642460449204600F0FD
:103C300047F908B101207BE7002079E70200010085
:103C40002DE9F8430446884615469946DDE908679C
:103C50002068006840F480702168086033460022C4
:103C60004FF001112046009700F0CBF860B12068BA
:103C7000006800F48070B0F5807F02D14FF40070CE
:103C800020640320BDE8F88308F0FE002168086185
:103C90003B4632462149204600F012F908B1012086
:103CA000F0E700BF00200090206840690090206885
:103CB0008069009000BF00BF3A463146204600F0C0
:103CC000C1F950B1206C042805D12068006840F487
:103CD0000070216808600120D4E7B9F1010F03D119
:103CE000E8B22168086117E0C5F307202168086180
:103CF0003A463146204600F0A5F950B1206C042820
:103D000005D12068006840F4007021680860012037
:103D1000B8E7E8B2216808610020B3E702000100BB
:103D200010B50122D1030A48FDF7B8FE0122910324
:103D30000748FDF7B3FE00224FF400410448FDF7A9
:103D4000ADFE00224FF480410148FDF7A7FE10BDF3
:103D50000010014010B5012291030748FDF79EFEB7
:103D600000224FF400410448FDF798FE0122D103E0
:103D70000148FDF793FE10BD0010014010B501226F
:103D800091030548FDF78AFE00224FF48041024866
:103D9000FDF784FE10BD00000010014070B5044620
:103DA0000D46164625E02046FFF77AFE08B10120B1
:103DB00070BD681CE8B1FDF777FE801BA84200D8F3
:103DC000BDB920684069C0F3800090B9002020632D
:103DD000202084F83D00002084F83E00206C40F054
:103DE0002000206400BF002084F83C0000BF0120B8
:103DF000DEE720684069C0F380000028D3D00020AF
:103E0000D6E72DE9F04104460D4617461E46DDF87B
:103E1000188038E0701CA8B3FDF746FEA0EB080040
:103E2000B04200D876BBC5F3074001280AD120680C
:103E30004069A9B20840A9B2884201D101200BE033
:103E4000002009E020688069A9B20840A9B2884230
:103E500001D1012000E00020B84214D100202063ED
:103E6000202084F83D00002084F83E00206C40F0C3
:103E70002000206400BF002084F83C0000BF012027
:103E8000BDE8F081FFE7C5F3074001280AD12068AB
:103E90004069A9B20840A9B2884201D101200BE0D3
:103EA000002009E020688069A9B20840A9B28842D0
:103EB00001D1012000E00020B842ABD00020DFE7B4
:103EC0002DE9F04104460D4616461F4658E020688D
:103ED0004069C0F38020E8B12068006840F40070B9
:103EE000216808606FF480602168486100202063C9
:103EF000202084F83D00002084F83E00206C40F033
:103F00000400206400BF002084F83C0000BF0120B2
:103F1000BDE8F081701C90B3FDF7C6FDC01BB04238
:103F200000D866BBC5F3074001280AD12068406964
:103F3000A9B20840A9B2884201D101200BE00020BB
:103F400009E020688069A9B20840A9B2884201D17D
:103F5000012000E0002090B900202063202084F898
:103F60003D00002084F83E00206C40F020002064DA
:103F700000BF002084F83C0000BF0120C8E7FFE735
:103F8000C5F3074001280AD120684069A9B208405A
:103F9000A9B2884201D101200BE0002009E020688D
:103FA0008069A9B20840A9B2884201D1012000E08D
:103FB000002000288BD00020AAE770B504460D46EB
:103FC000164637E020684069C0F30010A0B16FF0DA
:103FD00010002168486100202063202084F83D0003
:103FE000002084F83E00206C206400BF002084F88C
:103FF0003C0000BF012070BDFDF756FD801BA842AC
:1040000000D8BDB920684069C0F3801090B9002085
:104010002063202084F83D00002084F83E00206CBE
:1040200040F02000206400BF002084F83C0000BF66
:104030000120E0E720684069C0F380100028C1D06B
:104040000020D8E770B504460D46164625E0204608
:10405000FFF726FD08B1012070BD681CE8B1FDF72F
:1040600023FD801BA84200D8BDB920684069C0F379
:10407000C01090B900202063202084F83D0000206B
:1040800084F83E00206C40F02000206400BF002037
:1040900084F83C0000BF0120DEE720684069C0F3DF
:1040A000C0100028D3D00020D6E7000041F65833D6
:1040B00002689A4201DD1A4602600A4B02689A427F
:1040C00001DA1A46026041F658330A689A4201DD65
:1040D0001A460A60034B0A689A4201DA1A460A60D5
:1040E00070470000A8E4FFFF2DE9FC4104460D469F
:1040F00016466B4606223B21682000F045F807462D
:10410000BFB99DF801009DF8001040EA012000B2FF
:1041100020809DF803009DF8021040EA012000B2C3
:1041200028809DF805009DF8041040EA012000B2A7
:1041300030803846BDE8FC812DE9FC4104460D463F
:1041400016466B4606224321682000F01DF80746FC
:10415000BFB99DF801009DF8001040EA012000B2AF
:1041600020809DF803009DF8021040EA012000B273
:1041700028809DF805009DF8041040EA012000B257
:1041800030803846BDE8FC812DE9FE4304460D46EB
:1041900016461F4640F6FF70610001232A46CDE90E
:1041A000007602900348FDF76DFD80464046BDE86D
:1041B000FE830000F00000202DE9FE4304460D467A
:1041C00016461F4640F6FF70610001232A46CDE9DE
:1041D000007602900348FDF707FF80464046BDE8A1
:1041E000FE830000F000002000B585B000200190A3
:1041F00002900390049000BF4148806940F0100095
:104200003F4988610846806900F01000009000BFB7
:1042100000BF00BF0846806940F020008861084662
:10422000806900F02000009000BF00BF00BF08467A
:10423000806940F0040088610846806900F004004D
:10424000009000BF00BF00BF0846806940F0080032
:1042500088610846806900F00800009000BF00BF38
:1042600000224FF400512748FDF718FC00224FF4BC
:1042700070412548FDF712FC4FF4005001900120D9
:104280000290002003900220049001A91D48FDF730
:104290006DFA49F21700019000200290012003906E
:1042A00001A91A48FDF762FA20200190002002902F
:1042B0000220039001A91548FDF758FA0320019048
:1042C00000200290039001A90F48FDF74FFA4FF428
:1042D0007040019001200290002003900320049080
:1042E00001A90948FDF742FA382001900020029008
:1042F0000120039001A90448FDF738FA05B000BD7C
:104300000010024000100140000C01400008014074
:1043100010B50B480B4908600B484860002109485C
:104320008160C1604FF48041016100214161816180
:10433000C1610162FDF7BEFB08B1FDF7CEF810BD0B
:1043400000540040F0000020801A060000B595B02F
:10435000002011901290139014900F9010901C2137
:1043600008A8FCF745F820216846FCF741F82F48DB
:104370002F4908600020486000212D48816041F6E7
:104380001F41C1600021016141618161FEF7E4FBD1
:1043900008B1FDF7A2F84FF48050119011A92448FC
:1043A000FEF77EFC08B1FDF798F82148FEF7A7FF5D
:1043B00008B1FDF792F800200F9010900FA91C484B
:1043C000FEF788FB08B1FDF788F860200890002010
:1043D00009900A900B900C900D900E90002208A965
:1043E0001348FEF70AFF08B1FDF777F80C2208A979
:1043F0000F48FEF702FF08B1FDF76FF800200090AC
:1044000001900290039004904FF40050059000201A
:10441000079069460648FEF723FB08B1FDF75DF8F3
:104420000348FEF7BDFE15B000BD0000002C0140A2
:104430004401002000B587B000200390049005904F
:104440000690019002904FF080401449086041F6B8
:104450001F4048600021114881606321C160002134
:10446000016180218161FEF777FB08B1FDF735F826
:104470004FF48050039003A90848FEF711FC08B1DF
:10448000FDF72BF800200190029001A90348FEF7E8
:1044900021FB08B1FDF721F807B000BD8C01002019
:1044A00000B58BB0242102A8FBF7A2FF00200090EA
:1044B00001901848184908600020486000211648FB
:1044C00081604FF6FF71C1600021016181610120AF
:1044D0000290002003900120049000200590069097
:1044E000079001200890002009900A9002A90A482C
:1044F000FEF75CFC08B1FCF7F0FF00200090019093
:1045000069460548FEF7E6FA08B1FCF7E6FF0BB08E
:1045100000BD000000040040D401002000B58BB0B5
:10452000242102A8FBF764FF0020009001901848A6
:1045300018490860002048600021164881604FF645
:10454000FF71C160002101618161012002900020A2
:104550000390012004900020059006900790012010
:104560000890002009900A9002A90A48FEF71EFC54
:1045700008B1FCF7B2FF00200090019069460548A1
:10458000FEF7A8FA08B1FCF7A8FF0BB000BD0000C9
:10459000000800401C02002010B50B480B490860C1
:1045A0004FF416504860002108488160C1600161E5
:1045B0000C21416100218161C161FFF7C3F908B19C
:1045C000FCF78BFF10BD0000004800406402002093
:1045D00000BFFEE700BFFEE770B500240CE0002539
:1045E00006E00020074901EBC5010855681CC5B26B
:1045F000802DF6DB601CC4B2082CF0DB00F0D8F88C
:1046000070BD00005A03002070B50B46CE1701EBB9
:104610005676C6F3C702CE1701EB5676F610A1EB1D
:10462000C606F4B20123A340DDB20E4B03EBC00378
:104630009B5CDB430B4E06EBC006B354094B03EB0C
:10464000C0039B5C2B43074E06EBC006B354054BDF
:1046500003EBC0039B5CDB43024E06EBC006B35486
:1046600070BD00005A03002070B50A46CE1701EB5A
:104670005676C6F3C703CE1701EB5676F610A1EBBC
:10468000C606F4B20122A240D5B2054A02EBC0022E
:10469000D25C2A43024E06EBC006F25470BD000005
:1046A0005A03002010B5FFF7D9F94FF47A70FDF7DF
:1046B00049F80021AE2000F0D8F90021084600F0AA
:1046C000D4F90021102000F0D0F90021402000F0A2
:1046D000CCF90021812000F0C8F90021CF2000F0A2
:1046E000C4F90021A12000F0C0F90021C82000F089
:1046F000BCF90021A62000F0B8F90021A82000F0A4
:10470000B4F900213F2000F0B0F90021D32000F0DF
:10471000ACF90021084600F0A8F90021D52000F0EE
:10472000A4F90021802000F0A0F90021D92000F098
:104730009CF90021F12000F098F90021DA2000F026
:1047400094F90021122000F090F90021DB2000F004
:104750008CF90021402000F088F90021202000F091
:1047600084F90021022000F080F900218D2000F062
:104770007CF90021142000F078F90021A42000F039
:1047800074F90021A62000F070F90021AF2000F09C
:104790006CF9FFF721FF10BD10B50246012000E0C3
:1047A00050430B1EA1F10104E1B2F9D110BD00008C
:1047B00070B500241CE004F1B001C8B2002100F083
:1047C00054F90021084600F050F90021102000F0B3
:1047D0004CF9002508E0084901EBC501085D0121FD
:1047E00000F043F9681CC5B2802DF4DB601CC4B234
:1047F000082CE0DB70BD00005A0300202DE9FF4FBC
:1048000081B080460E461C4600962046E31704EB16
:104810005373DB1021464FEAE47C04EB5C7C4FEAE7
:10482000EC0CA4EBCC0CBCF1000F02D04FF0010C4F
:1048300001E04FF0000C6344224604EBD27C4FEAC7
:104840006C0C03FB0CF303F0FF0B03982038C7B28A
:10485000002547E00C2C07D107EB4700234901EB6B
:10486000800010F805A014E0102C05D1204800EBC2
:10487000071010F805A00CE0182C07D107EBC700B3
:104880001C4901EB800010F805A002E005B0BDE86E
:10489000F08F4FF000091FE00AF0800020B1314690
:1048A0004046FFF7E1FE03E031464046FFF7ACFE2D
:1048B0004FEA4A604FEA106A701CC6B20098301A7C
:1048C000A04205D1009E08F1010000F0FF0806E0BB
:1048D00009F1010000F0FF09B9F1080FDCDB00BFAE
:1048E000681CC5B25D45B5DB00BFCFE7E4A6000894
:1048F00058AB000848B100082DE9F84305460E46BC
:10490000144699460AA000680090204604F098FCDE
:1049100007463A460B4607A16846FBF785FC4B461F
:104920006A463146284600F07FF8BDE8F88300006B
:1049300020000000252E3366000000002DE9F04F16
:1049400006468A4691461F46099C00252CE0781BA6
:10495000401EC1B20A20FFF71FFFB9FBF0F00A2189
:10496000B0FBF1F201FB1208B8F1000F0CD1A34625
:1049700004EBDB71491001FB0561C8B2234630220C
:104980005146FFF73BFF0DE0A34604EBDB714910F6
:1049900001FB0561C8B208F13001CAB22346514695
:1049A000FFF72CFF681CC5B2BD42D0DBBDE8F08F1D
:1049B0002DE9FF4F814615461E460D9F002D07DB52
:1049C0003B462B2248460199FFF718FFA84607E00F
:1049D0003B462D2248460199FFF710FFC5F100081C
:1049E00000241DE0301B401EC1B20A20FFF7D4FE98
:1049F000B8FBF0F00A21B0FBF1F201FB120000F16C
:104A0000300BBA4607EBDA714A10611C02FB0191C8
:104A1000C8B23B465A460199FFF7F0FE601CC4B28B
:104A2000B442DFDBBDE8FF8FF0B506460F46144603
:104A30001D4613E022782B4639463046FFF7DEFE4E
:104A4000284605EBD07106EB6101CEB2C5F18000BE
:104A5000B04202DA0026B81CC7B2641C20782028B5
:104A600002DB20787E28E5DDF0BD70B505460C46FA
:104A7000FFF756F9782000F04BF8FFF77FF91CB1EB
:104A8000402000F045F802E0002000F041F8FFF778
:104A900075F9284600F03CF8FFF770F9FFF75AF96E
:104AA00070BD704708B508490968C9084FF47A72A3
:104AB000B1FBF2F14143009100BF00BF00994A1ED3
:104AC00000920029F9D108BD4400002001460329C5
:104AD0000BD0042912D10B4A1268526A12B250420A
:104AE0000022084B1B685A620AE0074A1268526AA1
:104AF00010B20022044B1B685A6201E0002000BF84
:104B000000BF70471C020020D40100207047000045
:104B100070B50446002523E000224FF4804112487E
:104B2000FCF7BCFF04F0800028B10122D1030E483D
:104B3000FCF7B4FF05E000224FF400410A48FCF7FF
:104B4000ADFF012291030848FCF7A8FF00224FF4B3
:104B500080410548FCF7A2FF6006040E681CC5B240
:104B6000082DD9DB70BD00000010014070B504466F
:104B70000D462448006804F0F3FC064600F052F8A5
:104B8000214908702148007801283AD10846007868
:104B900070BB002C06DD01201D49087000201D4956
:104BA000087005E000201A490870012019490870B2
:104BB000201E01DB014600E04142174A12685163A2
:104BC000002D06DD002015490870012014490870E9
:104BD00005E0012011490870002011490870281EC5
:104BE00001DB014600E041420B4A1268116406E015
:104BF0000020094909684863074909680864FCF707
:104C000043FC70BD80000020780000207900002067
:104C10007400002075000020440100207600002070
:104C2000770000200146002011F1320F01DB32290C
:104C300005DD01200022024B1A60024B1A6070470A
:104C4000640000206800002010B5FDF7C5FA10BD13
:104C500000B58FB0282105A8FBF7CAFB14216846D0
:104C6000FBF7C6FB0120059000040690002007908A
:104C70000120099002200C90C1030D914FF4E01126
:104C80000E9105A8FDF79EFC08B1FCF726FC0F204D
:104C9000009002200190002002904FF48060039069
:104CA0000020049002216846FDF768FB08B1FCF77C
:104CB00014FC0FB000BD704710B50248FEF7A5F90F
:104CC00010BD00008C01002010B50268184B9842FE
:104CD00008D0B0F1804F05D0164B984202D0164B49
:104CE000984203D122F070024B681A43104B98424D
:104CF00008D0B0F1804F05D00E4B984202D00E4B39
:104D0000984203D122F44072CB681A4322F0800308
:104D10004C6943EA040202608B68C3620B688362D9
:104D2000034B984201D10B6903630123436110BD1A
:104D3000002C0140000400400008004030B501F0A4
:104D40001F05012404FA05F3046A9C430462046A03
:104D500001F01F0502FA05F52C43046230BD30B5A1
:104D60000C46816821F47F4142EA0325254329430B
:104D7000816030BD0A46816821F0700142F007036E
:104D8000194381607047000030B5026A056A25F05A
:104D9000010505624368846924F0700424F003046B
:104DA0000D682C4322F002028D682A430D4DA84263
:104DB00006D100BF22F00802CD682A4322F0040287
:104DC000084DA84207D123F4807323F400734D6982
:104DD0002B438D692B43436084614D6845630262B8
:104DE00030BD0000002C014030B5026A056A25F094
:104DF000100505624368846924F4E04424F4407497
:104E00000D6844EA052422F020028D6842EA05126A
:104E10000E4DA84207D100BF22F08002CD6842EAC1
:104E2000051222F04002094DA84209D123F4806303
:104E300023F400634D6943EA85038D6943EA8503E2
:104E4000436084614D688563026230BD002C01407F
:104E500030B5026A056A25F4807505624368C46945
:104E600024F0700424F003040D682C4322F4007233
:104E70008D6842EA05220F4DA84207D100BF22F4F7
:104E80000062CD6842EA052222F48062094DA84200
:104E900009D123F4805323F400534D6943EA0513E9
:104EA0008D6943EA05134360C4614D68C5630262BE
:104EB00030BD0000002C014030B5036A056A25F4BE
:104EC000805505624468C26922F4E04222F44072CF
:104ED0000D6842EA052223F400538D6843EA053346
:104EE000064DA84204D124F480444D6944EA851457
:104EF0004460C2614D680564036230BD002C01400E
:104F000030B50B461446026A056A25F001050562B4
:104F1000816921F0F00141EA041122F00A021A43EA
:104F20008161026230BD30B50B461446026A056AE3
:104F300025F010050562816921F4704141EA0431D0
:104F400022F0A00242EA03128161026230BD70B514
:104F500005466C6A0020E085E0842046FEF77EFB73
:104F600070BD00BF00BF02680C3252E8002F22F46F
:104F7000907102680C3242E80013002BF3D100BF9D
:104F800000BF00BF0268143252E8002F22F0010176
:104F90000268143242E80013002BF3D100BF016B0A
:104FA00001290ED100BF00BF02680C3252E8002F69
:104FB00022F0100102680C3242E80013002BF3D1FA
:104FC00000BF202180F8421000210163704710B516
:104FD00004462068C06820F040002168C860202096
:104FE00084F841002046FEF736FD002010BD000089
:104FF0000748006807490968401AB0F57A7F00D26F
:105000007047034800680349086000BFF8E70000E4
:105010003800002048000020F8B5044694F842000B
:10502000222875D1A068B0F5805F0CD1206950B9F5
:105030000025A66A20684068C0F308003080A06A96
:10504000801CA06215E0A56A0026A068B0F5805F0C
:1050500003D0A06828B9206918B920684068287072
:1050600004E02068406800F07F002870A06A401CBF
:10507000A062E08D401E80B2E085002846D1206805
:10508000C06820F020002168C8602068C06820F453
:1050900080702168C8602068406920F001002168A4
:1050A0004861202084F8420000206063206B0128C2
:1050B00026D10020206300BF00BF21680C3151E8D9
:1050C000001F21F0100021680C3141E80002002A85
:1050D000F3D100BF2068006800F0100010280AD14A
:1050E00000BF0020009020680068009020684068A1
:1050F000009000BF00BFA18D2046FEF751FA02E0EC
:105100002046FEF7A7FC0020F8BD01E00020FBE7E9
:105110000220F9E770B504462168096921F440517D
:10512000E2681143226811612269A1681143626932
:1051300041EA02052168C96841F20C6291432943A2
:105140002268D1602168496921F44071A269114344
:10515000226851612D4A2168914202D1FDF7EAF996
:1051600001E0FDF7D7F900EBC00101EB0011626827
:105170009200B1FBF2F100EBC00202EB0012636897
:105180009B00B2FBF3F26423B2FBF3F202EBC20327
:1051900003EB0212A1EB8201322202EB0111642225
:1051A000B1FBF2F101F0F00100EBC00202EB0012E2
:1051B00063689B00B2FBF3F26423B2FBF3F201EBF2
:1051C000021200EBC00101EB001163689B00B1FB10
:1051D000F3F100EBC00303EB00136668B600B3FB0A
:1051E000F6F36426B3FBF6F303EBC30606EB0313F7
:1051F000A1EB8301322303EB01116423B1FBF3F133
:1052000001F00F0111442268916070BD0038014027
:1052100010B5034699629A85DA85002058642220E9
:1052200083F84200186928B11868C06840F480709B
:105230001C68E0601868406940F001001C6860610B
:105240001868C06840F020001C68E060002010BDB5
:10525000014691F84100212828D18868B0F5805F87
:105260000BD1086948B90A6A1088C0F308000B68B6
:105270005860086A801C086205E00B6A581C0862C6
:1052800018780B685860C88C401E80B2C88458B922
:105290000868C06820F080000B68D8600868C068A3
:1052A00040F040000B68D860002070470220FCE707
:1052B00010B50248FEF7D4F910BD000064020020CA
:1052C00000BFFEE72DE9F04705460C46124801688D
:1052D000284604F0DFFA114908600021204604F056
:1052E000D9FA81460E480168484604F0D5F90746C8
:1052F0000A4801680B48006804F0CEF98046394638
:1053000003F0CAFF064604F02BF907490860084677
:105310000068BDE8F0870000B8000020AC00002065
:10532000B4000020B00000206C000020490050EACA
:10533000C12018BF04204A0D18BF40F0010040F200
:10534000FF72B2EB515F08BF40F00200012808BFB6
:105350000520704702480068C0F302207047000033
:105360000CED00E010B5002804DB0A07130E054A17
:10537000135406E00A07140E034A00F00F031B1F24
:10538000D45410BD00E400E018ED00E02DE9F04138
:105390004F1E00EBC7010446D1E9000115461E4629
:1053A00037F006020DD02A46334603F06FFC7F1E0D
:1053B00004EBC703D3E9002303F018FA37F0060221
:1053C000F1D1022F25D0042F13D0062F18BFBDE82E
:1053D000F0812A46334603F059FCD4E90A2303F04E
:1053E00005FA2A46334603F051FCD4E9082303F0BA
:1053F000FDF92A46334603F049FCD4E9062303F0BD
:10540000F5F92A46334603F041FCD4E9042303F0BE
:10541000EDF92A46334603F039FCD4E9022303F0C0
:10542000E5F92A46334603F031FCD4E90023BDE810
:10543000F04103F0DBB9012204F0D5BA03F0D6B98C
:10544000002213461046114603F08CBA024A00208F
:10545000110704F0C8BA000001FDFFFF30380A2828
:1054600001D2012070470020704700002DE9FE4F57
:1054700006460F460025684601F060F9002442E028
:1054800056F8240057F82410A0EB010ABAF1000FD7
:1054900001DB514601E0CAF10001084604F09CF826
:1054A00083464FF08F4103F065FF80465DF824008E
:1054B000002104F021F816D05DF82410404603F0D6
:1054C00059FF82464FF07E5104F0E4F9814629F0FD
:1054D000004A0F48416A504604F0AAF912D201204E
:1054E000A04005430EE00A48C169404604F0A0F818
:1054F00005D30748016A404604F09AF902D2012018
:10550000A0400543641C032CBADB2846BDE8FE8F8F
:105510009C9A00082DE9F04D8D4F21F0004A86B08D
:1055200005460C46BA452ADBAAEB070028430AD0F9
:105530008848824501DC1AD1CDB106B02846BDE8C5
:10554000F04DFFF778BF844A844B284603F09EFB5A
:1055500007460E46824A834B2846214603F096FBB7
:1055600006B03A463346BDE8F04D03F03FB901209E
:10557000FBF725F806B0BDE8F04DFFF761BF7A48AC
:10558000824542DABAF1795F0BDA2846FFF7CEFEA0
:10559000042808BFFFF75AFF284606B02146BDE899
:1055A000F08D2A460B46104603F070FB83460246F8
:1055B0006E480E460B4606217844FFF7E7FE5A4632
:1055C000334603F063FB804669488A465A463346B1
:1055D00004217844FFF7DAFE5A46334603F056FBBF
:1055E00000223B4603F002F902460B464046514674
:1055F00003F0B8F92A46234603F048FB06B02A46D2
:105600002346BDE8F04D03F0F1B8284624F00041F0
:1056100000223D463B4603F037FC4FF0FF3204F0DA
:10562000E2F90646024653480F460B4606217844E7
:10563000FFF7ACFE32463B4603F028FBCDE9000104
:105640004D4832463B4604217844FFF79FFE3246E0
:105650003B4603F01BFB00222B4603F0C7F88346B2
:1056600002913046394603F053F8804643480D46D0
:10567000504517DCDDE900015A46029B03F072F940
:1056800042462B4603F002FB42462B4603F0AEF89F
:10569000012204F0A8F9304A304B03F0E7FC304A0D
:1056A000304B4CE04FF0000A52460B46404603F0A8
:1056B0009DF8CDE9031052462B461046194603F0DB
:1056C000E5FA32463B4603F0DFFBDDE9033203F047
:1056D00049F906460F46DDE900015A46029B03F0F0
:1056E00041F98346009101223046394604F07BF9A6
:1056F000194A1A4B03F0C8FB06460F4601224046E2
:10570000294604F070F95A46009B03F0BFFA32466E
:105710003B4603F0ABFC06460F46012250462946A5
:1057200004F061F90E4DDFF858802A46434603F035
:10573000ABFB32463B4603F0A7FB2A46434603F049
:10574000A3FB002CD8BF81F0004106B0BDE8F08D6E
:105750000000F03F0000F07F075C143326A6913C68
:10576000182D4454FB21F93F0000E03F4C7300002A
:1057700062730000D6720000EC7200003333EF3F1A
:10578000FB21E93F2DE9F84F04460D4621F000408A
:1057900000917349814211DC7249884201DC06D1D3
:1057A0002CB120462946BDE8F84FFFF744BE6E48AD
:1057B000002DCCBF6D496E49BDE8F88F6D4981421F
:1057C00011DD6D498142D8BF4FF0FF366DDD2046B7
:1057D0002946FFF7ABFD042808BFFFF737FE204638
:1057E0002946BDE8F88F6549654F25F0004581429F
:1057F00033DD6449814219DD002632464FF0804393
:105800002046294602F0F2FF80468A4601222046C1
:10581000294604F0E8F800223B4603F027FC424604
:10582000534603F09FF804460D463EE00126002251
:10583000BA463B462046294602F0D8FF80460F462E
:10584000002253462046294603F010FC42463B46C0
:1058500003F088F804460D4627E04B4981421BDDE2
:10586000DFF828A10226002253462046294603F0ED
:105870000DFA00223B4602F0B9FF80460F46002297
:1058800053462046294603F0F1FB42463B4603F0CF
:1058900069F804460D4608E0032622462B46002000
:1058A0003B4903F05FF804460D4622462B4610465E
:1058B000194603F0EBF98B46824602460B4603F08D
:1058C000E5F907460246334888460B4606217844E8
:1058D000FFF75CFD52465B4603F0D8F982462E483E
:1058E0008B463A46434605217844FFF74FFD3A463A
:1058F000434603F0CBF902460B46002E504659466C
:105900000CDA02F073FF22462B4603F0BFF901B018
:1059100022462B46BDE8F04F03F0B6BA02F066FF10
:1059200022462B4603F0B2F91C4A7A4402EBC60326
:10593000D3E9002303F09AFB22462B4603F096FBA3
:10594000174A7A4402EBC603D3E9002303F09CFA1A
:10595000009A002AB8BF81F00041BDE8F88F00002E
:10596000000010440000F07F182D4454FB21F93F43
:10597000FB21F9BF0000DC3F0000203E0000F33FA8
:105980000000F03F0000E63F008003400000F83FC9
:105990000000F0BFEE700000AC7000004A70000024
:1059A000127000002DE9F04D9446CCF1000423F074
:1059B00000464CEA0404524F46EAD4749A4688469C
:1059C00021F00042BC4206D8454240EA050442EAC2
:1059D000D474BC4204D9BDE8F04D6246FFF72EBD39
:1059E000AAF14055A5F17F6555EA0C040BD00224BD
:1059F00004EAAA74434DDFF810E144EAD87452EA8D
:105A0000000B04D00CE0BDE8F04DFFF7BBBE002C4E
:105A100014BF012CBDE8F08D022C30D0032C32D005
:105A200056EA0C0B0AD0BE4220D1BA4209D126F068
:105A3000804622F080423346114617E000291ADBE7
:105A400025E0DFF8C8B0FB44002C04BFDBE900010F
:105A5000BDE8F08D012C02BFDBE9000181F00041BF
:105A6000BDE8F08D022C0AD0032C0CD0BA4212D122
:105A7000B8F1000F0BDA23482549BDE8F08D284620
:105A80002449BDE8F08D28467146BDE8F08D1D48DB
:105A90002149BDE8F08D921B12153C2AC4BF19485C
:105AA0001D490EDCBAF1000FBEBF12F13C0F002001
:105AB000014606DB624602F055FF21F00041FFF788
:105AC00061FE002C08BFBDE8F08D012C04BF81F001
:105AD0000041BDE8F08D114A114B022C07D003F0B4
