:020000040800F2
:100000007006002001010008DD4900084D3C000891
:10001000D94900080D0B00083D55000800000000FC
:100020000000000000000000000000008D4A0008F1
:10003000110B0008000000004D4A0008E54A0008C6
:100040001B0100081B0100081B0100081B01000820
:100050001B0100081B0100081B0100081B01000810
:100060001B0100081B0100081B0100081B01000800
:100070001B0100081B0100081B0100081B010008F0
:100080001B0100081B0100081B0100081B010008E0
:100090001B0100081B0100081B0100081B010008D0
:1000A0001B0100081B0100081B0100081B010008C0
:1000B0005D4B00081B0100081B0100081B01000824
:1000C0001B0100081B0100081B0100081B010008A0
:1000D0001B0100081B0100081B0100082D5500082A
:1000E0001B0100081B0100081B010008DFF80CD0F1
:1000F00000F098FC00480047497100087006002095
:100100000648804706480047FEE7FEE7FEE7FEE7B1
:10011000FEE7FEE7FEE7FEE7FEE7FEE7594B0008D5
:10012000ED0000082DE9F0410024061B254671F181
:10013000000605DA01240027D0EB070067EB010178
:10014000161E73F1000605DA0027D2EB070201251F
:1001500067EB030300F020FB86460E4617469C46DD
:10016000AC4204D00025D0EB050E65EB010624B1AE
:100170000020D2EB000760EB030C704631463A4694
:100180006346BDE8F081002800DA40427047D2B2F1
:1001900001E000F8012B491EFBD270470022F6E770
:1001A00010B513460A4604461946FFF7F0FF2046ED
:1001B00010BD30B504460020034600E05B1C9342AE
:1001C00003D2E05CCD5C401BF8D030BDF0B480EAD7
:1001D0000102D40F4200B2EB410F02D202460846A0
:1001E00011464A0042D0C30DDDB2C1F3C752AD1A69
:1001F000202D35DAC1F3160141F4000204B1524258
:10020000C5F1200602FA06F12A411044B3EBD05F93
:1002100023D0C4B1012DA0EBC35009DCF0BC4FF0DA
:10022000004202EAC352DBB200F5000000F00FBB4F
:10023000400000F1807000EBC350A0F1807040EAF4
:10024000D170490009E0490841EAC071A0EBC350F0
:1002500000F50000400800EBC350F0BC00F0EEBA1F
:100260006142012202EB4101001BF6E7F0BC70473E
:1002700081F00041AAE780F00040A7E780EA010290
:1002800010B502F00043400022D04A001FD0010EFA
:1002900001EB1261C0F35600C2F3560240F40000B5
:1002A00042F40002A0FB022000047F39140400D0B5
:1002B000401C50EA124001D44000491EC2B20C0654
:1002C00004EBD010401C4008802A02D003E000203C
:1002D00010BD20F00100002900DA0020184310BDF5
:1002E00030B480EA010202F0004530F0004221F013
:1002F000004013D090B1C30DD40DC2F31601C0F36A
:100300001600E41A41F4000140F400027D349142E9
:1003100001D3641C00E04900002C02DA30BC00204C
:1003200070474FF400000023914201D3891A034320
:1003300040084FEA4101F7D151B1914202D14FF04B
:10034000004105E002D24FF0010101E06FF0010130
:1003500003EBC450284430BC00F070BA2DE9FE4FC6
:10036000804681EA0300C00F0C46009021F0004156
:1003700023F00045B8EB0200A94105D240462146D2
:1003800090461C460B46024623F00040104347D0DF
:10039000270DC7F30A00C3F30A510290401A0190D7
:1003A00040286BDAC3F3130040F4801B0098924698
:1003B00020B10023D2EB030A63EB0B0B01985946E3
:1003C000C0F14002504600F018FA06460D4650466D
:1003D0005946019A00F020FA10EB08006141002410
:1003E00087EA115284EAE7731A4340D0009A62B355
:1003F000019A012A4FEA075215DC001B61EB02014A
:100400004FF0004202EA0752CDE90042001C41F5DC
:10041000801132462B4600F057FA03B0BDE8F08F4A
:1004200040462146F9E7001B61EB0201001C41F543
:10043000801300185B412018A2F5001747EB030159
:1004400040EAD570B6196D4111E06D084FEA3606E5
:1004500045EAC0754FEA0752001B61EB0201001C20
:1004600041F5801149084FEA3000001951413246E8
:100470002B4603B0BDE8F04F00F017BA00980122F8
:1004800040000023D0EB020263EBE07300982146AA
:100490004FEAE074B8EB000061EB0401E9E783F098
:1004A00000435BE781F0004158E72DE9FE4F81EA08
:1004B000030404F0004421F0004100944FF0000BCD
:1004C00023F0004350EA01045ED052EA03045BD0FB
:1004D000C3F30A54C1F30A552C44A4F2F334019433
:1004E000A0FB0254C1F3130141F48011C3F31303C1
:1004F00043F4801301FB024400FB034E840A970A75
:1005000044EA815447EA8357A4FB076802958D0AA1
:1005100005FB07854FEA932C04FB0C542705029D2D
:100520004FEA065847EA1637B5EB08056EEB070C9D
:10053000870E920E47EA811742EA8312A7FB020157
:10054000B6EB0B0164EB00042B0D43EA0C335E1891
:1005500044EB1C50DA465146E7FB0201C5F3130495
:100560004FEA0B3343EA14534FEA0432019C43EA47
:100570000603A4F10C040294009CCDE900B400F041
:10058000A3F903B0BDE8F08F00200146F9E72DE99B
:10059000F04D81EA030404F0004B21F000451446BD
:1005A0004FF0000A23F0004150EA050220D054EA3F
:1005B00001021DD0C5F30A570246C5F31303C1F368
:1005C0001300C1F30A5640F4801543F48013A7EBDF
:1005D0000608101BD64608F2FD3873EB050002D35F
:1005E00008F1010801E092185B41B8F1000F03DA4D
:1005F00000200146BDE8F08D00204FF48011064632
:1006000084460EE0171B73EB050705D3121B63EB43
:10061000050306434CEA010C49084FEA30009218E2
:100620005B4150EA0107EDD152EA030012D082EAA1
:10063000040083EA0501084305D0101BAB4106D234
:100640000122002306E000224FF0004302E06FF099
:10065000010253101AEB06004CEB085110EB0A0094
:1006600041EB0B01BDE8F04D00F01FB9002801DBA4
:10067000C0F10040002901DBC1F10041814201D8F5
:100680000120704700207047002801DBC0F10040C6
:10069000002901DBC1F10041814201D201207047F4
:1006A00000207047002801DBC0F10040002901DB79
:1006B000C1F10041814201D1012070470020704703
:1006C000C10F80EAE0700844CA079623002100F0B9
:1006D000BEB896230022114600F0B9B800F00042DF
:1006E00020F00040C10DC0F3160040F400007F2947
:1006F00001DA00207047962903DCC1F19601C84059
:1007000001E096398840002AF4D04042704700F05A
:10071000004230F000400AD0C10D01F56071C0F315
:10072000160042EA0151C2084007114370470020F9
:100730000146704701F0004330B421F0004150EA17
:10074000010206D00A0DA2F56072C1F31301002A5E
:1007500002DC30BC00207047440F44EAC104C100F1
:10076000E01830BC00EBC25000F068B830B50B4662
:10077000014600202022012409E021FA02F59D42D1
:1007800005D303FA02F5491B04FA02F52844151EA5
:10079000A2F10102F1DC30BD2DE9F05F0546002039
:1007A00092469B4688460646814640241BE02846E2
:1007B00041464746224600F047F953465A46C01A7A
:1007C000914110D311461846224600F016F82D1A12
:1007D00067EB01084F4622460120002100F00DF88A
:1007E00017EB00094E41201EA4F10104DFDC48464E
:1007F00031462A464346BDE8F09F202A04DB203AD2
:1008000000FA02F1002070479140C2F1200320FA63
:1008100003F3194390407047202A06DBCB17203A98
:1008200041FA02F043EAE07306E041FA02F3D040F5
:10083000C2F1200291400843194670470029A8BF21
:100840007047401C490008BF20F00100704710B4F9
:10085000B0FA80FC00FA0CF050EA010404BF10BCAE
:10086000704749B1CCF1200421FA04F411FA0CF1DB
:1008700018BF012121430843A3EB0C01CB1D4FEA14
:1008800000614FEA102042BF002010BC704700EB0F
:10089000C35010440029A4BF10BC7047401C49003D
:1008A00008BF20F0010010BC704710B5141E73F192
:1008B000000408DA401C41F1000192185B411A4320
:1008C00001D120F0010010BD2DE9F04D92469B466C
:1008D00011B1B1FA81F202E0B0FA80F22032904612
:1008E000FFF78BFF04460F4640EA0A0041EA0B017E
:1008F00053465A46084313D0114653EA010019D013
:10090000C8F14002504600F09FF805460E4650469A
:1009100059464246FFF771FF084305D0012004E025
:1009200020463946BDE8F08D0020054346EAE076D2
:100930002C4337430A986305E40AA0EB0800002221
:10094000FD0A44EA47540A3002D500200146E9E78F
:10095000010510196941DDE9084500196941BDE843
:10096000F04DA2E770B521F0004303430CD0C1F372
:100970000A550024D5EB040564EB0403D617AD1A21
:10098000B34102DB0020014670BD201841EB02514B
:1009900070BDC1F30A52C1F3130140F2FF3341F4B9
:1009A00080119A4202DA00200146704740F2334338
:1009B0009A42A2F2334202DC524200F045B8FFF7FD
:1009C0001CBF000030B5041E71F1000404DB4FF0C1
:1009D0000044404264EB0101141E73F1000405DB86
:1009E0001C464FF00043524263EB04038B4208BFA6
:1009F000824230BD30B5041E71F1000404DB4FF0BB
:100A00000044404264EB0101141E73F1000405DB55
:100A10001C464FF00043524263EB0403994208BF67
:100A2000904230BD064C074D06E0E06840F00103FF
:100A300094E8070098471034AC42F6D3FFF75AFB0E
:100A400058AC000878AC0008202A04DB203A21FAD0
:100A500002F00021704721FA02F3D040C2F12002D7
:100A600091400843194670472DE9F04D00231A467E
:100A70001B1A8A4103DB00200146BDE8F08DC1F35B
:100A80000A52C1F3130141F480154FF0000BD10756
:100A900002D100186D41521E0027044640F2FF119A
:100AA000384601EB620A3E468046024600204FF47B
:100AB0008011FFF7C9FFC2197141BB1846EB010055
:100AC000B4EB030C75EB000C04D3E41A65EB0005E2
:100AD00017460E46241908F101006D41804634285E
:100AE000E3DDF91946EB0600091BA84103D24FF0DC
:100AF000FF32134601E0002213461BEB070046EBD2
:100B00000A51BDE8F04DFFF7D0BE0000FFE7FEE759
:100B10007047000081B0EFF3108072B60090FFE7DD
:100B2000FEE7000083B0019000208DF803000198DB
:100B300090F8210002280DD0FFE701990420886376
:100B4000FFE70199002081F82000FFE701208DF8E0
:100B50000B0021E001980168086820F00E00086091
:100B600001980168086820F0010008600198C16BD5
:100B7000026C012090404860FFE70199012081F854
:100B80002100FFE70199002081F82000FFE79DF890
:100B900003008DF80B00FFE79DF80B0003B07047D2
:100BA00080B588B0079000208DF81B00079890F85A
:100BB0002100022807D0FFE707990420886301205D
:100BC0008DF81B0076E007980168086820F00E0099
:100BD000086007980168086820F00100086007981D
:100BE00000680821C4F20201884203D1FFE7012016
:100BF000059047E0079800681C21C4F20201884272
:100C000003D1FFE71020049039E0079800683021F5
:100C1000C4F20201884204D1FFE74FF480700390D0
:100C20002AE0079800684421C4F20201884204D1F6
:100C3000FFE74FF4805002901BE0079800685821AE
:100C4000C4F20201884204D1FFE74FF480300190E2
:100C50000CE0079801686C22C4F202024FF0807029
:100C6000914208BF4FF480100190FFE70198029075
:100C7000FFE702980390FFE703980490FFE70498CA
:100C80000590FFE705980421C4F202010860079966
:100C9000012081F82100FFE70799002081F820005A
:100CA000FFE70798406B20B1FFE70798416B884743
:100CB000FFE7FFE79DF81B0008B080BD80B584B05A
:100CC000039000F0DDF90290039801900198013043
:100CD00048B1FFE740F24400C2F2000001780198F9
:100CE00008440190FFE7FFE700F0CAF90299401AB3
:100CF0000199884201D2FFE7F6E704B080BD000009
:100D000090B00F900E9100200D900990FFE70E9883
:100D100000680D99C840002800F07F81FFE70D9919
:100D2000012088400C900E9800680C9908400B90A8
:100D30000B980C99884240F06C81FFE70E98406850
:100D40000590002851D0FFE7059801283AD0FFE729
:100D5000059802283FD0FFE7059803285FD0FFE7FA
:100D60000598112832D0FFE70598122838D0FFE700
:100D700005980021C1F21101884236D0FFE705989D
:100D80000021C1F2120188422FD0FFE7059800210F
:100D9000C1F22101884228D0FFE705980021C1F265
:100DA0002201884221D0FFE705980021C1F23101DC
:100DB00088421AD0FFE705980021C1F2320188422B
:100DC00013D02FE00E98C06809902CE00E98C068F0
:100DD0000430099027E00E98C0680830099022E09E
:100DE0000E98C0680C3009901DE00E98806818B904
:100DF000FFE70420099011E00E988068012806D1D1
:100E0000FFE7082009900C980F99086105E0082079
:100E100009900C980F994861FFE7FFE703E0002075
:100E2000099000E0FFE70B98FF2803D8FFE70F9831
:100E3000049003E00F9804300490FFE704980890B2
:100E40000B98FF2804D8FFE70D988000039006E078
:100E50000D996FF01F0000EB81000390FFE70398EE
:100E6000079008980068079A0F21914088430999D4
:100E700091400843089908600E98C079C006002880
:100E800040F1C680FFE7FFE741F21800C4F202001C
:100E9000016841F001010160006800F00100069066
:100EA0000698FFE70D9820F003000821C4F2010125
:100EB00040580A900D9800F0030081000F2000FABE
:100EC00001F10A9888430A900F9840F60001C4F295
:100ED0000101884203D1FFE70020029026E00F982D
:100EE00040F60041C4F20101884203D1FFE701202E
:100EF000019018E00F9841F20001C4F2010188420C
:100F000003D1FFE7022000900AE00F9941F200426E
:100F1000C4F201020420914208BF03200090FFE7C1
:100F200000980190FFE701980290FFE702980D9961
:100F300001F00301890000FA01F10A9808430A90C0
:100F40000A980D9921F003010822C4F20102885089
:100F50000E988079C00748B1FFE70B9A40F2004134
:100F6000C4F2010108681043086008E00B9A40F2DF
:100F70000041C4F20101086890430860FFE70E9841
:100F800080798007002809D5FFE70B9A40F20441D9
:100F9000C4F2010108681043086008E00B9A40F2AF
:100FA0000441C4F20101086890430860FFE70E980D
:100FB0008079C006002809D5FFE70B9A40F2084166
:100FC000C4F2010108681043086008E00B9A40F27F
:100FD0000841C4F20101086890430860FFE70E98D9
:100FE00080798006002809D5FFE70B9A40F20C4172
:100FF000C4F2010108681043086008E00B9A40F24F
:101000000C41C4F20101086890430860FFE7FFE764
:10101000FFE70D9801300D9079E610B070470000A1
:1010200082B00190ADF8021001988068BDF80210FE
:10103000084204D0FFE701208DF8010003E0002002
:101040008DF80100FFE79DF8010002B07047000035
:1010500082B00190ADF802108DF801209DF80100DA
:1010600028B1FFE7BDF802000199086105E0BDF86D
:101070000200000401990861FFE702B07047000018
:1010800040F26420C2F200000068704780B58EB064
:101090000C900C9820B9FFE701208DF8370043E150
:1010A0000C9890F83D0040B9FFE70C99002081F8BA
:1010B0003C000C9800F0A8FCFFE70C99242081F874
:1010C0003D000C980168086820F0010008600C9849
:1010D0000168086840F4004008600C9801680868DE
:1010E00020F40040086000F0CBFE0A900C984068A5
:1010F00048F2A061C0F2010188420BD8FFE70A99CB
:1011000048F28042C0F21E020020914238BF012006
:1011100009900AE00A9940F60012C0F23D02002050
:10112000914238BF01200990FFE70998012804D1B6
:10113000FFE701208DF83700F6E00A984DF683614D
:10114000C4F21B31A0FB0110800C0B900C980068BE
:10115000406820F03F000B9908430C9909684860EB
:101160000C980068006A20F03F0008900C984068D6
:1011700048F2A061C0F20101884204D8FFE70B9851
:10118000013007900EE00B984FF49671484344F6F7
:10119000D351C1F26201A0FB0101012000EB9110CB
:1011A0000790FFE70898079908430C9909680862B7
:1011B0000C980068C0694CF6FF71884306900C9843
:1011C000406848F2A061C0F2010188421FD8FFE7E1
:1011D0000A9801380C9949684900B0FBF1F00130D8
:1011E0006FF31F30032803D8FFE7042005900BE0BE
:1011F0000A9801380C9949684900B0FBF1F00130B8
:101200006FF31F300590FFE7059804904CE00C98B1
:10121000806868B9FFE70A9801380C99496801EBC2
:101220004101B0FBF1F001306FF31F3003900DE08E
:101230000A9801380C99496819225143B0FBF1F022
:101240000130042161F31F300390FFE7039800058C
:1012500018B9FFE70120029023E00C98806868B974
:10126000FFE70A9801380C99496801EB4101B0FB8E
:10127000F1F001306FF31F3001900DE00A98013852
:101280000C99496819225143B0FBF1F00130042157
:1012900061F31F300190FFE7019840F40040029095
:1012A000FFE702980490FFE70698049908430C9919
:1012B0000968C8610C980068006820F0C0000C9BA9
:1012C0001968DA691B6A1A43104308600C980068B1
:1012D000806848F2FF3188430C9A1168D36812691C
:1012E0001A43104388600C980068C06820F0FF0023
:1012F0000C9B19685A699B691A431043C8600C9883
:101300000168086840F0010008600C99002008643A
:101310000C9A202182F83D100C9908630C9981F8F1
:101320003E008DF83700FFE79DF837000EB080BD16
:1013300010B590B0844614981398DDF848E0CDF8C5
:1013400028C0ADF82610ADF82420ADF82230ADF855
:10135000200000200790FFF793FE06900A9890F86F
:101360003D00202840F03F82FFE70A9806996A4630
:1013700011600221C0F210010122192302F076FE51
:1013800020B1FFE702208DF82F0030E2FFE70A9836
:1013900090F83C00012804D1FFE702208DF82F00CF
:1013A00025E20A99012081F83C00FFE7FFE70A984F
:1013B00000680068C00738B9FFE70A980168086844
:1013C00040F001000860FFE70A980168086820F40F
:1013D000006008600A99222081F83D000A994020A7
:1013E00081F83E000A990020086412980A99486220
:1013F000BDF820000A9948850A98408D0A99088509
:101400000A990020CFF6FF70C8620A98BDF826102E
:10141000BDF82420BDF82230DDF850C0069CEE4611
:10142000CEF80440CEF800C002F044FC20B1FFE743
:1014300001208DF82F00DAE10A98008DA0B9FFE7AE
:10144000FFE7002005900A980068406905900A9817
:101450000068806905900598FFE70A9801680868A8
:1014600040F4007008605DE00A98008D01281FD1EB
:10147000FFE70A980168086820F480600860EFF3CD
:10148000108072B60F90FFE7002004900A98006861
:10149000406904900A980068806904900498FFE706
:1014A0000A980168086840F40070086062B638E085
:1014B0000A98008D02281FD1FFE70A980168086882
:1014C00040F400600860EFF3108072B60E90FFE702
:1014D000002003900A980068406903900A98006809
:1014E000806903900398FFE70A980168086820F470
:1014F0008060086062B613E00A980168086840F4EA
:1015000080600860FFE7002002900A980068406948
:1015100002900A980068806902900298FFE7FFE74E
:10152000FFE7FFE7FFE70A98008D002800F04981F8
:10153000FFE70A98008D032800F20781FFE70A9869
:10154000008D01281ED1FFE70A981499069A02F02F
:1015500075FE20B1FFE701208DF82F0047E10A98C2
:10156000006800690A99496A08700A99486A013056
:1015700048620A99088D013808850A99488D013812
:101580004885E1E00A98008D022841D1FFE70A98DA
:10159000149B06996A4611600421C0F201010022E1
:1015A00002F064FD20B1FFE701208DF82F001EE15D
:1015B000EFF3108072B60D900A980168086840F445
:1015C000007008600A98006800690A99496A087002
:1015D0000A99486A013048620A99088D01380885DD
:1015E0000A99488D0138488562B60A9800680069F2
:1015F0000A99496A08700A99486A013048620A994A
:10160000088D013808850A99488D013848859AE087
:101610000A98149B06996A4611600421C0F20101E0
:10162000002202F023FD20B1FFE701208DF82F00FA
:10163000DDE00A980168086820F480600860EFF334
:10164000108072B60C900A98006800690A99496A7D
:1016500008700A99486A013048620A99088D013871
:1016600008850A99488D0138488540F20800C2F281
:101670000000006848F21F51C5F2EB11A0FB0110F9
:10168000C00844F6D351C1F26201A0FB01108009E9
:10169000232148430790FFE70798013807900798F0
:1016A000D0B9FFE70A99002008630A9A202182F83E
:1016B0003D100A9981F83E000A99086C40F020001C
:1016C000086462B6FFE70A99002081F83C00FFE752
:1016D00001208DF82F008AE0FFE70A980068406932
:1016E00000F004010020B0EB910FD5D0FFE70A987D
:1016F0000168086840F4007008600A980068006992
:101700000A99496A08700A99486A013048620A9938
:10171000088D013808850A99488D0138488562B6D8
:101720000A98006800690A99496A08700A99486A23
:10173000013048620A99088D013808850A99488D58
:1017400001384885FFE7FFE73AE00A981499069ABE
:1017500002F074FD20B1FFE701208DF82F0046E074
:101760000A98006800690A99496A08700A99486AE3
:10177000013048620A99088D013808850A99488D18
:10178000013848850A980068406900F0040101208A
:10179000B0EB910F13D1FFE70A98006800690A992E
:1017A000496A08700A99486A013048620A99088DA6
:1017B000013808850A99488D01384885FFE7FFE719
:1017C000B1E60A99202081F83D000A99002081F8AD
:1017D0003E00FFE70A99002081F83C00FFE7002067
:1017E0008DF82F0003E002208DF82F00FFE79DF811
:1017F0002F0010B010BD000010B588B084460C98C2
:101800000B98DDF828E0CDF818C0ADF81610ADF84B
:101810001420ADF81230ADF81000FFF731FC039042
:10182000069890F83D00202840F0E680FFE70698F3
:1018300003996A4611600221C0F2100101221923A6
:1018400002F014FC20B1FFE702208DF81F00D7E062
:10185000FFE7069890F83C00012804D1FFE702203A
:101860008DF81F00CCE00699012081F83C00FFE7CD
:10187000FFE7069800680068C00738B9FFE70698D8
:101880000168086840F001000860FFE706980168F9
:10189000086820F4006008600699212081F83D0066
:1018A0000699402081F83E000699002008640A98B5
:1018B00006994862BDF81000069948850698408D43
:1018C0000699088506990020CFF6FF70C862069831
:1018D000BDF81610BDF81420BDF81230DDF830C088
:1018E000039CEE46CEF80440CEF800C002F0D4FAD5
:1018F00020B1FFE701208DF81F0081E0FFE7069887
:10190000008D002849D0FFE706980C99039A02F051
:10191000F9FC80B1FFE70698006C042807D1FFE7C7
:1019200006980168086840F400700860FFE701202D
:101930008DF81F0064E006980168406A007808612D
:101940000699486A013048620699088D0138088571
:101950000699488D0138488506980068406900F06E
:1019600004010120B0EB910F16D1FFE70698008D1E
:1019700090B1FFE706980168406A0078086106990F
:10198000486A013048620699088D01380885069931
:10199000488D01384885FFE7B1E706980C99039A0E
:1019A00002F018FB80B1FFE70698006C042807D10D
:1019B000FFE706980168086840F400700860FFE7D8
:1019C00001208DF81F001BE006980168086840F4AC
:1019D000007008600699202081F83D0006990020DB
:1019E00081F83E00FFE70699002081F83C00FFE700
:1019F00000208DF81F0003E002208DF81F00FFE794
:101A00009DF81F0008B010BD80B588B00790002079
:101A100006900590049003900798006845F20041F5
:101A2000C4F2000188423ED1FFE7FFE741F218000F
:101A3000C4F20200016841F008010160006800F092
:101A4000080002900298FFE74FF4407003901220C4
:101A500004900320069040F60040C4F2010003A960
:101A6000FFF74EF9FFE70421C4F201010868019075
:101A7000019840F0E0600190019840F00200019070
:101A800001980860FFE7FFE741F21C00C4F2020082
:101A9000016841F400110160006800F4001000903A
:101AA0000098FFE7FFE708B080BD000040F2440067
:101AB000C2F20000027840F26421C2F2000108681C
:101AC000104408607047000080B542F20001C4F283
:101AD0000201086840F010000860032000F096F84A
:101AE0000F2000F005F800F03BF8002080BD00005A
:101AF00080B582B0009040F20800C2F20000006899
:101B000040F24401C2F200010A784FF47A71B1FB4D
:101B1000F2F1B0FBF1F000F087FD20B1FFE701200A
:101B20008DF8070018E000980F280DD8FFE70099FE
:101B30004FF0FF30002200F04FF8009840F24801CB
:101B4000C2F20001086003E001208DF8070003E005
:101B500000208DF80700FFE79DF8070002B080BD68
:101B600083B0FFE741F21800C4F20200016841F0BF
:101B700001010160006800F0010002900298FFE797
:101B8000FFE741F21C00C4F20200016841F08051FD
:101B90000160006800F0805001900198FFE7FFE7C6
:101BA0000421C4F2010108680090009820F0E06070
:101BB0000090009840F00070009000980860FFE7E7
:101BC00003B0704780B582B08DF807009DF907001B
:101BD00003F0EAFC02B080BD80B586B08DF8170036
:101BE000049103920020029003F0F6FC02909DF90C
:101BF0001700019002980499039A02F0F1FE014641
:101C0000019803F0F1FC06B080BD000080B582B001
:101C10000190019803F00AFD02B080BD80B584B048
:101C200002900191029820B9FFE701208DF80F0082
:101C30001BE1019842F20001C4F20201096801F0BF
:101C40000701884216D9FFE742F20000C4F2020001
:101C5000016821F00701019A11430160006800F05A
:101C600007000199884204D0FFE701208DF80F009A
:101C7000FBE0FFE702980078800700282AD5FFE7FD
:101C8000029800784007002809D5FFE741F20401D7
:101C9000C4F20201086840F4E0600860FFE70298BF
:101CA00000780007002809D5FFE741F20401C4F2DB
:101CB0000201086840F460500860FFE741F2040147
:101CC000C4F20201086820F0F000029A9268104302
:101CD0000860FFE702980078C007002860D0FFE79F
:101CE0000298406801280ED1FFE741F20000C4F2DB
:101CF000020000688003002804D4FFE701208DF86B
:101D00000F00B2E021E00298406802280ED1FFE700
:101D100041F20000C4F2020000688001002804D4EF
:101D2000FFE701208DF80F009FE00DE041F2000079
:101D3000C4F2020000688007002804D4FFE70120F5
:101D40008DF80F0091E0FFE7FFE741F20401C4F2D4
:101D50000201086820F00300029A526810430860EC
:101D6000FFF78EF90090FFE741F20400C4F2020091
:101D7000006800F00C0002994968B0EB810F0ED0AA
:101D8000FFE7FFF77DF90099401A41F28931884257
:101D900004D3FFE703208DF80F0066E0E4E7FFE7D8
:101DA000019842F20001C4F20201096801F0070142
:101DB000884216D2FFE742F20000C4F20200016836
:101DC00021F00701019A11430160006800F007004B
:101DD0000199884204D0FFE701208DF80F0044E00C
:101DE000FFE702980078400700280CD5FFE741F292
:101DF0000401C4F20201086820F4E060029AD2688B
:101E000010430860FFE702980078000700280DD50E
:101E1000FFE741F20401C4F20201086820F46050B7
:101E2000029A126940EAC2000860FFE700F04CF82D
:101E300041F20401C4F202010968C9B20A0949F673
:101E40006871C0F60001895CC84040F20801C2F226
:101E50000001086040F24800C2F200000068FFF78D
:101E600047FE00208DF80F00FFE79DF80F0004B03B
:101E700080BD000040F20800C2F200000068704718
:101E800080B5FFF7F7FF41F20401C4F202010968CF
:101E9000C1F3022249F67871C0F60001895CC8409E
:101EA00080BD000080B5FFF7E5FF41F20401C4F2F8
:101EB00002010968C1F3C22249F67871C0F6000137
:101EC000895CC84080BD00008BB040F60E70C1F246
:101ED00010000A9040F60A30C0F60C50099040F20B
:101EE0000670C0F60810089040F20230C0F20450AC
:101EF000079040F20120ADF81A00002005900490F0
:101F000003900290019041F20400C4F202000068C4
:101F10000590059800F00C0001460091E0B3FFE742
:101F20000098042804D0FFE70098082806D034E081
:101F300041F20020C0F27A00019034E00598C0F32D
:101F4000834107A8405C02909DF81600C007C0B10D
:101F5000FFE741F20400C4F20200006800F400311F
:101F60000DF11A0040EA514000780490029841F2C5
:101F70000021C0F27A0148430499B0FBF1F00390CC
:101F800007E0029840F60011C0F23D01484303907B
:101F9000FFE70398019006E0FFE741F20020C0F25E
:101FA0007A000190FFE701980BB0704780B586B0CA
:101FB0000490049820B9FFE701208DF817002EE364
:101FC00004980078C007002800F0AE80FFE741F2D7
:101FD0000400C4F20200006800F00C00042813D0D2
:101FE000FFE741F20400C4F20200006800F00C00B8
:101FF00008281BD1FFE741F20400C4F20200006888
:10200000C003002812D5FFE741F20000C4F202002D
:1020100000688003002808D5FFE70498406820B9CD
:10202000FFE701208DF81700F9E27CE0FFE7049854
:102030004068B0F5803F09D1FFE741F20001C4F2EA
:102040000201086840F48030086032E0049840687B
:1020500068B9FFE741F20001C4F20201086820F408
:1020600080300860086820F48020086020E0049830
:102070004068B0F5A02F0DD1FFE741F20001C4F296
:102080000201086840F480200860086840F480304D
:1020900008600CE041F20001C4F20201086820F47B
:1020A00080300860086820F480200860FFE7FFE7C0
:1020B000FFE7FFE704984068D0B1FFE7FEF7E0FFD5
:1020C0000390FFE741F20000C4F2020000688003C1
:1020D00000280CD4FFE7FEF7D3FF0399401A6528C8
:1020E00004D3FFE703208DF8170098E2EAE719E030
:1020F000FEF7C6FF0390FFE741F20000C4F20200C2
:102100000068800300280CD5FFE7FEF7B9FF0399AC
:10211000401A652804D3FFE703208DF817007EE2FC
:10212000EAE7FFE7FFE7FFE7049800788007002869
:1021300040F18D80FFE741F20400C4F20200006824
:1021400010F00C0F13D0FFE741F20400C4F20200BC
:10215000006800F00C00082829D1FFE741F20400D4
:10216000C4F202000068C003002820D4FFE741F257
:102170000000C4F2020000688007002809D5FFE7CC
:1021800004980069012804D0FFE701208DF81700AA
:1021900045E241F20001C4F20201086820F0F800B3
:1021A000049A526940EAC2000860FFE74EE00498D2
:1021B000006958B3FFE70021C4F242210120086002
:1021C000FEF75EFF0390FFE741F20000C4F2020059
:1021D0000068800700280CD4FFE7FEF751FF039941
:1021E000401A032804D3FFE703208DF8170016E2F6
:1021F000EAE741F20001C4F20201086820F0F800A9
:10220000049A526940EAC20008601EE00021C4F24C
:10221000422100200860FEF733FF0390FFE741F200
:102220000000C4F202000068800700280CD5FFE718
:10223000FEF726FF0399401A032804D3FFE7032083
:102240008DF81700EBE1EAE7FFE7FFE7FFE7049807
:1022500000780007002848D5FFE70498806918B384
:10226000FFE740F28041C4F2422101200860FEF7FE
:1022700007FF0390FFE741F22400C4F20200006868
:10228000800700280CD4FFE7FEF7FAFE0399401AF6
:10229000032804D3FFE703208DF81700BFE1EAE726
:1022A000012002F0D5FB1FE040F28041C4F2422140
:1022B00000200860FEF7E4FE0390FFE741F22400EF
:1022C000C4F202000068800700280CD5FFE7FEF783
:1022D000D7FE0399401A032804D3FFE703208DF8A3
:1022E00017009CE1EAE7FFE7FFE704980078400762
:1022F000002840F1D880FFE700208DF8070041F268
:102300001C00C4F202000068C000002813D4FFE7DC
:10231000FFE741F21C00C4F20200016841F0805165
:102320000160006800F0805000900098FFE70120F5
:102330008DF80700FFE747F20000C4F200000068D4
:10234000C005002822D4FFE747F20001C4F20001D3
:10235000086840F480700860FEF792FE0390FFE783
:1023600047F20000C4F200000068C00500280CD449
:10237000FFE7FEF785FE0399401A652804D3FFE7BF
:1023800003208DF817004AE1EAE7FFE7FFE704982A
:10239000C068012809D1FFE741F22001C4F202011F
:1023A000086840F00100086031E00498C06868B92E
:1023B000FFE741F22001C4F20201086820F00100A9
:1023C0000860086820F0040008601FE00498C068F6
:1023D00005280DD1FFE741F22001C4F2020108688F
:1023E00040F004000860086840F0010008600CE05C
:1023F00041F22001C4F20201086820F001000860E7
:10240000086820F004000860FFE7FFE7FFE7FFE748
:102410000498C068E0B1FFE7FEF732FE0390FFE7E3
:1024200041F22000C4F202000068800700280ED4A8
:10243000FFE7FEF725FE0399401A41F289318842F1
:1024400004D3FFE703208DF81700E8E0E8E71BE07E
:10245000FEF716FE0390FFE741F22000C4F20200EF
:102460000068800700280ED5FFE7FEF709FE0399F4
:10247000401A41F28931884204D3FFE703208DF8E6
:102480001700CCE0E8E7FFE79DF80700012809D135
:10249000FFE741F21C01C4F20201086820F08050FD
:1024A0000860FFE7FFE70498C069002800F0B380E8
:1024B000FFE741F20400C4F20200006800F00C00E3
:1024C000082800F08280FFE70498C06902285CD1E8
:1024D000FFE76021C4F2422100200860FEF7D0FD32
:1024E0000390FFE741F20000C4F20200006880019F
:1024F00000280CD5FFE7FEF7C3FD0399401A032817
:1025000004D3FFE703208DF8170088E0EAE704987A
:10251000006AB0F5803F0CD1FFE741F20401C4F23C
:102520000201086820F40030049A926810430860A1
:10253000FFE741F20401C4F20201086820F47410BC
:10254000049B1A6A5B6A1A43104308606021C4F254
:10255000422101200860FEF793FD0390FFE741F25E
:102560000000C4F202000068800100280CD4FFE7DC
:10257000FEF786FD0399401A032804D3FFE70320E2
:102580008DF817004BE0EAE71EE06021C4F242211B
:1025900000200860FEF774FD0390FFE741F20000A1
:1025A000C4F202000068800100280CD5FFE7FEF7A6
:1025B00067FD0399401A032804D3FFE703208DF831
:1025C00017002CE0EAE7FFE724E00498C06901283F
:1025D00004D1FFE701208DF8170020E041F204004C
:1025E000C4F2020000680290029800F4803004995E
:1025F000096A884208D1FFE7029800F47010049934
:10260000496A884204D0FFE701208DF8170006E0F0
:10261000FFE7FFE7FFE700208DF81700FFE79DF8D1
:10262000170006B080BD000080B582B0019001980F
:1026300002F02EFA02B080BD81B0009001B0704768
:1026400081B0009001B0704784B0029001910020E9
:102650000090FFE7029890F83C00012804D1FFE7C2
:1026600002208DF80F0044E00299012081F83C001F
:10267000FFE7FFE7009820F0FF000199C9680843D1
:102680000090009820F440700199896808430090F8
:10269000009820F4806001994968084300900098F0
:1026A00020F400600199096808430090009820F424
:1026B00080500199096908430090009820F4005067
:1026C0000199496908430090009820F480400199DD
:1026D000C969084300900098029909684864FFE7B7
:1026E0000299002081F83C00FFE700208DF80F00E0
:1026F000FFE79DF80F0004B07047000085B003901D
:102700000291FFE7039890F83C00012804D1FFE70D
:1027100002208DF813005BE00399012081F83C0052
:10272000FFE7FFE70399022081F83D000398006866
:10273000406801900398006880680090019820F03C
:102740007000019002980168019808430190019877
:102750000399096848600398006842F60041C4F292
:102760000101884218D0FFE703980068B0F1804F5C
:1027700012D0FFE70398006840F20041C4F2000164
:10278000884209D0FFE70398006840F60001C4F2D0
:10279000000188420ED1FFE7009820F080000090F1
:1027A00002984168009808430090009803990968CE
:1027B0008860FFE70399012081F83D00FFE7039956
:1027C000002081F83C00FFE700208DF81300FFE7B0
:1027D0009DF8130005B0704780B582B00090009856
:1027E00020B9FFE701208DF807003FE0009890F83E
:1027F0003D0040B9FFE70099002081F83C000098B7
:1028000000F038F8FFE70099022081F83D000099B8
:1028100051F8040B02F0AAF90099012081F8460052
:10282000FFE70099012081F83E00009981F83F0000
:10283000009981F84000009981F84100FFE7FFE727
:102840000099012081F84200009981F84300009925
:1028500081F84400009981F84500FFE700990120C4
:1028600081F83D0000208DF80700FFE79DF8070084
:1028700002B080BD80B584B003900398006842F632
:102880000041C4F20101884210D1FFE7FFE741F2A5
:102890001800C4F20200016841F4006101600068A0
:1028A00000F4006002900298FFE71FE003980068C0
:1028B000B0F1804F19D1FFE7FFE741F21C00C4F2ED
:1028C0000200016841F001010160006800F00100B0
:1028D00001900198FFE71C20009000221146FFF7AD
:1028E0007BF90098FFF76EF9FFE7FFE704B080BDC2
:1028F00083B00190019890F83D00012804D0FFE7D3
:1029000001208DF80B0047E00199022081F83D007D
:1029100001980168C86840F00100C860019800682B
:1029200042F60041C4F20101884218D0FFE7019845
:102930000068B0F1804F12D0FFE70198006840F2C4
:102940000041C4F20001884209D0FFE70198006805
:1029500040F60001C4F20001884212D1FFE701985D
:102960000068806800F0070000900098062807D0F3
:10297000FFE701980168086840F001000860FFE780
:1029800006E001980168086840F001000860FFE770
:1029900000208DF80B00FFE79DF80B0003B0704797
:1029A00080B586B004900391FFE7049890F83C004E
:1029B000012804D1FFE702208DF81700A7E0049951
:1029C000012081F83C00FFE7FFE70499022081F82D
:1029D0003D000498006880680290029820F077001B
:1029E0000290029820F47F400290029804990968AE
:1029F0008860039800680190002872D0FFE7019872
:102A000010286ED0FFE7019820286AD0FFE70198D0
:102A1000302866D0FFE70198402855D0FFE701989D
:102A2000502837D0FFE70198602840D0FFE7019891
:102A300070280BD0FFE70198B0F5805F05D0FFE765
:102A40000198B0F5005F16D052E052E0049800689B
:102A5000039B5A689968DB6802F01CF904980068C7
:102A600080680290029840F07700029002980499E2
:102A7000096888603DE004980068039B5A6899687B
:102A8000DB6802F007F904980168886840F4804028
:102A900088602EE004980068039A5168D26802F0BA
:102AA000B5FA04980068502102F00EF921E004986C
:102AB0000068039A5168D26802F0D0FA049800685E
:102AC000602102F001F914E004980068039A51684B
:102AD000D26802F09BFA04980068402102F0F4F8F2
:102AE00007E0049800680399096802F0EDF800E037
:102AF000FFE70499012081F83D00FFE704990020D9
:102B000081F83C00FFE700208DF81700FFE79DF8F3
:102B1000170006B080BD000080B586B00490039118
:102B2000049820B9FFE701208DF8170084E004988D
:102B300090F83D0040B9FFE70499002081F83C007F
:102B4000049800F07DF8FFE70499022081F83D0029
:102B500004980168886844F20702904388600499E9
:102B600051F8040B02F002F80498006880680290A3
:102B7000049800688069019004980068006A0090D9
:102B800003980168029808430290019840F20331CB
:102B90008843019003998868896940EA0121019876
:102BA00008430190019840F60C4188430190019838
:102BB0004FF2F001884301900399C868C96940EA5F
:102BC000012101980843019003990869096A0001ED
:102BD00040EA0131019808430190009820F022005A
:102BE000009003994868496940EA01110098084338
:102BF000009002980499096888600198049909680E
:102C0000886100980499096808620499012081F894
:102C10004600049981F83E00049981F83F00049928
:102C200081F84200049981F84300049981F83D003D
:102C300000208DF81700FFE79DF8170006B080BD53
:102C400080B58AB009900020089007900690059002
:102C50000998006840F20041C4F2000188422BD17B
:102C6000FFE7FFE741F21C00C4F20200016841F0F7
:102C700002010160006800F0020004900498FFE780
:102C8000FFE741F21800C4F20200016841F00401BC
:102C90000160006800F0040003900398FFE7C02083
:102CA000059000200690079040F60000C4F2010055
:102CB00005A9FEF725F834E00998006840F6000100
:102CC000C4F2000188422BD1FFE7FFE741F21C006C
:102CD000C4F20200016841F004010160006800F0E4
:102CE000040002900298FFE7FFE741F21800C4F2E7
:102CF0000200016841F008010160006800F008006E
:102D000001900198FFE7C0200590002006900790F1
:102D100040F60040C4F2010005A9FDF7F1FFFFE70E
:102D2000FFE70AB080BD000080B586B00490039133
:102D3000049890F83E008DF80B00049890F83F003E
:102D40008DF80A00049890F842008DF80900049864
:102D500090F843008DF808000398B8B9FFE79DF894
:102D60000B00012805D1FFE79DF80900012804D0D8
:102D7000FFE701208DF8170079E00499022081F81F
:102D80003E00049981F84200FFE742E003980428DE
:102D900017D1FFE79DF80A00012805D1FFE79DF84C
:102DA0000800012804D0FFE701208DF817005EE03D
:102DB0000499022081F83F00049981F84300FFE75D
:102DC00026E09DF80B0001280FD1FFE79DF80A00CF
:102DD00001280AD1FFE79DF80900012805D1FFE786
:102DE0009DF80800012804D0FFE701208DF81700A6
:102DF0003DE00499022081F83E00049981F83F00EB
:102E0000049981F84200049981F84300FFE7FFE745
:102E1000FFE70398019020B1FFE70198042807D04D
:102E20000DE0049800680021012201F017FF14E072
:102E3000049800680421012201F010FF0DE00498BD
:102E4000006800210122009201F008FF009A049816
:102E50000068042101F002FFFFE704980168086898
:102E600040F00100086000208DF81700FFE79DF892
:102E7000170006B080BD000081B0009001B070471F
:102E800080B582B0019001980068006900F00201ED
:102E90000020B0EB510F28D0FFE701980068C06810
:102EA00000F002010020B0EB510F1DD0FFE70198A8
:102EB00001686FF00200086101990120087701980C
:102EC00000688069800720B1FFE70198FFF7D4FF11
:102ED00006E0019800F042F9019800F02FFAFFE7B0
:102EE000019900200877FFE7FFE701980068006973
:102EF00000F004010020B0EB910F29D0FFE701980A
:102F00000068C06800F004010020B0EB910F1ED0F3
:102F1000FFE7019801686FF0040008610199022041
:102F2000087701980068806910F4407F04D0FFE7BB
:102F30000198FFF7A1FF06E0019800F00FF9019852
:102F400000F0FCF9FFE7019900200877FFE7FFE7B1
:102F500001980068006900F008010020B0EBD10F73
:102F600028D0FFE701980068C06800F00801002041
:102F7000B0EBD10F1DD0FFE7019801686FF008009A
:102F8000086101990420087701980068C0698007EA
:102F900020B1FFE70198FFF76FFF06E0019800F00E
:102FA000DDF8019800F0CAF9FFE7019900200877E1
:102FB000FFE7FFE701980068006900F010010020BA
:102FC000B0EB111F29D0FFE701980068C06800F03E
:102FD00010010020B0EB111F1ED0FFE7019801681F
:102FE0006FF01000086101990820087701980068C7
:102FF000C06910F4407F04D0FFE70198FFF73CFF61
:1030000006E0019800F0AAF8019800F097F9FFE7B0
:10301000019900200877FFE7FFE701980068006941
:10302000C00780B1FFE701980068C068C00748B1D9
:10303000FFE7019801686FF001000861019800F056
:1030400031FAFFE7FFE7019800680069C1B200208C
:10305000B0EBD11F13D0FFE701980068C068C1B280
:103060000020B0EBD11F09D0FFE7019801686FF095
:10307000800008610198FFF7DFFAFFE7FFE701989A
:103080000068006900F040010020B0EB911F14D0EF
:10309000FFE701980068C06800F040010020B0EB35
:1030A000911F09D0FFE7019801686FF040000861A7
:1030B000019800F057FAFFE7FFE701980068006900
:1030C00000F020010020B0EB511F14D0FFE7019861
:1030D0000068C06800F020010020B0EB511F09D04B
:1030E000FFE7019801686FF0200008610198FFF781
:1030F000A7FAFFE7FFE702B080BD000080B586B009
:1031000005900020049003900290019005980068BB
:1031100042F60041C4F2010188421DD1FFE7FFE7FA
:1031200041F21800C4F20200016841F0040101609C
:10313000006800F0040000900098FFE74FF4106072
:10314000019002200290049040F60000C4F20100B9
:1031500001A9FDF7D5FDFFE706B080BD81B0009065
:1031600001B0704780B586B0049003910292FFE7EA
:10317000049890F83C00012804D1FFE702208DF864
:10318000170085E00499012081F83C00FFE7FFE784
:10319000029801900C2800F270800199DFE801F09C
:1031A000076D6D6D206D6D6D3A6D6D6D53000498FA
:1031B0000068039901F09EFD04980168886940F059
:1031C0000800886104980168886920F0040088611B
:1031D00003980269049801688869104388614DE08A
:1031E00004980068039901F0EDFD0498016888696E
:1031F00040F40060886104980168886920F4806068
:1032000088610398026904980168886940EA02208D
:10321000886133E004980068039901F03FFE049848
:103220000168C86940F00800C86104980168C8696D
:1032300020F00400C8610398026904980168C86915
:103240001043C8611AE004980068039901F092FEE7
:1032500004980168C86940F40060C8610498016876
:10326000C86920F48060C861039802690498016805
:10327000C86940EA0220C86100E0FFE7FFE704995F
:10328000002081F83C00FFE700208DF81700FFE7E1
:103290009DF8170006B080BD80B582B00090009800
:1032A00020B9FFE701208DF807003FE0009890F873
:1032B0003D0040B9FFE70099002081F83C000098EC
:1032C00000F038F8FFE70099022081F83D000099EE
:1032D00051F8040B01F04AFC0099012081F84600E6
:1032E000FFE70099012081F83E00009981F83F0036
:1032F000009981F84000009981F84100FFE7FFE75D
:103300000099012081F84200009981F8430000995A
:1033100081F84400009981F84500FFE700990120F9
:1033200081F83D0000208DF80700FFE79DF80700B9
:1033300002B080BD81B0009001B0704781B00090B4
:1033400001B0704780B58AB008900791079828B9F6
:10335000FFE7089890F83E0005901CE007980428C5
:1033600005D1FFE7089890F83F00049010E0079817
:10337000082805D1FFE7089890F84000039004E082
:10338000089890F841000390FFE703980490FFE746
:1033900004980590FFE70598012804D0FFE7012075
:1033A0008DF827007AE0079828B9FFE708990220EE
:1033B00081F83E001EE00798042806D1FFE708992F
:1033C000022081F83F00029012E00798082806D1F9
:1033D000FFE70899022081F84000019005E0089974
:1033E000022081F841000190FFE701980290FFE779
:1033F0000298FFE7089800680799012201F02EFC67
:103400000898006842F60041C4F20101884207D1E1
:10341000FFE708980168486C40F400404864FFE703
:103420000898006842F60041C4F20101884218D0B1
:10343000FFE708980068B0F1804F12D0FFE70898C6
:10344000006840F20041C4F20001884209D0FFE761
:103450000898006840F60001C4F20001884212D1C9
:10346000FFE708980068806800F00700069006985B
:10347000062807D0FFE708980168086840F00100B7
:103480000860FFE706E008980168086840F001005E
:103490000860FFE700208DF82700FFE79DF8270070
:1034A0000AB080BD80B584B0039003980068B0F185
:1034B000804F53D1FFE740F25C00C2F2000040F2BF
:1034C0006001C2F20001029140F26C02C2F20002FD
:1034D00003F0C4FE40F2A000C2F20000019040F2EE
:1034E000A201C2F2000140F2A402C2F2000200F006
:1034F000C1FF40F27000C2F2000040F27201C2F25D
:10350000000140F27402C2F2000200F083FF019851
:10351000B0F900003E30FDF7D3F80146029800688C
:1035200002F00EF8014640F26800C2F200000160AD
:10353000016840F25800C2F200000160026840F2E7
:103540005001C2F200010A60006840F25402C2F267
:1035500000021060084600F01FFFFFE703F078FD4F
:1035600004B080BD81B0009001B0704780B586B0D6
:1035700004900391ADF80A20049890F83E002028AA
:103580004ED1FFE7039820B1FFE7BDF80A0020B94C
:10359000FFE701208DF8170046E0FFE7049890F858
:1035A0003C00012804D1FFE702208DF817003BE022
:1035B0000499012081F83C00FFE7FFE7049901200E
:1035C000086304980399BDF80A2001F0E5FE8DF820
:1035D00009009DF80900F0B9FFE70498006B012885
:1035E00014D1FFE7FFE7002001900498006800680D
:1035F000019004980068406801900198FFE70498E2
:103600000168C86840F01000C86003E001208DF830
:103610000900FFE7FFE79DF809008DF8170003E0B8
:1036200002208DF81700FFE79DF8170006B080BD57
:1036300082B00190ADF8021002B0704781B00090E6
:1036400001B0704780B588B007900798006800689F
:10365000069007980068C068059007980068406960
:103660000490002003900290069800F00F00039051
:10367000039888B9FFE79DF81800800600280AD54E
:10368000FFE79DF814008006002804D5FFE707989F
:1036900001F07EFD76E1FFE70398002800F0B4809A
:1036A000FFE79DF81000C00738B9FFE7BDF8140028
:1036B00010F4907F00F0A880FFE79DF81800C00785
:1036C00058B1FFE79DF81500C00730B1FFE7079933
:1036D000086C40F001000864FFE79DF818004007FF
:1036E00000280BD5FFE79DF81000C00730B1FFE7B9
:1036F0000799086C40F002000864FFE79DF8180085
:10370000800700280BD5FFE79DF81000C00730B1F7
:10371000FFE70799086C40F004000864FFE79DF894
:1037200018000007002811D5FFE79DF81400800657
:10373000002805D4FFE79DF81000C00730B1FFE76F
:103740000799086C40F008000864FFE70798006CD0
:10375000002858D0FFE79DF81800800600280AD5F9
:10376000FFE79DF814008006002804D5FFE70798BE
:1037700001F00EFDFFE7079800684069C0F3801074
:1037800002900798006C0007002803D4FFE7029816
:1037900088B3FFE7079801F09BFC07980068406931
:1037A0004006002822D5FFE707980168486920F005
:1037B000400048610798806B98B1FFE70798816BDC
:1037C00045F2B100C0F6000048630798806BFDF732
:1037D000E7F928B1FFE70798806B416B8847FFE75F
:1037E00003E00798FFF72AFFFFE703E00798FFF7DA
:1037F00025FFFFE706E00798FFF720FF0799002065
:103800000864FFE7FFE7BDE00798006B012840F080
:103810009980FFE79DF81800C006002840F19280CB
:10382000FFE79DF81400C006002840F18B80FFE7F9
:10383000FFE7002001900798006800680190079852
:103840000068406801900198FFE7079800684069A8
:103850004006002848D5FFE70798806B006840685D
:10386000ADF80200BDF80200E8B3FFE7BDF80200C2
:103870000799898D884236DAFFE7BDF8020007997B
:10388000C8850798806B8069202824D0FFE70798B7
:103890000168C86820F48070C860079801684869AA
:1038A00020F00100486107980168486920F0400055
:1038B00048610799202081F83E000799002008639D
:1038C00007980168C86820F01000C8600798806BEE
:1038D000FDF728F9FFE70798818DC28D891A89B213
:1038E000FFF7A6FEFFE74DE00799888DC98D401AC6
:1038F000ADF800000798C08D18B3FFE7BDF80000D1
:10390000F8B1FFE707980168C86820F49070C860B4
:1039100007980168486920F0010048610799202054
:1039200081F83E0007990020086307980168C8687D
:1039300020F01000C8600798BDF80010FFF778FE6F
:10394000FFE71FE09DF81800000600280AD5FFE7F2
:103950009DF814000006002804D5FFE7079801F041
:103960004DFD0FE09DF81800400600280AD5FFE73E
:103970009DF814004006002804D5FFE7079801F0E1
:10398000CBFBFFE708B080BD80B582B00090009807
:1039900020B9FFE701208DF807003EE0009880691C
:1039A00008B1FFE700E0FFE7009890F83D0040B95C
:1039B000FFE70099002081F83C00009800F032F801
:1039C000FFE70099242081F83D0000980168C8684D
:1039D00020F40050C860009801F080FC0098016855
:1039E000086920F49040086100980168486920F057
:1039F0002A00486100980168C86840F40050C86017
:103A0000009900200864009A202182F83D10009A55
:103A100082F83E108DF80700FFE79DF8070002B01E
:103A200080BD000080B58CB00B9000200A900990FA
:103A3000089007900B98006844F60001C4F200015A
:103A4000884243D1FFE7FFE741F21C00C4F20200C5
:103A5000016841F480210160006800F48020069034
:103A60000698FFE7FFE741F21800C4F20200016880
:103A700041F008010160006800F008000590059819
:103A8000FFE74FF4806007900220089003200A901F
:103A900040F60040C4F20100019007A90291FDF731
:103AA0002FF9019802994FF40062079200220392C5
:103AB00008920992FDF724F9039A272004901146F1
:103AC000FEF78AF80498FEF77DF8FFE70CB080BD9A
:103AD00080B582B0019040F26500C2F2000001782A
:103AE00040F21C20C2F200003222FFF73FFD02B07C
:103AF00080BD000080B58AB008900791ADF81A200B
:103B0000059300200290089890F83D00202840F08E
:103B10009080FFE7079820B1FFE7BDF81A0020B9B1
:103B2000FFE701208DF8270087E0FFE7089890F86D
:103B30003C00012804D1FFE702208DF827007CE03B
:103B40000899012081F83C00FFE7FFE70899002071
:103B500008640899212081F83D00FDF791FA029050
:103B6000BDF81A0008998884BDF81A000899C8841D
:103B700008988068B0F5805F09D1FFE70898006970
:103B800028B9FFE7002004900798039004E0079805
:103B9000049000200390FFE7FFE70899002081F8D8
:103BA0003C00FFE7FFE70898C08C58B3FFE7089890
:103BB000029B05996A4611608021002201F068FC91
:103BC00020B1FFE703208DF8270036E0049858B9AC
:103BD000FFE7039800886FF35F2008990968486041
:103BE00003980230039008E0049800780899096867
:103BF0004860049801300490FFE70899C88C0138A8
:103C0000C884D0E70898029B05996A461160402154
:103C1000002201F03DFC20B1FFE703208DF82700D2
:103C20000BE00899202081F83D0000208DF8270046
:103C300003E002208DF82700FFE79DF827000AB077
:103C400080BD000081B0009001B07047FFE7FEE743
:103C500082B0009000980068406900F48061012003
:103C6000B0EB912F1ED1FFE7009801686FF48060E0
:103C70004861009900200863009A202182F83D10D5
:103C8000009981F83E000099086C40F00400086437
:103C9000FFE70099002081F83C00FFE701208DF844
:103CA000070003E000208DF80700FFE79DF80700FC
:103CB00002B0704780B586B0DDF824C0DDF820C0C2
:103CC0000490ADF80E10ADF80C20ADF80A30049851
:103CD0000168086840F4806008600498016808681A
:103CE00040F4807008600498089B09996A46116046
:103CF0004FF00111002200F0B9F980B1FFE70498FC
:103D000000680068C005002805D5FFE704994FF456
:103D100000700864FFE703208DF81700B7E0BDF8D6
:103D20000E0000F0FE000499096808610498089AE2
:103D3000099B0221C0F2010100F0F8F920B1FFE770
:103D400001208DF81700A2E0FFE700200190049801
:103D500000684069019004980068806901900198AA
:103D6000FFE704980899099A00F0CCFA80B1FFE7C0
:103D70000498006C042807D1FFE7049801680868DC
:103D800040F400700860FFE701208DF817007EE026
:103D9000BDF80A00012806D1FFE79DF80C00049940
:103DA0000968086121E09DF80D000499096808611F
:103DB00004980899099A00F0A5FA80B1FFE70498E1
:103DC000006C042807D1FFE704980168086840F4F4
:103DD00000700860FFE701208DF8170057E09DF89C
:103DE0000C00049909680861FFE704980899099A8A
:103DF00000F088FA80B1FFE70498006C042807D12E
:103E0000FFE704980168086840F400700860FFE765
:103E100001208DF817003AE004980168086840F422
:103E2000807008600498089B09996A4611604FF0F9
:103E30000111002200F01AF980B1FFE70498006830
:103E40000068C005002805D5FFE704994FF400700D
:103E50000864FFE703208DF8170018E09DF80E00B6
:103E600040F001000499096808610498089A099BC8
:103E70000221C0F2010100F059F920B1FFE7012051
:103E80008DF8170003E000208DF81700FFE79DF87C
:103E9000170006B080BD000080B586B0DDF824C0F4
:103EA000DDF820C00490ADF80E10ADF80C20ADF890
:103EB0000A3004980168086840F48070086004982B
:103EC000089B09996A4611604FF00111002200F029
:103ED000CDF880B1FFE7049800680068C0050028AD
:103EE00005D5FFE704994FF400700864FFE703204D
:103EF0008DF8170069E0BDF80E0000F0FE0004998F
:103F0000096808610498089A099B0221C0F201011E
:103F100000F00CF920B1FFE701208DF8170054E004
:103F2000FFE7002001900498006840690190049820
:103F30000068806901900198FFE704980899099A40
:103F400000F0E0F980B1FFE70498006C042807D185
:103F5000FFE704980168086840F400700860FFE714
:103F600001208DF8170030E0BDF80A00012806D1C5
:103F7000FFE79DF80C0004990968086121E09DF8AD
:103F80000D0004990968086104980899099A00F0DD
:103F9000B9F980B1FFE70498006C042807D1FFE766
:103FA00004980168086840F400700860FFE7012089
:103FB0008DF8170009E09DF80C0004990968086164
:103FC000FFE700208DF81700FFE79DF8170006B007
:103FD00080BD000080B584B0029001910092FFE79F
:103FE00002980068406900F004010020B0EB910FD6
:103FF00033D1FFE70298FFF72BFE20B1FFE7012046
:104000008DF80F002DE00198013028B3FFE7FDF790
:1040100037F80099401A0199884203D8FFE70198C0
:10402000C8B9FFE7029900200863029A202182F8AC
:104030003D10029981F83E000299086C40F0200082
:104040000864FFE70299002081F83C00FFE70120A7
:104050008DF80F0005E0FFE7C2E700208DF80F00A4
:10406000FFE79DF80F0004B080BD000080B586B06A
:10407000DDF820C0049003918DF80B200193FFE739
:104080009DF80E0001280CD1FFE7049800684069F4
:10409000BDF80C100840401AB0FA80F040090090BA
:1040A0000BE0049800688069BDF80C100840401AC5
:1040B000B0FA80F040090090FFE700989DF80B10DF
:1040C00088422AD1FFE70198013028B3FFE7FCF7C7
:1040D000D7FF0899401A0199884203D8FFE7019851
:1040E000C8B9FFE7049900200863049A202182F8E8
:1040F0003D10049981F83E000499086C40F02000BE
:104100000864FFE70499002081F83C00FFE70120E4
:104110008DF8170005E0FFE7B2E700208DF81700E3
:10412000FFE79DF8170006B080BD000080B586B09F
:104130000490039102920193FFE79DF80E0001287D
:104140000CD1FFE7049800684069BDF80C100840E6
:10415000401AB0FA80F0400900900BE00498006823
:104160008069BDF80C100840401AB0FA80F0400990
:104170000090FFE70098002858D1FFE704980068F6
:10418000406900F480610120B0EB912F24D1FFE75A
:1041900004980168086840F4007008600498016899
:1041A0006FF480604861049900200863049A20211C
:1041B00082F83D10049981F83E000499086C40F0A3
:1041C00004000864FFE70499002081F83C00FFE741
:1041D00001208DF817002DE00298013028B3FFE789
:1041E000FCF74EFF0199401A0299884203D8FFE775
:1041F0000298C8B9FFE7049900200863049A2021B7
:1042000082F83D10049981F83E000499086C40F052
:1042100020000864FFE70499002081F83C00FFE7D4
:1042200001208DF8170005E0FFE786E700208DF8F4
:104230001700FFE79DF8170006B080BD80B584B079
:10424000029001910092FFE702980068406900F037
:1042500040010020B0EB911F4BD1FFE702980068AE
:10426000406900F010010120B0EB111F1CD1FFE7E5
:10427000029801686FF010004861029900200863FD
:10428000029A202182F83D10029981F83E0002999D
:10429000086C0864FFE70299002081F83C00FFE702
:1042A00001208DF80F0028E0FCF7EAFE0099401A83
:1042B0000199884203D8FFE70198C8B9FFE702993E
:1042C00000200863029A202182F83D10029981F8AB
:1042D0003E000299086C40F020000864FFE7029954
:1042E000002081F83C00FFE701208DF80F0004E07A
:1042F000AAE700208DF80F00FFE79DF80F0004B03B
:1043000080BD000080B584B0029001910092FFE76B
:10431000029800684069C1B20020B0EBD11F33D1D0
:10432000FFE70298FFF794FC20B1FFE701208DF82A
:104330000F002DE00198013028B3FFE7FCF7A0FE45
:104340000099401A0199884203D8FFE70198C8B93B
:10435000FFE7029900200863029A202182F83D10AD
:10436000029981F83E000299086C40F02000086430
:10437000FFE70299002081F83C00FFE701208DF85B
:104380000F0005E0FFE7C3E700208DF80F00FFE70F
:104390009DF80F0004B080BD82B00190009101989B
:1043A000006841F65931884205DBFFE7019941F683
:1043B00058300860FFE7019800684EF2A741CFF639
:1043C000FF71884207DCFFE701994EF2A840CFF663
:1043D000FF700860FFE70098006841F65931884295
:1043E00005DBFFE7009941F658300860FFE70098C9
:1043F00000684EF2A741CFF6FF71884207DCFFE765
:1044000000994EF2A840CFF6FF700860FFE702B0B7
:104410007047000080B586B0059004910392682033
:104420003B2106220DF1060300F054F88DF805003B
:104430009DF80500C8B9FFE79DF806109DF8070034
:1044400040EA0120059908809DF808109DF80900B0
:1044500040EA0120049908809DF80A109DF80B009D
:1044600040EA012003990880FFE79DF8050006B0A7
:1044700080BD000080B586B005900491039268204D
:10448000432106220DF1060300F024F88DF8050003
:104490009DF80500C8B9FFE79DF806109DF80700D4
:1044A00040EA0120059908809DF808109DF8090050
:1044B00040EA0120049908809DF80A109DF80B003D
:1044C00040EA012003990880FFE79DF8050006B047
:1044D00080BD000080B586B08DF817008DF81610ED
:1044E0008DF8152004939DF8170041009DF81620C3
:1044F00004989DF815C06B4640F6FF7EC3F808E0AF
:10450000C3F804C0186040F2A800C2F20000012302
:10451000FCF70EFF8DF80F009DF80F0006B080BD70
:1045200080B586B08DF817008DF816108DF815201F
:1045300004939DF8170041009DF8162004989DF8FB
:1045400015C06B4640F6FF7EC3F808E0C3F804C010
:10455000186040F2A800C2F200000123FDF74CF9F8
:104560008DF80F009DF80F0006B080BD80B592B0A9
:104570000020119010900F900E90FFE741F218006C
:10458000C4F20200016841F010010160006800F00F
:1045900010000D900D98FFE7FFE741F21800C4F2FC
:1045A0000200016841F020010160006800F0200075
:1045B0000C900C98FFE7FFE741F21800C4F20200EC
:1045C000016841F004010160006800F004000B90F4
:1045D0000B98FFE7FFE741F21800C4F20200016800
:1045E00041F008010160006800F008000A900A9894
:1045F000FFE741F20000C4F2010002904FF40051C5
:10460000019100220792FCF723FD079A40F6004033
:10461000C4F2010008904FF470410591FCF718FDB9
:10462000019A029807990E92012206920F92109118
:104630000221039111910EA90991FCF761FB0698E3
:10464000079A099910230E930F92109040F60000DC
:10465000C4F201000490FCF753FB039A0498079BF3
:1046600009994FF0200CCDF838C00F931092FCF749
:1046700047FBDDF814C0069B079A08980999CDF806
:1046800038C00F93109203221192FCF739FB12B03D
:1046900080BD000080B582B040F2A800C2F20000E8
:1046A000019045F20041C4F20001016041F6802111
:1046B000C0F20601416000218160C1604FF4804278
:1046C000026141618161C1610162FCF7DFFC18B1E7
:1046D000FFE7FCF71FFAFFE702B080BD80B598B096
:1046E0000021019117911691159114911391129136
:1046F000119110910F910E910D910C910B910A91C6
:10470000099108910791069105910491039140F256
:10471000FC00C2F20000029042F60042C4F2010224
:1047200002604160816041F61F42C26001614161E7
:104730008161FEF751F818B1FFE7FCF7EBF9FFE7ED
:104740004FF48050149040F2FC00C2F2000014A913
:10475000FEF726F918B1FFE7FCF7DCF9FFE740F2B6
:10476000FC00C2F20000FEF797FD18B1FFE7FCF76E
:10477000D1F9FFE700201290139040F2FC00C2F242
:10478000000012A9FDF7BAFF18B1FFE7FCF7C2F964
:10479000FFE760200B9000220C920D920E920F9278
:1047A0001092119240F2FC00C2F200000BA9FEF739
:1047B000D9FC18B1FFE7FCF7ADF9FFE740F2FC00C8
:1047C000C2F200000BA90C22FEF7CCFC18B1FFE7E7
:1047D000FCF7A0F9FFE700200390049005900690F5
:1047E00007904FF4005108910A9040F2FC00C2F289
:1047F000000003A9FDF728FF18B1FFE7FCF78AF9CD
:10480000FFE740F2FC00C2F20000FEF777FC18B0B0
:1048100080BD000080B588B000210191079106910C
:10482000059104910391029140F24410C2F20000FC
:104830004FF08042026041F61F4242608160632275
:10484000C260016180218161FDF7C6FF18B1FFE7F9
:10485000FCF760F9FFE74FF48050049040F24410F9
:10486000C2F2000004A9FEF79BF818B1FFE7FCF7BD
:1048700051F9FFE700200290039040F24410C2F289
:10488000000002A9FDF73AFF18B1FFE7FCF742F973
:10489000FFE708B080BD000080B58EB005A801908C
:1048A0002421FBF77BFC01990022029204920392DF
:1048B00040F28C10C2F2000040F20043C4F2000348
:1048C0000360426082604FF6FF73C36002618261E1
:1048D00003230593069201230793089209920A92F3
:1048E0000B930C920D92FEF717F918B1FFE7FCF746
:1048F00011F9FFE700200390049040F28C10C2F2FF
:10490000000003A9FDF7FAFE18B1FFE7FCF702F972
:10491000FFE70EB080BD000080B58EB005A8019005
:104920002421FBF73BFC019900220292049203929E
:1049300040F2D410C2F2000040F60003C4F20003BB
:104940000360426082604FF6FF73C3600261826160
:1049500003230593069201230793089209920A9272
:104960000B930C920D92FEF7D7F818B1FFE7FCF706
:10497000D1F8FFE700200390049040F2D410C2F277
:10498000000003A9FDF7BAFE18B1FFE7FCF7C2F873
:10499000FFE70EB080BD000080B582B040F21C2061
:1049A000C2F20000019044F60001C4F2000101606F
:1049B0004FF41651416000218160C16001610C22F9
:1049C00042618161C161FEF7DFFF18B1FFE7FCF7CB
:1049D000A1F8FFE702B080BDFFE7FEE7FFE7FEE7D3
:1049E00088B0079006910592079800F007000490A0
:1049F0000498C0F10700052803D3FFE704200190C5
:104A000004E00498C0F107000190FFE701980390CB
:104A100004980430062803D8FFE70020009003E044
:104A2000049803380090FFE70098029006980399D5
:104A3000012202FA01F101390840029B98400599D0
:104A40009A40013A1140084308B07047704700008F
:104A500082B00190019840F20801C2F20001096899
:104A6000C90844F6D352C1F26202A1FB02218909AE
:104A700048430090FFE700BFFFE70098411E009108
:104A80000028F8D1FFE702B070470000704700002F
:104A900080B582B0009000980138B0F1807F03D3D8
:104AA000FFE70120019019E0009801384EF214014F
:104AB000CEF2000108604FF0FF300F2100F094FDAE
:104AC0004EF21801CEF20001002008604EF21002F2
:104AD000CEF20002072111600190FFE7019802B0B9
:104AE00080BD000080B5FCF7E1FF80BD80B590B0CF
:104AF00006A800902821FBF751FB0098002305939E
:104B00000493039302930193012206924FF48031A0
:104B1000079108930A9202220D920E914FF4E01130
:104B20000F91FDF743FA18B1FFE7FBF7F3FFFFE73B
:104B30000F20019002210291002003904FF4806227
:104B40000492059001A8FDF769F818B1FFE7FBF79B
:104B5000E1FFFFE710B080BD7047000080B540F274
:104B60004410C2F20000FEF78BF980BD83B00290C2
:104B70000191029800680090029842F60041C4F248
:104B80000101884215D0FFE70298B0F1804F10D0A4
:104B9000FFE7029840F20041C4F20001884208D0C9
:104BA000FFE7029840F60001C4F2000188420AD1F2
:104BB000FFE7009820F0700000900198416800988D
:104BC00008430090FFE7029842F60041C4F2010159
:104BD000884215D0FFE70298B0F1804F10D0FFE770
:104BE000029840F20041C4F20001884208D0FFE779
:104BF000029840F60001C4F2000188420AD1FFE7A2
:104C0000009820F4407000900198C1680098084313
:104C10000090FFE7009820F080000199496908435F
:104C20000090009802990860019880680299C86213
:104C30000198006802998862029842F60041C4F225
:104C40000101884205D1FFE70198006902990863D4
:104C5000FFE702990120486103B0704784B00390D8
:104C600002910192029800F01F01012088400090FB
:104C7000009A0399086A904308620198029901F02A
:104C80001F0100FA01F20399086A1043086204B098
:104C90007047000085B0049003910292019304983C
:104CA00080680090009820F47F400090039802995B
:104CB000019A41EA022101430098084300900098BC
:104CC0000499886005B0704783B002900191029802
:104CD00080680090009820F0700000900198009982
:104CE000084340F00700009000980299886003B0E4
:104CF0007047000085B0049003910499086A20F081
:104D0000010008620498006A0190049840680090CD
:104D1000049880690290029820F070000290029836
:104D200020F0030002900398016802980843029063
:104D3000019820F0020001900398816801980843CF
:104D40000190049842F60041C4F2010188420ED15C
:104D5000FFE7019820F0080001900398C1680198CE
:104D600008430190019820F004000190FFE70498A7
:104D700042F60041C4F20101884213D1FFE70098D6
:104D800020F480700090009820F400700090039848
:104D9000416900980843009003988169009808438E
:104DA0000090FFE700980499486002980499886190
:104DB000039840680499486301980499086205B013
:104DC0007047000085B0049003910499086A20F0B0
:104DD000100008620498006A0190049840680090EE
:104DE000049880690290029820F4E04002900298B2
:104DF00020F44070029003980168029840EA012074
:104E00000290019820F02000019003988168019899
:104E100040EA01100190049842F60041C4F20101F9
:104E200088420FD1FFE7019820F08000019003989D
:104E3000C168019840EA01100190019820F04000FB
:104E40000190FFE7049842F60041C4F20101884254
:104E500015D1FFE7009820F480600090009820F4BE
:104E60000060009003984169009840EA810000903A
:104E700003988169009840EA81000090FFE700985C
:104E800004994860029804998861039840680499DD
:104E9000886301980499086205B0704785B0049052
:104EA00003910499086A20F4807008620498006AEB
:104EB00001900498406800900498C069029002989C
:104EC00020F070000290029820F0030002900398F6
:104ED0000168029808430290019820F40070019044
:104EE00003988168019840EA01200190049842F6F5
:104EF0000041C4F2010188420FD1FFE7019820F47C
:104F0000006001900398C168019840EA0120019077
:104F1000019820F480600190FFE7049842F6004178
:104F2000C4F20101884215D1FFE7009820F48050B7
:104F30000090009820F40050009003984169009878
:104F400040EA0110009003988169009840EA01103E
:104F50000090FFE700980499486002980499C8619E
:104F6000039840680499C86301980499086205B0E1
:104F70007047000085B0049003910499086A20F4FA
:104F8000805008620498006A01900498406800907C
:104F90000498C0690290029820F4E04002900298C0
:104FA00020F44070029003980168029840EA0120C2
:104FB0000290019820F400500190039881680198B4
:104FC00040EA01300190049842F60041C4F2010128
:104FD00088420BD1FFE7009820F4804000900398AE
:104FE0004169009840EA81100090FFE70098049919
:104FF000486002980499C86103984068049908645D
:1050000001980499086205B07047000085B00490CB
:10501000039102920498006A00900499086A20F0B3
:1050200001000862049880690190019820F0F00066
:1050300001900299019840EA01100190009820F037
:105040000A00009003990098084300900198049981
:10505000886100980499086205B0704785B0049093
:10506000039102920499086A20F0100008620498E3
:10507000806901900498006A0090019820F47040C3
:1050800001900299019840EA01300190009820F0C7
:10509000A00000900399009840EA01100090019848
:1050A0000499886100980499086205B0704700006F
:1050B00080B582B001900198406A0090009900206C
:1050C000C8850099C8840098FEF7B8FA02B080BD80
:1050D00081B0009000980168C86820F49070C860A2
:1050E00000980168486920F0010048610098006B51
:1050F000012807D1FFE700980168C86820F0100078
:10510000C860FFE70099202081F83E000099002048
:10511000086301B07047000080B582B0019001982B
:105120000168C86820F04000C8600199202081F81B
:105130003D000198FEF786FD002002B080BD000012
:1051400080B540F26420C2F20000006840F268219D
:10515000C2F200010968401AC0087C2801D8FFE7A4
:1051600015E040F26420C2F20000006840F26821BD
:10517000C2F20001086040F26020C2F20000017833
:105180004AF6FC30C0F6000003F03EFEFFE780BDAB
:1051900080B586B00490049890F83E00222840F034
:1051A0009480FFE704988068B0F5805F15D1FFE731
:1051B0000498006988B9FFE7002003900498806A8A
:1051C00002900498006840686FF35F20029908809D
:1051D0000499886A0230886225E00498806A039006
:1051E0000020029004988068B0F5805F08D0FFE747
:1051F0000498806850B9FFE70498006930B9FFE768
:105200000498006840680399087007E004980068F3
:10521000406800F07F0003990870FFE70499886AEE
:1052200001308862FFE70499C88D0138C885000401
:10523000002846D1FFE704980168C86820F02000E4
:10524000C86004980168C86820F48070C860049839
:105250000168486920F0010048610499202081F824
:105260003E000498006B012823D1FFE70499002039
:10527000086304980168C86820F01000C8600498AA
:1052800000680068C00600280ED5FFE7FFE7002091
:1052900001900498006800680190049800684068D4
:1052A00001900198FFE7FFE70498818DFEF7C0F9B0
:1052B00003E00498FEF70CFCFFE700208DF81700D0
:1052C00007E000208DF8170003E002208DF817009A
:1052D000FFE79DF8170006B080BD000080B584B0E0
:1052E000039003980068006920F44050039A116805
:1052F000D26810430861039988680A6949691043B4
:105300000843029003980068C06841F20C6188432A
:105310000299084303990968C860039800684069C6
:1053200020F44070039A1168926910434861039811
:10533000006843F60001C4F20101884204D1FFE78E
:10534000FCF7B0FD019003E0FCF79AFD0190FFE748
:10535000019819214843039A116852689200B0FBE2
:10536000F2FC48F21F52C5F2EB12ACFB02304309CB
:10537000642003FB10CC322000EB0C10A0FB0202D7
:10538000F02000EA521000EB0310C2F34312104465
:10539000886004B080BD000083B002900191ADF838
:1053A0000220019802998862BDF80200029988855E
:1053B000BDF802000299C88502990020086402998C
:1053C000222081F83E00FFE70299002081F83C008E
:1053D000FFE702980168C86840F48070C8600298CE
:1053E0000168486940F00100486102980168C86896
:1053F00040F02000C860002003B0704783B00190E7
:10540000019890F83D0021283AD1FFE70198806883
:10541000B0F5805F13D1FFE70198006978B9FFE725
:105420000198006A0090009800886FF35F2001994E
:10543000096848600199086A0230086208E0019A28
:10544000106A411C11620078019909684860FFE701
:105450000199C88C0138C884000468B9FFE7019835
:105460000168C86820F08000C86001980168C868B9
:1054700040F04000C860FFE700208DF80B0003E01B
:1054800002208DF80B00FFE79DF80B0003B070477A
:1054900080B586B0DDF820C0049003918DF80B2014
:1054A0000193FFE704980068006803990840401AD8
:1054B000B0FA80F040099DF80B1088422ED1FFE72A
:1054C0000898013048B3FFE7089840B1FFE7FBF7C1
:1054D000D7FD0199401A089988421DD9FFE7049821
:1054E0000168C86820F4D070C860049801684869F1
:1054F00020F0010048610499202081F83D000499C2
:1055000081F83E00FFE70499002081F83C00FFE7A6
:1055100003208DF8170005E0FFE7C3E700208DF8B2
:105520001700FFE79DF8170006B080BD80B540F278
:105530001C20C2F20000FEF785F880BDFFE7FEE701
:1055400080B588B00790069148F20000CCF209407F
:1055500004904FF0404003900798FBF7D8F80022E2
:105560000023CBF6D073FAF7F9FEFBF7E3F80590CA
:10557000049801900598009003980699FAF77EFE2A
:105580000099024601980292FAF778FE0299FAF71A
:105590001DFEFBF7A3F8014640F25800C2F20000DE
:1055A0000160006808B080BD81B08DF803009DF9EE
:1055B000030000280ED4FFE79DF9031001F01F023D
:1055C000012090404A094EF20011CEF2000141F84C
:1055D0002200FFE701B070474EF60C50CEF20000FB
:1055E0000068C0F30220704782B08DF80700009178
:1055F0009DF9070000280AD4FFE7009800019DF9F3
:1056000007104EF20042CEF2000288540BE00098E0
:1056100000019DF8071001F00F014EF61452CEF272
:1056200000028854FFE702B07047000083B0029088
:10563000029800F0070000904EF60C51CEF20001E7
:105640000868019001984FF6FF0210400190019800
:10565000009A40EA02200022C0F2FA521043019060
:105660000198086003B0704780B58AB0099008912E
:1056700000200090069003A801F01CF80098079005
:10568000FFE7079802285EDCFFE70998079A50F8C1
:105690002200089951F82210401AFAF774FDFBF71E
:1056A0000FF84FF08F41FAF71BFE0290079903A8FD
:1056B00050F821000021FAF7F5FF10BBFFE7029830
:1056C000079A03A951F82210FAF70AFE0021CBF637
:1056D0008071FAF77BFD0190019820F000404AF6B6
:1056E0003041C0F60001496AFAF7C0FF40B9FFE750
:1056F0000799012000FA01F1069808430690FFE798
:105700001CE002984AF63041C0F60001C969FAF778
:10571000BBFF50B9FFE702984AF63041C0F60001DE
:10572000096AFAF7A3FF40B9FFE70799012000FAD9
:1057300001F1069808430690FFE7FFE7FFE70798A7
:10574000013007909DE706980AB080BD80B582B011
:1057500001900198C07800F0C0008DF80200019817
:10576000C07800F03F008DF8030001984078C00732
:10577000F8B1FFE79DF80300C0088DF801009DF81F
:10578000030000F0070001308DF8000040F29000A7
:10579000C2F20000006858B1FFE740F29000C2F288
:1057A000000002689DF801009DF800109047FFE797
:1057B000FFE7019840780007002812D5FFE740F284
:1057C0009000C2F20000406850B1FFE740F2900044
:1057D000C2F2000041689DF8020080098847FFE797
:1057E000FFE7002002B080BD80B582B08DF80700D1
:1057F0009DF8070068B1FFE720208DF80000282001
:105800008DF8010030208DF8020038208DF803005B
:1058100003E04FF0A3300090FFE740F69E20042104
:105820006A4603F047F902F017FB02B080BD0000A2
:1058300080B586B0ADF8160002208DF80C00CA20A5
:105840008DF80D00E3208DF80E0009208DF80F0073
:105850006820042103AA03F02DF9A3208DF80C0081
:10586000BDF81600400600280AD5FFE7C0208DF8D5
:105870000D00C8208DF80E00C2208DF80F0007E043
:10588000A3208DF80D008DF80E008DF80F00FFE7B6
:10589000BDF8160010F4C07F0AD0FFE7C4208DF8D1
:1058A0001000CC208DF81100C6208DF8120007E002
:1058B000A3208DF810008DF811008DF81200FFE77D
:1058C000A3208DF813008DF814008DF8150040F614
:1058D000A7200A2103AA03F0EDF8BDF816008007FF
:1058E00020B1FFE720208DF80C0003E0D8208DF8D0
:1058F0000C00FFE740F6B620012103AA03F0DAF816
:10590000BDF816008006002804D5FFE7012000F04E
:10591000E5F803E0002000F0E1F8FFE7BDF816002D
:1059200010F4C07F27D0FFE7BDF81600C00500289F
:105930000DD5FFE7B2208DF80C008B208DF80D00FF
:10594000B6208DF80E009B208DF80F000CE0B020E3
:105950008DF80C0080208DF80D00B4208DF80E001D
:1059600090208DF80F00FFE740F6A220042103AA43
:1059700003F0A0F8FFE7BDF81600C00750B3FFE73B
:10598000F8208DF80C004FF40B600121029103AA5E
:1059900003F090F807200190FA2100F037FD0198FC
:1059A00000F0D8FC029800F00BFD642000F02CFE03
:1059B0004FF4FA7000F048FE4EF20930C0F2CA20EF
:1059C000C82100F05BFC282000F084FC0A2000F0D5
:1059D000A1FC09E0D8208DF80C004FF40B600121E8
:1059E00003AA03F067F8FFE7BDF816008007002858
:1059F00004D5FFE7D9208DF80C0003E0D8208DF8FE
:105A00000C00FFE740F23D70012103AA03F052F8B9
:105A1000BDF816004007002804D5FFE7012000F07C
:105A200093F803E0002000F08FF8FFE7BDF81600C0
:105A3000C006002804D5FFE70120FFF7D5FE03E0EC
:105A40000020FFF7D1FEFFE7BDF8160040F0080088
:105A500040F29001C2F200010091488102F0FCF98D
:105A6000009900208873BDF816004006002808D56C
:105A7000FFE740F29001C2F20001887B0630887394
:105A8000FFE7BDF8160010F4C07F08D0FFE740F232
:105A90009001C2F20001887B06308873FFE7BDF8F1
:105AA000160010F0140F08D0FFE740F29001C2F288
:105AB0000001887B10308873FFE7BDF8160080076F
:105AC00040B1FFE740F29001C2F20001887B043050
:105AD0008873FFE7002006B080BD000080B588B065
